{
  "contractName": "AdsMarket",
  "abi": [
    {
      "inputs": [
        {
          "internalType": "contract Post",
          "name": "_postContract",
          "type": "address"
        },
        {
          "internalType": "contract Token",
          "name": "_tokenContract",
          "type": "address"
        },
        {
          "internalType": "contract User",
          "name": "_userContract",
          "type": "address"
        }
      ],
      "stateMutability": "nonpayable",
      "type": "constructor"
    },
    {
      "inputs": [
        {
          "internalType": "string",
          "name": "caption",
          "type": "string"
        },
        {
          "internalType": "string",
          "name": "ipfsCID",
          "type": "string"
        },
        {
          "internalType": "uint256",
          "name": "daysToAdvertise",
          "type": "uint256"
        }
      ],
      "name": "createAd",
      "outputs": [
        {
          "internalType": "uint256",
          "name": "",
          "type": "uint256"
        }
      ],
      "stateMutability": "nonpayable",
      "type": "function"
    },
    {
      "inputs": [],
      "name": "payout",
      "outputs": [],
      "stateMutability": "nonpayable",
      "type": "function"
    }
  ],
  "bytecode": "0x60806040526103e8600455605a60065534801561001b57600080fd5b50604051610c7e380380610c7e83398101604081905261003a916100b1565b60008054336001600160a01b0319918216179091556001805482166001600160a01b03868116919091179091556002805483168583161790556003805490921690831617905561008d4262278d006100fe565b60055550610125915050565b6001600160a01b03811681146100ae57600080fd5b50565b6000806000606084860312156100c657600080fd5b83516100d181610099565b60208501519093506100e281610099565b60408501519092506100f381610099565b809150509250925092565b8082018082111561011f57634e487b7160e01b600052601160045260246000fd5b92915050565b610b4a806101346000396000f3fe608060405234801561001057600080fd5b50600436106100365760003560e01c8063385319081461003b57806363bd1d4a14610060575b600080fd5b61004e6100493660046107d6565b61006a565b60405190815260200160405180910390f35b610068610343565b005b600354604051637b51e92760e11b8152336004820181905260009290916001600160a01b039091169063f6a3d24e90602401602060405180830381865afa1580156100b9573d6000803e3d6000fd5b505050506040513d601f19601f820116820180604052508101906100dd9190610843565b6101245760405162461bcd60e51b81526020600482015260136024820152721d5cd95c88191bd95cc81b9bdd08195e1a5cdd606a1b60448201526064015b60405180910390fd5b6000600454846101349190610882565b6002546040516370a0823160e01b81523360048201529192506001600160a01b0316906370a0823190602401602060405180830381865afa15801561017d573d6000803e3d6000fd5b505050506040513d601f19601f820116820180604052508101906101a1919061089f565b8110156102295760405162461bcd60e51b815260206004820152604a60248201527f796f75206861766520696e73756666696369656e7420746f6b656e7320746f2060448201527f61647665727469736520666f72207468652073706563696669656420616d6f756064820152696e74206f66206461797360b01b608482015260a40161011b565b6002546040516323b872dd60e01b8152336004820152306024820152604481018390526001600160a01b03909116906323b872dd906064016020604051808303816000875af1158015610280573d6000803e3d6000fd5b505050506040513d601f19601f820116820180604052508101906102a49190610843565b5060006102b48562015180610882565b6102be90426108b8565b6001546040516347874d7760e11b81529192506001600160a01b031690638f0e9aee906102f59033908b908b908790600401610911565b6020604051808303816000875af1158015610314573d6000803e3d6000fd5b505050506040513d601f19601f82011682018060405250810190610338919061089f565b979650505050505050565b6005544210156103a35760405162461bcd60e51b815260206004820152602560248201527f6e657874207061796f75742074696d6520686173206e6f74206265656e2072656044820152641858da195960da1b606482015260840161011b565b6103b04262278d006108b8565b6005819055506060806000600160009054906101000a90046001600160a01b03166001600160a01b031663243d35976040518163ffffffff1660e01b8152600401600060405180830381865afa15801561040e573d6000803e3d6000fd5b505050506040513d6000823e601f3d908101601f1916820160405261043691908101906109e8565b60015460408051634e2a790f60e01b815290519497509295509093506001600160a01b031691634e2a790f9160048082019260009290919082900301818387803b15801561048357600080fd5b505af1158015610497573d6000803e3d6000fd5b50506002546040516370a0823160e01b8152306004820152600093506001600160a01b0390911691506370a0823190602401602060405180830381865afa1580156104e6573d6000803e3d6000fd5b505050506040513d601f19601f8201168201806040525081019061050a919061089f565b9050600060646006548361051e9190610882565b6105289190610ac3565b905060005b855181101561062d57600086828151811061054a5761054a610ae5565b60200260200101519050600260009054906101000a90046001600160a01b03166001600160a01b031663a9059cbb828789868151811061058c5761058c610ae5565b60200260200101518761059f9190610882565b6105a99190610ac3565b6040516001600160e01b031960e085901b1681526001600160a01b03909216600483015260248201526044016020604051808303816000875af11580156105f4573d6000803e3d6000fd5b505050506040513d601f19601f820116820180604052508101906106189190610843565b5050808061062590610afb565b91505061052d565b506002546040516370a0823160e01b81523060048201526000916001600160a01b0316906370a0823190602401602060405180830381865afa158015610677573d6000803e3d6000fd5b505050506040513d601f19601f8201168201806040525081019061069b919061089f565b60025460005460405163a9059cbb60e01b81526001600160a01b03918216600482015260248101849052929350169063a9059cbb906044016020604051808303816000875af11580156106f2573d6000803e3d6000fd5b505050506040513d601f19601f820116820180604052508101906107169190610843565b50505050505050565b634e487b7160e01b600052604160045260246000fd5b604051601f8201601f1916810167ffffffffffffffff8111828210171561075e5761075e61071f565b604052919050565b600082601f83011261077757600080fd5b813567ffffffffffffffff8111156107915761079161071f565b6107a4601f8201601f1916602001610735565b8181528460208386010111156107b957600080fd5b816020850160208301376000918101602001919091529392505050565b6000806000606084860312156107eb57600080fd5b833567ffffffffffffffff8082111561080357600080fd5b61080f87838801610766565b9450602086013591508082111561082557600080fd5b5061083286828701610766565b925050604084013590509250925092565b60006020828403121561085557600080fd5b8151801515811461086557600080fd5b9392505050565b634e487b7160e01b600052601160045260246000fd5b80820281158282048414176108995761089961086c565b92915050565b6000602082840312156108b157600080fd5b5051919050565b808201808211156108995761089961086c565b6000815180845260005b818110156108f1576020818501810151868301820152016108d5565b506000602082860101526020601f19601f83011685010191505092915050565b6001600160a01b0385168152608060208201819052600090610935908301866108cb565b828103604084015261094781866108cb565b91505082606083015295945050505050565b600067ffffffffffffffff8211156109735761097361071f565b5060051b60200190565b600082601f83011261098e57600080fd5b815160206109a361099e83610959565b610735565b82815260059290921b840181019181810190868411156109c257600080fd5b8286015b848110156109dd57805183529183019183016109c6565b509695505050505050565b6000806000606084860312156109fd57600080fd5b835167ffffffffffffffff80821115610a1557600080fd5b818601915086601f830112610a2957600080fd5b81516020610a3961099e83610959565b82815260059290921b8401810191818101908a841115610a5857600080fd5b948201945b83861015610a8c5785516001600160a01b0381168114610a7d5760008081fd5b82529482019490820190610a5d565b91890151919750909350505080821115610aa557600080fd5b50610ab28682870161097d565b925050604084015190509250925092565b600082610ae057634e487b7160e01b600052601260045260246000fd5b500490565b634e487b7160e01b600052603260045260246000fd5b600060018201610b0d57610b0d61086c565b506001019056fea264697066735822122038052f1441b63d0bfdb073e746b905a6606a5d970a107f18cd546894b533b76e64736f6c63430008130033",
  "immutableReferences": {},
  "source": "pragma solidity ^0.8.0;\n\nimport \"./Post.sol\";\nimport \"./Token.sol\";\nimport \"./User.sol\";\n\ncontract AdsMarket {\n\taddress owner;\n\tPost postContract;\n\tToken tokenContract;\n\tUser userContract;\n\tuint256 ADVERTISING_COST_PER_DAY = 1000; // in tokens\n\tuint256 nextPayout; // time of next payout\n\tuint256 DISTRIBUTE_PERCENTAGE = 90; // percentage of the total ad revenue generated to distribute back to creators\n\n\tconstructor(Post _postContract, Token _tokenContract, User _userContract) {\n\t\towner = msg.sender;\n\t\tpostContract = _postContract;\n\t\ttokenContract = _tokenContract;\n\t\tuserContract = _userContract;\n\t\tnextPayout = block.timestamp + 30 days; // set next payout to 1 month\n\t}\n\n\tmodifier canPayout() {\n\t\trequire(block.timestamp >= nextPayout, \"next payout time has not been reached\");\n\t\tnextPayout = block.timestamp + 30 days; // set next payout to 1 month later\n\t\t_;\n\t}\n\n\tmodifier userExists(address user) {\n\t\trequire(userContract.exists(user), \"user does not exist\");\n\t\t_;\n\t}\n\t\n\t// creates an ad with the specified arguments. this function assumes the user has approved the `tokensRequired` amount of tokens to transfer to this contract.\n\t// returns id of ad post created.\n\tfunction createAd(string memory caption, string memory ipfsCID, uint daysToAdvertise) public userExists(msg.sender) returns (uint) {\n\t\tuint tokensRequired = daysToAdvertise * ADVERTISING_COST_PER_DAY;\n\t\trequire(tokensRequired >= tokenContract.balanceOf(msg.sender), \"you have insufficient tokens to advertise for the specified amount of days\");\n\t\ttokenContract.transferFrom(msg.sender, address(this), tokensRequired);\n\n\t\tuint endTime = block.timestamp + daysToAdvertise * 1 days;\n\t\treturn postContract.createAd(msg.sender, caption, ipfsCID, endTime);\n\t}\n\n\t// triggers the payout mechanism of ad revenue. This can only be triggered once every month (enforced by canPayout).\n\t// totalAdRevenue = balance of this contract.\n\t// we distribute 90% of the ad revenue back to the creators, and the other 10% is sent to the contract owner.\n\t// the distribution of the ad revenue is porportional to the amount of views creators accumlated for the current monthly period.\n\tfunction payout() public canPayout {\n\t\taddress[] memory payees;\n\t\tuint[] memory payoutPortion;\n\t\tuint totalPortions;\n\t\t(payees, payoutPortion, totalPortions) = postContract.getAdRevenueDistribution();\n\t\tpostContract.resetMonthlyViewCounts();\n\n\t\tuint totalAdRevenue = tokenContract.balanceOf(address(this));\n\t\tuint distributeAmt = totalAdRevenue * DISTRIBUTE_PERCENTAGE / 100;\n\n\t\tfor (uint i = 0; i < payees.length ; i++) {\n\t\t\taddress payee = payees[i];\n\t\t\ttokenContract.transfer(payee, distributeAmt * payoutPortion[i] / totalPortions);\n\t\t}\n\n\t\tuint commissionAmt = tokenContract.balanceOf(address(this));\n\t\ttokenContract.transfer(owner, commissionAmt);\n\t}\n}",
  "sourcePath": "/Users/cy/git/sch/is4302/DefiSocialMedia/contracts/AdsMarket.sol",
  "compiler": {
    "name": "solc",
    "version": "0.8.19+commit.7dd6d404.Emscripten.clang"
  },
  "schemaVersion": "3.4.11",
  "updatedAt": "2023-03-22T15:24:13.348Z",
  "networkType": "ethereum",
  "devdoc": {
    "kind": "dev",
    "methods": {},
    "version": 1
  },
  "userdoc": {
    "kind": "user",
    "methods": {},
    "version": 1
  }
}