{
  "contractName": "ContentModeration",
  "abi": [
    {
      "inputs": [
        {
          "internalType": "contract RNG",
          "name": "_rngContract",
          "type": "address"
        },
        {
          "internalType": "contract Post",
          "name": "_postContract",
          "type": "address"
        },
        {
          "internalType": "contract Token",
          "name": "_tokenContract",
          "type": "address"
        },
        {
          "internalType": "contract User",
          "name": "_userContract",
          "type": "address"
        }
      ],
      "stateMutability": "nonpayable",
      "type": "constructor"
    },
    {
      "inputs": [
        {
          "internalType": "uint256",
          "name": "postId",
          "type": "uint256"
        },
        {
          "internalType": "string",
          "name": "reason",
          "type": "string"
        }
      ],
      "name": "openDispute",
      "outputs": [],
      "stateMutability": "nonpayable",
      "type": "function"
    },
    {
      "inputs": [],
      "name": "getNewRandomDispute",
      "outputs": [
        {
          "internalType": "uint256",
          "name": "",
          "type": "uint256"
        }
      ],
      "stateMutability": "nonpayable",
      "type": "function"
    },
    {
      "inputs": [],
      "name": "getCurrentDisputeId",
      "outputs": [
        {
          "internalType": "uint256",
          "name": "",
          "type": "uint256"
        }
      ],
      "stateMutability": "view",
      "type": "function",
      "constant": true
    },
    {
      "inputs": [
        {
          "internalType": "address",
          "name": "user",
          "type": "address"
        }
      ],
      "name": "getCurrentDisputeIdOfUser",
      "outputs": [
        {
          "internalType": "uint256",
          "name": "",
          "type": "uint256"
        }
      ],
      "stateMutability": "view",
      "type": "function",
      "constant": true
    },
    {
      "inputs": [
        {
          "internalType": "uint256",
          "name": "disputeId",
          "type": "uint256"
        }
      ],
      "name": "getPostId",
      "outputs": [
        {
          "internalType": "uint256",
          "name": "",
          "type": "uint256"
        }
      ],
      "stateMutability": "view",
      "type": "function",
      "constant": true
    },
    {
      "inputs": [
        {
          "internalType": "uint256",
          "name": "disputeId",
          "type": "uint256"
        }
      ],
      "name": "getReason",
      "outputs": [
        {
          "internalType": "string",
          "name": "",
          "type": "string"
        }
      ],
      "stateMutability": "view",
      "type": "function",
      "constant": true
    },
    {
      "inputs": [
        {
          "internalType": "uint256",
          "name": "disputeId",
          "type": "uint256"
        },
        {
          "internalType": "bool",
          "name": "approve",
          "type": "bool"
        }
      ],
      "name": "vote",
      "outputs": [],
      "stateMutability": "nonpayable",
      "type": "function"
    },
    {
      "inputs": [
        {
          "internalType": "uint256",
          "name": "disputeId",
          "type": "uint256"
        }
      ],
      "name": "endDispute",
      "outputs": [],
      "stateMutability": "nonpayable",
      "type": "function"
    }
  ],
  "bytecode": "0x6080604052600a6000556103e860015560646002556201518060035560016004556000600d556000600e556005600f553480156200003c57600080fd5b50604051620022ee380380620022ee8339810160408190526200005f91620000cc565b600980546001600160a01b039586166001600160a01b031991821617909155600a805494861694821694909417909355600b805492851692841692909217909155600c805491909316911617905562000134565b6001600160a01b0381168114620000c957600080fd5b50565b60008060008060808587031215620000e357600080fd5b8451620000f081620000b3565b60208601519094506200010381620000b3565b60408601519093506200011681620000b3565b60608601519092506200012981620000b3565b939692955090935050565b6121aa80620001446000396000f3fe608060405234801561001057600080fd5b50600436106100885760003560e01c8063aa52b02d1161005b578063aa52b02d146100e3578063b7928b4f146100f6578063bcd82f2414610116578063c9d27afe1461011e57600080fd5b8063338a62291461008d57806336f691c4146100a85780635187b7a0146100bd578063888b3677146100d0575b600080fd5b610095610131565b6040519081526020015b60405180910390f35b6100bb6100b6366004611d63565b6105c2565b005b6100bb6100cb366004611e1e565b610a53565b6100956100de366004611e4c565b6116d5565b6100956100f1366004611e1e565b6117ef565b610109610104366004611e1e565b611857565b60405161009f9190611e70565b61009561194e565b6100bb61012c366004611ecc565b611a8b565b600c54604051637b51e92760e11b8152336004820181905260009290916001600160a01b039091169063f6a3d24e90602401602060405180830381865afa158015610180573d6000803e3d6000fd5b505050506040513d601f19601f820116820180604052508101906101a49190611efc565b6101eb5760405162461bcd60e51b81526020600482015260136024820152721d5cd95c88191bd95cc81b9bdd08195e1a5cdd606a1b60448201526064015b60405180910390fd5b600554336000908152600860205260409020541561028a5760405162461bcd60e51b815260206004820152605060248201527f796f75206861766520616e206f70656e20646973707574652c2074686572656660448201527f6f726520796f752063616e6e6f7420766f746520756e74696c20796f7572206460648201526f1a5cdc1d5d19481a5cc818db1bdcd95960821b608482015260a4016101e2565b33600090815260076020526040902054156103275760405162461bcd60e51b815260206004820152605160248201527f796f75206861766520616c726561647920766f74656420666f7220612064697360448201527f707574652e20796f752063616e206f6e6c7920766f746520666f72206f6e65206064820152706469737075746520617420612074696d6560781b608482015260a4016101e2565b600081116103825760405162461bcd60e51b815260206004820152602260248201527f6e6f2061637469766520646973707574657320746f20766f746520666f72206e6044820152616f7760f01b60648201526084016101e2565b600254600b546040516370a0823160e01b81523360048201526001600160a01b03909116906370a0823190602401602060405180830381865afa1580156103cd573d6000803e3d6000fd5b505050506040513d601f19601f820116820180604052508101906103f19190611f19565b101561044d5760405162461bcd60e51b815260206004820152602560248201527f796f7520646f206e6f74206861766520656e6f75676820746f6b656e7320746f60448201526420766f746560d81b60648201526084016101e2565b600b546002546040516323b872dd60e01b815233600482015230602482015260448101919091526001600160a01b03909116906323b872dd906064016020604051808303816000875af11580156104a8573d6000803e3d6000fd5b505050506040513d601f19601f820116820180604052508101906104cc9190611efc565b50600081600960009054906101000a90046001600160a01b03166001600160a01b0316635ec01e4d6040518163ffffffff1660e01b81526004016020604051808303816000875af1158015610525573d6000803e3d6000fd5b505050506040513d601f19601f820116820180604052508101906105499190611f19565b6105539190611f48565b905060006005828154811061056a5761056a611f5c565b60009182526020808320909101543380845260078352604080852083905582855260068452842060080180546001810182559085529290932090910180546001600160a01b03191690921790915594505050505b5090565b600a5460405163620d1b0560e11b81526004810184905233916001600160a01b03169063c41a360a90602401602060405180830381865afa15801561060b573d6000803e3d6000fd5b505050506040513d601f19601f8201168201806040525081019061062f9190611f72565b6001600160a01b0316146106985760405162461bcd60e51b815260206004820152602a60248201527f6f6e6c79206f776e6572206f66207468697320706f73742063616e206f70656e6044820152692061206469737075746560b01b60648201526084016101e2565b600a5460405163950d8ba160e01b8152600481018490526001600160a01b039091169063950d8ba190602401602060405180830381865afa1580156106e1573d6000803e3d6000fd5b505050506040513d601f19601f820116820180604052508101906107059190611efc565b6107655760405162461bcd60e51b815260206004820152602b60248201527f7468697320706f7374206973206e6f7420666c61676765642c2063616e74206f60448201526a70656e206469737075746560a81b60648201526084016101e2565b600154600b546040516370a0823160e01b81523360048201526001600160a01b03909116906370a0823190602401602060405180830381865afa1580156107b0573d6000803e3d6000fd5b505050506040513d601f19601f820116820180604052508101906107d49190611f19565b101561083b5760405162461bcd60e51b815260206004820152603060248201527f796f7520646f206e6f74206861766520656e6f7567682062616c616e6365207460448201526f6f206f70656e2061206469737075746560801b60648201526084016101e2565b336000908152600860205260408120905b815481101561090857600082828154811061086957610869611f5c565b90600052602060002001549050846006600083815260200190815260200160002060020154036108f55760405162461bcd60e51b815260206004820152603160248201527f746865726520697320616c726561647920616e206f6e676f696e6720646973706044820152701d5d1948199bdc881d1a1a5cc81c1bdcdd607a1b60648201526084016101e2565b508061090081611fa5565b91505061084c565b50600b546001546040516323b872dd60e01b815233600482015230602482015260448101919091526001600160a01b03909116906323b872dd906064016020604051808303816000875af1158015610964573d6000803e3d6000fd5b505050506040513d601f19601f820116820180604052508101906109889190611efc565b506004546000818152600660205260409020908155600281018490556001810180546001600160a01b03191633179055600381016109c68482612047565b5060015460048201556003546109dc9042612107565b6005808301919091558154815460018101835560009283527f036b6384b5eca791c62761152d0c79bb0604c104a5fb6f4eb0703f3154bb3db001556004805491610a2583611fa5565b9091555050336000908152600860209081526040822092548354600181018555938352912090910155505050565b600081815260066020526040902080548214610aaa5760405162461bcd60e51b8152602060048201526016602482015275191a5cdc1d5d1948191bd95cc81b9bdd08195e1a5cdd60521b60448201526064016101e2565b4281600501541115610b1a5760405162461bcd60e51b815260206004820152603360248201527f746865206d696e696d756d20656e6474696d65206f66207468652064697370756044820152721d19481a185cc81b9bdd081899595b881b595d606a1b60648201526084016101e2565b600681015460078201546000610b308284612107565b6005546000549192509082111580610b4757508284145b15610e605760005b84811015610c24576000866006018281548110610b6e57610b6e611f5c565b600091825260209091200154600b5460025460405163a9059cbb60e01b81526001600160a01b0393841660048201819052602482019290925290935091169063a9059cbb906044016020604051808303816000875af1158015610bd5573d6000803e3d6000fd5b505050506040513d601f19601f82011682018060405250810190610bf99190611efc565b506001600160a01b031660009081526007602052604081205580610c1c81611fa5565b915050610b4f565b5060005b83811015610cfd576000866007018281548110610c4757610c47611f5c565b600091825260209091200154600b5460025460405163a9059cbb60e01b81526001600160a01b0393841660048201819052602482019290925290935091169063a9059cbb906044016020604051808303816000875af1158015610cae573d6000803e3d6000fd5b505050506040513d601f19601f82011682018060405250810190610cd29190611efc565b506001600160a01b031660009081526007602052604081205580610cf581611fa5565b915050610c28565b5060005b6008860154811015610dda576000866008018281548110610d2457610d24611f5c565b600091825260209091200154600b5460025460405163a9059cbb60e01b81526001600160a01b0393841660048201819052602482019290925290935091169063a9059cbb906044016020604051808303816000875af1158015610d8b573d6000803e3d6000fd5b505050506040513d601f19601f82011682018060405250810190610daf9190611efc565b506001600160a01b031660009081526007602052604081205580610dd281611fa5565b915050610d01565b50600b54600186810154905460405163a9059cbb60e01b81526001600160a01b039283166004820152602481019190915291169063a9059cbb906044016020604051808303816000875af1158015610e36573d6000803e3d6000fd5b505050506040513d601f19601f82011682018060405250810190610e5a9190611efc565b506114c1565b828411156111fb57600081600d54610e789190612120565b8660090154610e879190612107565b90506000610e958683612120565b905082600d54610ea59190612120565b600d6000828254610eb69190612134565b90915550600090505b86811015610f8f576000886006018281548110610ede57610ede611f5c565b600091825260209091200154600b5460405163a9059cbb60e01b81526001600160a01b039283166004820181905260248201879052935091169063a9059cbb906044016020604051808303816000875af1158015610f40573d6000803e3d6000fd5b505050506040513d601f19601f82011682018060405250810190610f649190611efc565b506001600160a01b031660009081526007602052604081205580610f8781611fa5565b915050610ebf565b5060005b85811015610fe7576000886007018281548110610fb257610fb2611f5c565b60009182526020808320909101546001600160a01b031682526007905260408120555080610fdf81611fa5565b915050610f93565b5060005b60088801548110156110c457600088600801828154811061100e5761100e611f5c565b600091825260209091200154600b5460025460405163a9059cbb60e01b81526001600160a01b0393841660048201819052602482019290925290935091169063a9059cbb906044016020604051808303816000875af1158015611075573d6000803e3d6000fd5b505050506040513d601f19601f820116820180604052508101906110999190611efc565b506001600160a01b0316600090815260076020526040812055806110bc81611fa5565b915050610feb565b50600b54600188810154905460405163a9059cbb60e01b81526001600160a01b039283166004820152602481019190915291169063a9059cbb906044016020604051808303816000875af1158015611120573d6000803e3d6000fd5b505050506040513d601f19601f820116820180604052508101906111449190611efc565b50600a546002880154604051630ad0d70b60e21b81526001600160a01b0390921691632b435c2c9161117c9160040190815260200190565b600060405180830381600087803b15801561119657600080fd5b505af11580156111aa573d6000803e3d6000fd5b505050506000600f54600d546111c09190612120565b905080600d60008282546111d49190612134565b9250508190555080600e60008282546111ed9190612107565b909155506114c19350505050565b600081600e5461120b9190612120565b866009015461121a9190612107565b905060006112288583612120565b905082600e546112389190612120565b600e60008282546112499190612134565b9091555050600f5460048801546112609190612120565b600e60008282546112719190612107565b9091555050600f54611284906001612120565b61128f906001612134565b876004015461129e9190612147565b600d60008282546112af9190612107565b90915550600090505b8681101561130c5760008860060182815481106112d7576112d7611f5c565b60009182526020808320909101546001600160a01b03168252600790526040812055508061130481611fa5565b9150506112b8565b5060005b858110156113e057600088600701828154811061132f5761132f611f5c565b600091825260209091200154600b5460405163a9059cbb60e01b81526001600160a01b039283166004820181905260248201879052935091169063a9059cbb906044016020604051808303816000875af1158015611391573d6000803e3d6000fd5b505050506040513d601f19601f820116820180604052508101906113b59190611efc565b506001600160a01b0316600090815260076020526040812055806113d881611fa5565b915050611310565b5060005b60088801548110156114bd57600088600801828154811061140757611407611f5c565b600091825260209091200154600b5460025460405163a9059cbb60e01b81526001600160a01b0393841660048201819052602482019290925290935091169063a9059cbb906044016020604051808303816000875af115801561146e573d6000803e3d6000fd5b505050506040513d601f19601f820116820180604052508101906114929190611efc565b506001600160a01b0316600090815260076020526040812055806114b581611fa5565b9150506113e4565b5050505b60018501546001600160a01b03166000908152600860205260408120905b815481101561159357878282815481106114fb576114fb611f5c565b906000526020600020015403611581578154829061151b90600190612134565b8154811061152b5761152b611f5c565b906000526020600020015482828154811061154857611548611f5c565b9060005260206000200181905550818054806115665761156661215e565b60019003818190600052602060002001600090559055611593565b8061158b81611fa5565b9150506114df565b5060005b60055481101561164d5787600582815481106115b5576115b5611f5c565b90600052602060002001540361163b57600580546115d590600190612134565b815481106115e5576115e5611f5c565b90600052602060002001546005828154811061160357611603611f5c565b60009182526020909120015560058054806116205761162061215e565b6001900381819060005260206000200160009055905561164d565b8061164581611fa5565b915050611597565b5060008781526006602052604081208181556001810180546001600160a01b031916905560028101829055906116866003830182611ce1565b600482016000905560058201600090556006820160006116a69190611d1e565b6116b4600783016000611d1e565b6116c2600883016000611d1e565b6009820160009055505050505050505050565b600a546000906001600160a01b031633146117505760405162461bcd60e51b815260206004820152603560248201527f6f6e6c7920706f737420636f6e74726163742063616e2063616c6c20676574436044820152743ab93932b73a2234b9b83aba32a4b227b32ab9b2b960591b60648201526084016101e2565b6001600160a01b0382166000908152600760205260409020546117d35760405162461bcd60e51b815260206004820152603560248201527f746865207573657220646f6573206e6f7420686176652061206469737075746560448201527420746f20766f7465206f6e2063757272656e746c7960581b60648201526084016101e2565b506001600160a01b031660009081526007602052604090205490565b60008181526006602052604081208054831461184d5760405162461bcd60e51b815260206004820152601b60248201527f74686973206469737075746520646f6573206e6f74206578697374000000000060448201526064016101e2565b6002015492915050565b600081815260066020526040902080546060919083146118b95760405162461bcd60e51b815260206004820152601b60248201527f74686973206469737075746520646f6573206e6f74206578697374000000000060448201526064016101e2565b8060030180546118c890611fbe565b80601f01602080910402602001604051908101604052809291908181526020018280546118f490611fbe565b80156119415780601f1061191657610100808354040283529160200191611941565b820191906000526020600020905b81548152906001019060200180831161192457829003601f168201915b5050505050915050919050565b600c54604051637b51e92760e11b8152336004820181905260009290916001600160a01b039091169063f6a3d24e90602401602060405180830381865afa15801561199d573d6000803e3d6000fd5b505050506040513d601f19601f820116820180604052508101906119c19190611efc565b611a035760405162461bcd60e51b81526020600482015260136024820152721d5cd95c88191bd95cc81b9bdd08195e1a5cdd606a1b60448201526064016101e2565b33600090815260076020526040902054611a765760405162461bcd60e51b815260206004820152602e60248201527f796f7520646f206e6f7420686176652061206469737075746520746f20766f7460448201526d65206f6e2063757272656e746c7960901b60648201526084016101e2565b50503360009081526007602052604090205490565b336000818152600760205260409020548314611ae95760405162461bcd60e51b815260206004820181905260248201527f796f752063616e6e6f7420766f746520666f722074686973206469737075746560448201526064016101e2565b600083815260066020526040812090805b6008830154811015611c0c57836001600160a01b0316836008018281548110611b2557611b25611f5c565b6000918252602090912001546001600160a01b031603611bfa5760088301805460019350611b54908490612134565b81548110611b6457611b64611f5c565b6000918252602090912001546008840180546001600160a01b039092169183908110611b9257611b92611f5c565b9060005260206000200160006101000a8154816001600160a01b0302191690836001600160a01b0316021790555082600801805480611bd357611bd361215e565b600082815260209020810160001990810180546001600160a01b0319169055019055611c0c565b80611c0481611fa5565b915050611afa565b5080611c535760405162461bcd60e51b81526020600482015260166024820152751e5bdd481a185d9948185b1c9958591e481d9bdd195960521b60448201526064016101e2565b8315611c8e57600682018054600181018255600091825260209091200180546001600160a01b0319166001600160a01b038516179055611cbf565b600782018054600181018255600091825260209091200180546001600160a01b0319166001600160a01b0385161790555b600254826009016000828254611cd59190612107565b90915550505050505050565b508054611ced90611fbe565b6000825580601f10611cfd575050565b601f016020900490600052602060002090810190611d1b9190611d38565b50565b5080546000825590600052602060002090810190611d1b91905b5b808211156105be5760008155600101611d39565b634e487b7160e01b600052604160045260246000fd5b60008060408385031215611d7657600080fd5b82359150602083013567ffffffffffffffff80821115611d9557600080fd5b818501915085601f830112611da957600080fd5b813581811115611dbb57611dbb611d4d565b604051601f8201601f19908116603f01168101908382118183101715611de357611de3611d4d565b81604052828152886020848701011115611dfc57600080fd5b8260208601602083013760006020848301015280955050505050509250929050565b600060208284031215611e3057600080fd5b5035919050565b6001600160a01b0381168114611d1b57600080fd5b600060208284031215611e5e57600080fd5b8135611e6981611e37565b9392505050565b600060208083528351808285015260005b81811015611e9d57858101830151858201604001528201611e81565b506000604082860101526040601f19601f8301168501019250505092915050565b8015158114611d1b57600080fd5b60008060408385031215611edf57600080fd5b823591506020830135611ef181611ebe565b809150509250929050565b600060208284031215611f0e57600080fd5b8151611e6981611ebe565b600060208284031215611f2b57600080fd5b5051919050565b634e487b7160e01b600052601260045260246000fd5b600082611f5757611f57611f32565b500690565b634e487b7160e01b600052603260045260246000fd5b600060208284031215611f8457600080fd5b8151611e6981611e37565b634e487b7160e01b600052601160045260246000fd5b600060018201611fb757611fb7611f8f565b5060010190565b600181811c90821680611fd257607f821691505b602082108103611ff257634e487b7160e01b600052602260045260246000fd5b50919050565b601f82111561204257600081815260208120601f850160051c8101602086101561201f5750805b601f850160051c820191505b8181101561203e5782815560010161202b565b5050505b505050565b815167ffffffffffffffff81111561206157612061611d4d565b6120758161206f8454611fbe565b84611ff8565b602080601f8311600181146120aa57600084156120925750858301515b600019600386901b1c1916600185901b17855561203e565b600085815260208120601f198616915b828110156120d9578886015182559484019460019091019084016120ba565b50858210156120f75787850151600019600388901b60f8161c191681555b5050505050600190811b01905550565b8082018082111561211a5761211a611f8f565b92915050565b60008261212f5761212f611f32565b500490565b8181038181111561211a5761211a611f8f565b808202811582820484141761211a5761211a611f8f565b634e487b7160e01b600052603160045260246000fdfea264697066735822122062baf5f526a451ba12f6eed48e63ffb00187f010d145222f6f40aa25c9d791a964736f6c63430008130033",
  "immutableReferences": {},
  "source": "pragma solidity ^0.8.0;\n\nimport \"./RNG.sol\";\nimport \"./Post.sol\";\nimport \"./Token.sol\";\nimport \"./User.sol\";\n\ncontract ContentModeration {\n\tstruct Dispute {\n\t\t// dispute id\n\t\tuint id;\n\t\t// owner of this dispute (same as post's owner)\n\t\taddress owner;\n\t\t// post id\n\t\tuint postId;\n\t\t// reason for dispute\n\t\tstring reason;\n\t\t// locked tokens by creator to open this dispute\n\t\tuint lockedTokens;\n\t\t// minimum endtime of this dispute. dispute cannot be closed before `endtime`.\n\t\tuint endtime;\n\t\t// approve vote count\n\t\taddress[] approvers;\n\t\t// reject vote count\n\t\taddress[] rejectors;\n\t\t// voters who havent vote\n\t\taddress[] haventVote;\n\t\t// total amount in voter reward pool;\n\t\tuint voterRewardPool;\n\t}\n\n\t// minimum vote count to decide if a vote result can be used. a vote with a small vote count can have inaccurate results.\n\tuint MIN_VOTE_COUNT = 10;\n\t// amount that users have to lock to open a dispute. returned only if post was truly wrongly flagged.\n\tuint OPEN_DISPUTE_LOCKED_AMT = 1000; \n\t// amount that users have to lock to vote. if voters of the majority votes will get rewarded.\n\tuint VOTE_LOCKED_AMT = 100;\n\t// minimum duration that a dispute must be open. this is to try to increase the number of votes to get more accurate results.\n\tuint MIN_DISPUTE_PERIOD = 1 days;\n\t// the next dispute id to assign.\n\tuint nextDisputeId = 1;\n\t// list of dispute ids (currently active disputes)\n\tuint256[] activeDisputes;\n\t// map of id to dispute struct\n\tmapping(uint => Dispute) idToDispute;\n\t// map of user/voter to their current dispute's id. if value is 0, then it means that the user is not voting for any dispute.\n\tmapping(address => uint) voterToDisputeId;\n\t// map of user to the count of currently active disputes opened by the user\n\tmapping(address => uint[]) usersToActiveDisputes;\n\tRNG rngContract;\n\tPost postContract;\n\tToken tokenContract;\n\tUser userContract;\n\t// the reward pool of this contract comes from the locked tokens of disputes that were rejected\n\tuint rewardPoolForApprove = 0;\n\tuint rewardPoolForReject = 0;\n\t// fraction of how much to redistribute the rewards pool between approve and reject upon ending a dispute\n\tuint REDISTRIBUTE_REWARDS_FRACTION = 5;\n\n\tconstructor(RNG _rngContract, Post _postContract, Token _tokenContract, User _userContract) {\n\t\trngContract = _rngContract;\n\t\tpostContract = _postContract;\n\t\ttokenContract = _tokenContract;\n\t\tuserContract = _userContract;\n\t}\n\n\tmodifier userExists(address user) {\n\t\trequire(userContract.exists(user), \"user does not exist\");\n\t\t_;\n\t}\n\n\t// for creator whose posts has been flagged due to reportCount exceeding MAX_REPORT_COUNT,\n\t// the creator can open a dispute here. it requires the creartor to lock OPEN_DISPUTE_LOCKED_AMT amount of tokens to open a dispute.\n\t// the dispute can only be closed after the MIN_DISPUTE_PERIOD. this is to allow for more voters to vote on this dispute to get a more accurate result.\n\t// a disputer cannot have an open dispute and vote at the same time.\n\tfunction openDispute(uint postId, string memory reason) public {\n\t\trequire(postContract.getOwner(postId) == msg.sender, \"only owner of this post can open a dispute\");\n\t\trequire(postContract.getFlaggedStatus(postId), \"this post is not flagged, cant open dispute\");\n\t\trequire(tokenContract.balanceOf(msg.sender) >= OPEN_DISPUTE_LOCKED_AMT, \"you do not have enough balance to open a dispute\");\n\t\tuint[] storage disputes = usersToActiveDisputes[msg.sender];\n\t\tfor (uint i = 0; i < disputes.length; i++) {\n\t\t\tuint disputeId = disputes[i];\n\t\t\trequire(idToDispute[disputeId].postId != postId, \"there is already an ongoing dispute for this post\");\n\t\t}\n\n\t\t// get locked tokens from disputer\n\t\ttokenContract.transferFrom(msg.sender, address(this), OPEN_DISPUTE_LOCKED_AMT);\n\n\t\tDispute storage dispute = idToDispute[nextDisputeId];\n\t\tdispute.id = nextDisputeId;\n\t\tdispute.postId = postId;\n\t\tdispute.owner = msg.sender;\n\t\tdispute.reason = reason;\n\t\tdispute.lockedTokens = OPEN_DISPUTE_LOCKED_AMT;\n\t\tdispute.endtime = block.timestamp + MIN_DISPUTE_PERIOD;\n\n\t\t// add to list of activeDisputes\n\t\tactiveDisputes.push(dispute.id);\n\t\t// update nextDisputeId\n\t\tnextDisputeId++;\n\t\t// update the active disptue counts of this user\n\t\tusersToActiveDisputes[msg.sender].push(dispute.id);\n\t}\n\n\t// users can request for a random dispute to vote for . VOTE_LOCKED_AMT amount of tokens will be transferred from the voter to be locked in this dispute. \n\t// a user can only vote for one dispute at any point of time.\n\t// this function returns a random disputeID to vote for.\n\tfunction getNewRandomDispute() public userExists(msg.sender) returns (uint) {\n\t\tuint n = activeDisputes.length;\n\t\t// prevent disputers from voting on their own dispute\n\t\trequire(usersToActiveDisputes[msg.sender].length == 0, \"you have an open dispute, therefore you cannot vote until your dispute is closed\");\n\n\t\trequire(voterToDisputeId[msg.sender] == 0, \"you have already voted for a dispute. you can only vote for one dispute at a time\");\n\t\trequire(n > 0, \"no active disputes to vote for now\");\n\t\trequire(tokenContract.balanceOf(msg.sender) >= VOTE_LOCKED_AMT, \"you do not have enough tokens to vote\");\n\n\t\t// get locked tokens from voter\n\t\ttokenContract.transferFrom(msg.sender, address(this), VOTE_LOCKED_AMT);\n\t\t// get random index from 0..n-1 to pick from the list of activeDisputes\n\t\tuint randIdx = rngContract.random() % n;\n\t\t// get dispute id that is randomly picked\n\t\tuint disputeId = activeDisputes[randIdx];\n\t\t// keep track of which dispute id this voter is voting for\n\t\tvoterToDisputeId[msg.sender] = disputeId;\n\t\t// add voter to list of voters who havent vote\n\t\tidToDispute[disputeId].haventVote.push(msg.sender);\n\t\treturn disputeId;\n\t}\n\n\t// voters can double check which dispute id they are voting for \n\tfunction getCurrentDisputeId() public view userExists(msg.sender) returns (uint) {\n\t\trequire(voterToDisputeId[msg.sender] > 0, \"you do not have a dispute to vote on currently\");\n\t\treturn voterToDisputeId[msg.sender];\n\t}\n\n\t// for post contract to check the dispute that the `user` is voting for\n\tfunction getCurrentDisputeIdOfUser(address user) public view returns (uint) {\n\t\trequire(msg.sender == address(postContract), \"only post contract can call getCurrentDisputeIdOfUser\");\n\t\trequire(voterToDisputeId[user] > 0, \"the user does not have a dispute to vote on currently\");\n\t\treturn voterToDisputeId[user];\n\t}\n\n\tfunction getPostId(uint disputeId) public view returns (uint) {\n\t\tDispute storage dispute = idToDispute[disputeId];\n\t\trequire(dispute.id == disputeId, \"this dispute does not exist\");\n\t\treturn dispute.postId;\n\t}\n\n\tfunction getReason(uint disputeId) public view returns (string memory) {\n\t\tDispute storage dispute = idToDispute[disputeId];\n\t\trequire(dispute.id == disputeId, \"this dispute does not exist\");\n\t\treturn dispute.reason;\n\t}\n\n\t// the user can cast a vote on the dispute specified by `disputeId`.\n\t// the user can vote whether he approves or rejects the dispute.\n\tfunction vote(uint disputeId, bool approve) public {\n\t\taddress voter = msg.sender;\n\t\trequire(voterToDisputeId[voter] == disputeId, \"you cannot vote for this dispute\");\n\t\t\n\t\tDispute storage dispute = idToDispute[disputeId];\n\t\tbool found = false;\n\t\t// remove from haventVote list\n\t\tfor (uint i = 0; i < dispute.haventVote.length; i++) {\n\t\t\tif (dispute.haventVote[i] == voter) {\n\t\t\t\tfound = true;\n\t\t\t\tdispute.haventVote[i] = dispute.haventVote[dispute.haventVote.length - 1];\n\t\t\t\tdispute.haventVote.pop();\n\t\t\t\tbreak;\n\t\t\t}\n\t\t}\n\t\t// if we cannot find the voter in the haventvote list, it means that the voter has already voted.\n\t\trequire(found, \"you have already voted\");\n\n\t\tif (approve) {\n\t\t\tdispute.approvers.push(voter);\n\t\t} else {\n\t\t\tdispute.rejectors.push(voter);\n\t\t}\n\n\t\t// update voter reward pool for this dispute\n\t\tdispute.voterRewardPool += VOTE_LOCKED_AMT;\n\t}\n\n\t// anyone can end the dispute, as long as it the endtime of the dispute has passed.\n\tfunction endDispute(uint disputeId) public {\n\t\tDispute storage dispute = idToDispute[disputeId];\n\t\trequire(dispute.id == disputeId, \"dispute does not exist\"); // if dispute does not exist, dispute.id will be 0 (default value of non-existent key mapping)\n\t\trequire(dispute.endtime <= block.timestamp, \"the minimum endtime of the dispute has not been met\");\n\t\t\n\t\t// if we do not hit the minimum amount of voters, then we take it as the results of the dispute is not accurate, \n\t\t// and therefore all parties are refunded their locked tokens. The dispute is deleted, but the post remains flagged.\n\t\t// the same applies for the case where the result is a tie.\n\t\tuint numApprovers = dispute.approvers.length;\n\t\tuint numRejectors =  dispute.rejectors.length;\n\t\tuint numVoters = numApprovers + numRejectors;\n\t\tuint n = activeDisputes.length;\n\n\t\tif (numVoters <= MIN_VOTE_COUNT || numApprovers == numRejectors) {\n\t\t\t// tie/did not hit min vote count\n\t\t\t// return all parties their locked tokens\n\t\t\tfor(uint i = 0; i < numApprovers; i++) {\n\t\t\t\taddress voter = dispute.approvers[i];\n\t\t\t\ttokenContract.transfer(voter, VOTE_LOCKED_AMT);\n\t\t\t\tdelete voterToDisputeId[voter];\n\t\t\t}\n\t\t\tfor(uint i = 0; i < numRejectors; i++) {\n\t\t\t\taddress voter = dispute.rejectors[i];\n\t\t\t\ttokenContract.transfer(voter, VOTE_LOCKED_AMT);\n\t\t\t\tdelete voterToDisputeId[voter];\n\t\t\t}\n\t\t\tfor(uint i = 0; i < dispute.haventVote.length; i++) {\n\t\t\t\taddress voter = dispute.haventVote[i];\n\t\t\t\ttokenContract.transfer(voter, VOTE_LOCKED_AMT);\n\t\t\t\tdelete voterToDisputeId[voter];\n\t\t\t}\n\t\t\ttokenContract.transfer(dispute.owner, OPEN_DISPUTE_LOCKED_AMT);\n\t\t} else if (numApprovers > numRejectors) {\n\t\t\t// approve to unflag this post.\n\t\t\t// 1. creator gets back his locked tokens. post gets unflagged.\n\t\t\t// 2. the total reward pool (dispute.voterRewardPool + 1/n of contract's rewardPoolForApprove) is distributed amongst the approvers\n\t\t\t// n = no. of activeDisputes\n\t\t\tuint totalRewardPool = dispute.voterRewardPool + rewardPoolForApprove / n;\n\t\t\tuint rewardPerVoter = totalRewardPool / numApprovers;\n\t\t\trewardPoolForApprove -= rewardPoolForApprove / n;\n\t\t\t// distribute the rewards to the approvers\n\t\t\tfor(uint i = 0; i < numApprovers; i++) {\n\t\t\t\taddress voter = dispute.approvers[i];\n\t\t\t\ttokenContract.transfer(voter, rewardPerVoter);\n\t\t\t\tdelete voterToDisputeId[voter];\n\t\t\t}\n\t\t\t// reset voter's dispute mapping\n\t\t\tfor(uint i = 0; i < numRejectors; i++) {\n\t\t\t\taddress voter = dispute.rejectors[i];\n\t\t\t\tdelete voterToDisputeId[voter];\n\t\t\t}\n\t\t\t// return the locked tokens to those who havent vote\n\t\t\tfor(uint i = 0; i < dispute.haventVote.length; i++) {\n\t\t\t\taddress voter = dispute.haventVote[i];\n\t\t\t\ttokenContract.transfer(voter, VOTE_LOCKED_AMT);\n\t\t\t\tdelete voterToDisputeId[voter];\n\t\t\t}\n\t\t\t// return the creator his locked tokens & unflag his post\n\t\t\ttokenContract.transfer(dispute.owner, OPEN_DISPUTE_LOCKED_AMT);\n\t\t\tpostContract.resetFlagAndReportCount(dispute.postId);\n\n\t\t\t// redistribute rewards to the other pool, to deincentivze users from blindly repeatedly voting this option\n\t\t\tuint redistributeAmt = rewardPoolForApprove / REDISTRIBUTE_REWARDS_FRACTION;\n\t\t\trewardPoolForApprove -= redistributeAmt;\n\t\t\trewardPoolForReject += redistributeAmt;\n\t\t} else { // numRejectors > numApprovers\n\t\t\t// reject to unflag this post.\n\t\t\t// 1. creator's locked tokens are not returned and are distrubuted between the two reward pools.\n\t\t\t// 2. the total reward pool (dispute.voterRewardPool + 1/n of contract's rewardPoolForReject) is distributed amongst the rejectors\n\t\t\t// n = no. of activeDisputes\n\t\t\tuint totalRewardPool = dispute.voterRewardPool + rewardPoolForReject / n;\n\t\t\tuint rewardPerVoter = totalRewardPool / numRejectors;\n\t\t\trewardPoolForReject -= rewardPoolForReject / n;\n\n\t\t\t// transfer more rewards to the approve's reward pool, to deincentivze users from blindly repeatedly voting this option\n\t\t\trewardPoolForReject += dispute.lockedTokens / REDISTRIBUTE_REWARDS_FRACTION;\n\t\t\trewardPoolForApprove += dispute.lockedTokens * (1 - 1 / REDISTRIBUTE_REWARDS_FRACTION);\n\t\t\t// reset voter's dispute mapping\n\t\t\tfor(uint i = 0; i < numApprovers; i++) {\n\t\t\t\taddress voter = dispute.approvers[i];\n\t\t\t\tdelete voterToDisputeId[voter];\n\t\t\t}\n\t\t\t// distribute the rewards to the rejectors\n\t\t\tfor(uint i = 0; i < numRejectors; i++) {\n\t\t\t\taddress voter = dispute.rejectors[i];\n\t\t\t\ttokenContract.transfer(voter, rewardPerVoter);\n\t\t\t\tdelete voterToDisputeId[voter];\n\t\t\t}\n\t\t\t// return the locked tokens to those who havent vote\n\t\t\tfor(uint i = 0; i < dispute.haventVote.length; i++) {\n\t\t\t\taddress voter = dispute.haventVote[i];\n\t\t\t\ttokenContract.transfer(voter, VOTE_LOCKED_AMT);\n\t\t\t\tdelete voterToDisputeId[voter];\n\t\t\t}\n\t\t}\n\n\t\t// --- clean up ---\n\t\t// remove the dispute id from the list of user's active disputes\n\t\tuint[] storage userDisputes = usersToActiveDisputes[dispute.owner];\n\t\tfor (uint i = 0; i < userDisputes.length; i++) {\n\t\t\tif (userDisputes[i] == disputeId) {\n\t\t\t\tuserDisputes[i] = userDisputes[userDisputes.length - 1];\n\t\t\t\tuserDisputes.pop();\n\t\t\t\tbreak;\n\t\t\t}\n\t\t}\n\t\t// remove the dispute id from the list of overall active disptues\n\t\tfor (uint i = 0; i < activeDisputes.length; i++) {\n\t\t\tif (activeDisputes[i] == disputeId) {\n\t\t\t\tactiveDisputes[i] = activeDisputes[activeDisputes.length - 1];\n\t\t\t\tactiveDisputes.pop();\n\t\t\t\tbreak;\n\t\t\t}\n\t\t}\n\t\t// delete the dispute struct\n\t\tdelete idToDispute[disputeId];\n\t}\n}",
  "sourcePath": "/Users/cy/git/sch/is4302/DefiSocialMedia/contracts/ContentModeration.sol",
  "compiler": {
    "name": "solc",
    "version": "0.8.19+commit.7dd6d404.Emscripten.clang"
  },
  "schemaVersion": "3.4.11",
  "updatedAt": "2023-03-22T16:06:03.363Z",
  "networkType": "ethereum",
  "devdoc": {
    "kind": "dev",
    "methods": {},
    "version": 1
  },
  "userdoc": {
    "kind": "user",
    "methods": {},
    "version": 1
  }
}