{
  "contractName": "Feed",
  "abi": [
    {
      "inputs": [
        {
          "internalType": "contract Post",
          "name": "_postContract",
          "type": "address"
        }
      ],
      "stateMutability": "nonpayable",
      "type": "constructor"
    },
    {
      "inputs": [
        {
          "internalType": "uint256",
          "name": "postId",
          "type": "uint256"
        }
      ],
      "name": "addToFeed",
      "outputs": [],
      "stateMutability": "nonpayable",
      "type": "function"
    },
    {
      "inputs": [],
      "name": "startScroll",
      "outputs": [
        {
          "components": [
            {
              "internalType": "uint256",
              "name": "id",
              "type": "uint256"
            },
            {
              "internalType": "address",
              "name": "owner",
              "type": "address"
            },
            {
              "internalType": "string",
              "name": "caption",
              "type": "string"
            },
            {
              "internalType": "uint256",
              "name": "likes",
              "type": "uint256"
            },
            {
              "components": [
                {
                  "internalType": "uint256",
                  "name": "id",
                  "type": "uint256"
                },
                {
                  "internalType": "address",
                  "name": "owner",
                  "type": "address"
                },
                {
                  "internalType": "uint256",
                  "name": "timestamp",
                  "type": "uint256"
                },
                {
                  "internalType": "string",
                  "name": "text",
                  "type": "string"
                }
              ],
              "internalType": "struct Post.Comment[]",
              "name": "comments",
              "type": "tuple[]"
            },
            {
              "internalType": "uint256",
              "name": "timestamp",
              "type": "uint256"
            },
            {
              "internalType": "uint256",
              "name": "viewCount",
              "type": "uint256"
            },
            {
              "internalType": "int256",
              "name": "mediaNFTID",
              "type": "int256"
            },
            {
              "internalType": "bool",
              "name": "deleted",
              "type": "bool"
            },
            {
              "internalType": "bool",
              "name": "flagged",
              "type": "bool"
            },
            {
              "internalType": "uint256",
              "name": "reportCount",
              "type": "uint256"
            }
          ],
          "internalType": "struct Post.PostData[]",
          "name": "",
          "type": "tuple[]"
        }
      ],
      "stateMutability": "nonpayable",
      "type": "function"
    },
    {
      "inputs": [],
      "name": "continueScroll",
      "outputs": [
        {
          "components": [
            {
              "internalType": "uint256",
              "name": "id",
              "type": "uint256"
            },
            {
              "internalType": "address",
              "name": "owner",
              "type": "address"
            },
            {
              "internalType": "string",
              "name": "caption",
              "type": "string"
            },
            {
              "internalType": "uint256",
              "name": "likes",
              "type": "uint256"
            },
            {
              "components": [
                {
                  "internalType": "uint256",
                  "name": "id",
                  "type": "uint256"
                },
                {
                  "internalType": "address",
                  "name": "owner",
                  "type": "address"
                },
                {
                  "internalType": "uint256",
                  "name": "timestamp",
                  "type": "uint256"
                },
                {
                  "internalType": "string",
                  "name": "text",
                  "type": "string"
                }
              ],
              "internalType": "struct Post.Comment[]",
              "name": "comments",
              "type": "tuple[]"
            },
            {
              "internalType": "uint256",
              "name": "timestamp",
              "type": "uint256"
            },
            {
              "internalType": "uint256",
              "name": "viewCount",
              "type": "uint256"
            },
            {
              "internalType": "int256",
              "name": "mediaNFTID",
              "type": "int256"
            },
            {
              "internalType": "bool",
              "name": "deleted",
              "type": "bool"
            },
            {
              "internalType": "bool",
              "name": "flagged",
              "type": "bool"
            },
            {
              "internalType": "uint256",
              "name": "reportCount",
              "type": "uint256"
            }
          ],
          "internalType": "struct Post.PostData[]",
          "name": "",
          "type": "tuple[]"
        }
      ],
      "stateMutability": "nonpayable",
      "type": "function"
    }
  ],
  "bytecode": "0x6080604052600a6003556002600354610018919061006b565b60045534801561002757600080fd5b50604051610d13380380610d138339810160408190526100469161008d565b600080546001600160a01b0319166001600160a01b03929092169190911790556100bd565b60008261008857634e487b7160e01b600052601260045260246000fd5b500490565b60006020828403121561009f57600080fd5b81516001600160a01b03811681146100b657600080fd5b9392505050565b610c47806100cc6000396000f3fe608060405234801561001057600080fd5b50600436106100415760003560e01c80633665fc0214610046578063840a7650146100645780638fca650614610079575b600080fd5b61004e610081565b60405161005b9190610673565b60405180910390f35b610077610072366004610769565b6100a2565b005b61004e61012a565b3360009081526002602052604090205460609061009d9061013f565b905090565b6000546001600160a01b031633146100f65760405162461bcd60e51b8152602060048201526012602482015271706f737420636f6e7472616374206f6e6c7960701b60448201526064015b60405180910390fd5b6001805480820182556000919091527fb10e2d527612073b26eecdfd717e6a320cf44b4afac2b0732d9fcbe2b7fa0cf60155565b6001805460609161009d9161013f9190610798565b60606001546101905760405162461bcd60e51b815260206004820152601760248201527f6e6f206d6f726520706f73747320746f207363726f6c6c00000000000000000060448201526064016100ed565b600080839050600060035467ffffffffffffffff8111156101b3576101b36107b1565b6040519080825280602002602001820160405280156101ec57816020015b6101d9610511565b8152602001906001900390816101d15790505b5090505b600354831080156101ff575060015b156104f75760045483036102c9576000610217610578565b600080546040805163da4700ed60e01b815290516001600160a01b039092169263da4700ed92600480840193829003018183875af115801561025d573d6000803e3d6000fd5b505050506040513d6000823e601f3d908101601f191682016040526102859190810190610abc565b9250905081156102c65780600001518386815181106102a6576102a6610b59565b602002602001018190525084806102bc90610b6f565b95505050506101f0565b50505b6000600183815481106102de576102de610b59565b6000918252602082200154905460405163137c20a760e21b8152600481018390529192506001600160a01b031690634df0829c90602401602060405180830381865afa158015610332573d6000803e3d6000fd5b505050506040513d601f19601f820116820180604052508101906103569190610b88565b8015610440575060005460405163620d1b0560e11b8152600481018390526001600160a01b039091169063acb6b26990829063c41a360a90602401602060405180830381865afa1580156103ae573d6000803e3d6000fd5b505050506040513d601f19601f820116820180604052508101906103d29190610baa565b6040516001600160e01b031960e084901b1681526001600160a01b039091166004820152336024820152604401602060405180830381865afa15801561041c573d6000803e3d6000fd5b505050506040513d601f19601f820116820180604052508101906104409190610b88565b156104e45760005460405163101cc70960e21b8152600481018390526001600160a01b03909116906340731c24906024016000604051808303816000875af1158015610490573d6000803e3d6000fd5b505050506040513d6000823e601f3d908101601f191682016040526104b89190810190610bc5565b8285815181106104ca576104ca610b59565b602002602001018190525083806104e090610b6f565b9450505b826104ee81610bfa565b935050506101f0565b336000908152600260205260409020919091559392505050565b6040518061016001604052806000815260200160006001600160a01b03168152602001606081526020016000815260200160608152602001600081526020016000815260200160008152602001600015158152602001600015158152602001600081525090565b604051806040016040528061058b610511565b8152602001600081525090565b60005b838110156105b357818101518382015260200161059b565b50506000910152565b600081518084526105d4816020860160208601610598565b601f01601f19169290920160200192915050565b600082825180855260208086019550808260051b84010181860160005b8481101561066657858303601f19018952815180518452848101516001600160a01b03168585015260408082015190850152606090810151608091850182905290610652818601836105bc565b9a86019a9450505090830190600101610605565b5090979650505050505050565b60006020808301818452808551808352604092508286019150828160051b87010184880160005b8381101561075b57603f19898403018552815180518452878101516001600160a01b03168885015286810151610160888601819052906106dc828701826105bc565b91505060608083015181870152506080808301518683038288015261070183826105e8565b60a0858101519089015260c0808601519089015260e080860151908901526101008086015115159089015261012080860151151590890152610140948501519490970193909352505050938601939086019060010161069a565b509098975050505050505050565b60006020828403121561077b57600080fd5b5035919050565b634e487b7160e01b600052601160045260246000fd5b818103818111156107ab576107ab610782565b92915050565b634e487b7160e01b600052604160045260246000fd5b6040516080810167ffffffffffffffff811182821017156107ea576107ea6107b1565b60405290565b604051610160810167ffffffffffffffff811182821017156107ea576107ea6107b1565b604051601f8201601f1916810167ffffffffffffffff8111828210171561083d5761083d6107b1565b604052919050565b80516001600160a01b038116811461085c57600080fd5b919050565b600082601f83011261087257600080fd5b815167ffffffffffffffff81111561088c5761088c6107b1565b61089f601f8201601f1916602001610814565b8181528460208386010111156108b457600080fd5b6108c5826020830160208701610598565b949350505050565b600082601f8301126108de57600080fd5b8151602067ffffffffffffffff808311156108fb576108fb6107b1565b8260051b61090a838201610814565b938452858101830193838101908886111561092457600080fd5b84880192505b858310156109bc578251848111156109425760008081fd5b88016080818b03601f190181131561095a5760008081fd5b6109626107c7565b8783015181526040610975818501610845565b828a01526060848101518284015292840151928884111561099857600091508182fd5b6109a68e8b86880101610861565b908301525084525050918401919084019061092a565b98975050505050505050565b8051801515811461085c57600080fd5b600061016082840312156109eb57600080fd5b6109f36107f0565b905081518152610a0560208301610845565b6020820152604082015167ffffffffffffffff80821115610a2557600080fd5b610a3185838601610861565b6040840152606084015160608401526080840151915080821115610a5457600080fd5b50610a61848285016108cd565b60808301525060a082015160a082015260c082015160c082015260e082015160e0820152610100610a938184016109c8565b90820152610120610aa58382016109c8565b818301525061014080830151818301525092915050565b60008060408385031215610acf57600080fd5b825167ffffffffffffffff80821115610ae757600080fd5b9084019060408287031215610afb57600080fd5b604051604081018181108382111715610b1657610b166107b1565b604052825182811115610b2857600080fd5b610b34888286016109d8565b825250602092830151838201529350610b5091850190506109c8565b90509250929050565b634e487b7160e01b600052603260045260246000fd5b600060018201610b8157610b81610782565b5060010190565b600060208284031215610b9a57600080fd5b610ba3826109c8565b9392505050565b600060208284031215610bbc57600080fd5b610ba382610845565b600060208284031215610bd757600080fd5b815167ffffffffffffffff811115610bee57600080fd5b6108c5848285016109d8565b600081610c0957610c09610782565b50600019019056fea264697066735822122064b062c8f786eb9b11465b32686a3b8bbf8d61aa85c02c0505176d5989f41fe864736f6c63430008130033",
  "immutableReferences": {},
  "source": "pragma solidity ^0.8.0;\n\nimport \"./Post.sol\";\n\ncontract Feed {\n\tPost postContract;\n\n\t// stores all posts (only storing the ids) to generate the feed for users\n\t// latest posts are always at the end of the array\n\tuint256[] globalFeed;\n\t// keep track of scroll states. \n\t// scroll states tell us which post of the globalFeed did the user last scrolled until\n\t// this allow us to return the next N posts from the last-scrolled-until post\n\tmapping(address => uint256) scrollStates;\n\tuint256 POSTS_PER_SCROLL = 10;\n\t// the index at which to inject an advertisement on each scroll\n\tuint256 INSERT_AD_AT_IDX = POSTS_PER_SCROLL / 2;\n\n\tconstructor(Post _postContract) {\n\t\tpostContract = _postContract;\n\t}\n\n\tmodifier postContractOnly() {\n\t\trequire(msg.sender == address(postContract), \"post contract only\");\n\t\t_;\n\t}\n\n\t// adds this post to the global feed\n\tfunction addToFeed(uint256 postId) public postContractOnly {\n\t\tglobalFeed.push(postId);\n\t}\n\n\t// initializes the start of a scroll.\n\t// this returns the latest N posts, where N=POSTS_PER_SCROLL specified at the start of this contract\n\tfunction startScroll() public returns (Post.PostData[] memory) {\n\t\t// start idx = last element of array (where the lastest post is at)\n\t\treturn scrollPosts(globalFeed.length - 1);\n\t}\n\n\t// continues the scroll.\n\t// this returns the next N posts, starting from where the user last left off, as captured by the `scrollStates` mapping\n\tfunction continueScroll() public returns (Post.PostData[] memory) {\n\t\t// start idx = the latest post which the user has not seen according to `scrollStates`\n\t\treturn scrollPosts(scrollStates[msg.sender]);\n\t}\n\n\t// return the next 10 (non-deleted && non-flagged) posts starting from startIdx.\n\t// note that we count from the end of array to start of array, as the latest posts are the end of the array.\n\tfunction scrollPosts(uint startIdx) private returns (Post.PostData[] memory) {\n\t\trequire(startIdx >= 0 && globalFeed.length > 0 , \"no more posts to scroll\");\n\n\t\tuint numPosts = 0;\n\t\tuint idx = startIdx;\n\t\tPost.PostData[] memory posts = new Post.PostData[](POSTS_PER_SCROLL);\n\t\t// add up to `POSTS_PER_SCROLL` posts to result, or until there is no more posts from global feed to return (i.e idx < 0)\n\t\twhile (numPosts < POSTS_PER_SCROLL && idx >= 0) {\n\t\t\t// ADVERTISMENT INJECTION\n\t\t\tif (numPosts == INSERT_AD_AT_IDX) {\n\t\t\t\tbool found;\n\t\t\t\tPost.Ad memory ad;\n\t\t\t\t(ad, found) = postContract.getAd();\n\t\t\t\tif (found) {\n\t\t\t\t\tposts[numPosts] = ad.postData;\n\t\t\t\t\tnumPosts++;\n\t\t\t\t\tcontinue;\n\t\t\t\t}\n\t\t\t\t// if we cannot find an ad.. continue adding more posts from global feed\n\t\t\t}\n\n\t\t\tuint postId = globalFeed[idx];\n\t\t\tif (postContract.notDeletedOrFlagged(postId) && postContract.canViewCreatorPosts(postContract.getOwner(postId), msg.sender)) {\n\t\t\t\tposts[numPosts] = postContract.getPost(postId);\n\t\t\t\tnumPosts++;\n\t\t\t} \n\t\t\tidx--;\n\t\t}\n\n\t\t// for next scroll, we start searching from this index\n\t\tscrollStates[msg.sender] = idx; \n\n\t\treturn posts;\n\t}\n}",
  "sourcePath": "/Users/cy/git/sch/is4302/DefiSocialMedia/contracts/Feed.sol",
  "compiler": {
    "name": "solc",
    "version": "0.8.19+commit.7dd6d404.Emscripten.clang"
  },
  "schemaVersion": "3.4.11",
  "updatedAt": "2023-03-22T15:24:13.424Z",
  "networkType": "ethereum",
  "devdoc": {
    "kind": "dev",
    "methods": {},
    "version": 1
  },
  "userdoc": {
    "kind": "user",
    "methods": {},
    "version": 1
  }
}