{
  "contractName": "MediaNFT",
  "abi": [
    {
      "inputs": [],
      "stateMutability": "nonpayable",
      "type": "constructor"
    },
    {
      "anonymous": false,
      "inputs": [
        {
          "indexed": true,
          "internalType": "address",
          "name": "owner",
          "type": "address"
        },
        {
          "indexed": true,
          "internalType": "address",
          "name": "approved",
          "type": "address"
        },
        {
          "indexed": true,
          "internalType": "uint256",
          "name": "tokenId",
          "type": "uint256"
        }
      ],
      "name": "Approval",
      "type": "event"
    },
    {
      "anonymous": false,
      "inputs": [
        {
          "indexed": true,
          "internalType": "address",
          "name": "owner",
          "type": "address"
        },
        {
          "indexed": true,
          "internalType": "address",
          "name": "operator",
          "type": "address"
        },
        {
          "indexed": false,
          "internalType": "bool",
          "name": "approved",
          "type": "bool"
        }
      ],
      "name": "ApprovalForAll",
      "type": "event"
    },
    {
      "anonymous": false,
      "inputs": [
        {
          "indexed": true,
          "internalType": "address",
          "name": "from",
          "type": "address"
        },
        {
          "indexed": true,
          "internalType": "address",
          "name": "to",
          "type": "address"
        },
        {
          "indexed": true,
          "internalType": "uint256",
          "name": "tokenId",
          "type": "uint256"
        }
      ],
      "name": "Transfer",
      "type": "event"
    },
    {
      "inputs": [
        {
          "internalType": "address",
          "name": "to",
          "type": "address"
        },
        {
          "internalType": "uint256",
          "name": "tokenId",
          "type": "uint256"
        }
      ],
      "name": "approve",
      "outputs": [],
      "stateMutability": "nonpayable",
      "type": "function"
    },
    {
      "inputs": [
        {
          "internalType": "address",
          "name": "owner",
          "type": "address"
        }
      ],
      "name": "balanceOf",
      "outputs": [
        {
          "internalType": "uint256",
          "name": "",
          "type": "uint256"
        }
      ],
      "stateMutability": "view",
      "type": "function",
      "constant": true
    },
    {
      "inputs": [
        {
          "internalType": "uint256",
          "name": "tokenId",
          "type": "uint256"
        }
      ],
      "name": "getApproved",
      "outputs": [
        {
          "internalType": "address",
          "name": "",
          "type": "address"
        }
      ],
      "stateMutability": "view",
      "type": "function",
      "constant": true
    },
    {
      "inputs": [
        {
          "internalType": "address",
          "name": "owner",
          "type": "address"
        },
        {
          "internalType": "address",
          "name": "operator",
          "type": "address"
        }
      ],
      "name": "isApprovedForAll",
      "outputs": [
        {
          "internalType": "bool",
          "name": "",
          "type": "bool"
        }
      ],
      "stateMutability": "view",
      "type": "function",
      "constant": true
    },
    {
      "inputs": [],
      "name": "name",
      "outputs": [
        {
          "internalType": "string",
          "name": "",
          "type": "string"
        }
      ],
      "stateMutability": "view",
      "type": "function",
      "constant": true
    },
    {
      "inputs": [
        {
          "internalType": "uint256",
          "name": "tokenId",
          "type": "uint256"
        }
      ],
      "name": "ownerOf",
      "outputs": [
        {
          "internalType": "address",
          "name": "",
          "type": "address"
        }
      ],
      "stateMutability": "view",
      "type": "function",
      "constant": true
    },
    {
      "inputs": [
        {
          "internalType": "address",
          "name": "from",
          "type": "address"
        },
        {
          "internalType": "address",
          "name": "to",
          "type": "address"
        },
        {
          "internalType": "uint256",
          "name": "tokenId",
          "type": "uint256"
        }
      ],
      "name": "safeTransferFrom",
      "outputs": [],
      "stateMutability": "nonpayable",
      "type": "function"
    },
    {
      "inputs": [
        {
          "internalType": "address",
          "name": "from",
          "type": "address"
        },
        {
          "internalType": "address",
          "name": "to",
          "type": "address"
        },
        {
          "internalType": "uint256",
          "name": "tokenId",
          "type": "uint256"
        },
        {
          "internalType": "bytes",
          "name": "data",
          "type": "bytes"
        }
      ],
      "name": "safeTransferFrom",
      "outputs": [],
      "stateMutability": "nonpayable",
      "type": "function"
    },
    {
      "inputs": [
        {
          "internalType": "address",
          "name": "operator",
          "type": "address"
        },
        {
          "internalType": "bool",
          "name": "approved",
          "type": "bool"
        }
      ],
      "name": "setApprovalForAll",
      "outputs": [],
      "stateMutability": "nonpayable",
      "type": "function"
    },
    {
      "inputs": [
        {
          "internalType": "bytes4",
          "name": "interfaceId",
          "type": "bytes4"
        }
      ],
      "name": "supportsInterface",
      "outputs": [
        {
          "internalType": "bool",
          "name": "",
          "type": "bool"
        }
      ],
      "stateMutability": "view",
      "type": "function",
      "constant": true
    },
    {
      "inputs": [],
      "name": "symbol",
      "outputs": [
        {
          "internalType": "string",
          "name": "",
          "type": "string"
        }
      ],
      "stateMutability": "view",
      "type": "function",
      "constant": true
    },
    {
      "inputs": [
        {
          "internalType": "uint256",
          "name": "tokenId",
          "type": "uint256"
        }
      ],
      "name": "tokenURI",
      "outputs": [
        {
          "internalType": "string",
          "name": "",
          "type": "string"
        }
      ],
      "stateMutability": "view",
      "type": "function",
      "constant": true
    },
    {
      "inputs": [
        {
          "internalType": "address",
          "name": "from",
          "type": "address"
        },
        {
          "internalType": "address",
          "name": "to",
          "type": "address"
        },
        {
          "internalType": "uint256",
          "name": "tokenId",
          "type": "uint256"
        }
      ],
      "name": "transferFrom",
      "outputs": [],
      "stateMutability": "nonpayable",
      "type": "function"
    },
    {
      "inputs": [
        {
          "internalType": "address",
          "name": "_postContract",
          "type": "address"
        }
      ],
      "name": "setPostContract",
      "outputs": [],
      "stateMutability": "nonpayable",
      "type": "function"
    },
    {
      "inputs": [
        {
          "internalType": "address",
          "name": "to",
          "type": "address"
        },
        {
          "internalType": "string",
          "name": "ipfsCID",
          "type": "string"
        }
      ],
      "name": "mint",
      "outputs": [
        {
          "internalType": "uint256",
          "name": "",
          "type": "uint256"
        }
      ],
      "stateMutability": "nonpayable",
      "type": "function"
    },
    {
      "inputs": [
        {
          "internalType": "string",
          "name": "__baseURI",
          "type": "string"
        }
      ],
      "name": "setBaseURI",
      "outputs": [],
      "stateMutability": "nonpayable",
      "type": "function"
    }
  ],
  "bytecode": "0x60e0604052602160808181529062001b0d60a03960099062000022908262000160565b503480156200003057600080fd5b50604051806040016040528060128152602001711119599a54dbd8da585b1359591a5853919560721b815250604051806040016040528060068152602001651114d353919560d21b81525081600090816200008c919062000160565b5060016200009b828262000160565b5050600780546001600160a01b03191633179055506000600b556200022c565b634e487b7160e01b600052604160045260246000fd5b600181811c90821680620000e657607f821691505b6020821081036200010757634e487b7160e01b600052602260045260246000fd5b50919050565b601f8211156200015b57600081815260208120601f850160051c81016020861015620001365750805b601f850160051c820191505b81811015620001575782815560010162000142565b5050505b505050565b81516001600160401b038111156200017c576200017c620000bb565b62000194816200018d8454620000d1565b846200010d565b602080601f831160018114620001cc5760008415620001b35750858301515b600019600386901b1c1916600185901b17855562000157565b600085815260208120601f198616915b82811015620001fd57888601518255948401946001909101908401620001dc565b50858210156200021c5787850151600019600388901b60f8161c191681555b5050505050600190811b01905550565b6118d1806200023c6000396000f3fe608060405234801561001057600080fd5b50600436106101005760003560e01c80636352211e11610097578063b88d4fde11610066578063b88d4fde1461021d578063c87b56dd14610230578063d0def52114610243578063e985e9c51461025657600080fd5b80636352211e146101ce57806370a08231146101e157806395d89b4114610202578063a22cb4651461020a57600080fd5b806323b872dd116100d357806323b872dd1461018257806342842e0e14610195578063520d49e4146101a857806355f804b3146101bb57600080fd5b806301ffc9a71461010557806306fdde031461012d578063081812fc14610142578063095ea7b31461016d575b600080fd5b610118610113366004611253565b610292565b60405190151581526020015b60405180910390f35b6101356102e4565b60405161012491906112c0565b6101556101503660046112d3565b610376565b6040516001600160a01b039091168152602001610124565b61018061017b366004611308565b61039d565b005b610180610190366004611332565b6104b7565b6101806101a3366004611332565b6104e8565b6101806101b636600461136e565b610503565b6101806101c9366004611435565b61056c565b6101556101dc3660046112d3565b6105c3565b6101f46101ef36600461136e565b610623565b604051908152602001610124565b6101356106a9565b61018061021836600461146a565b6106b8565b61018061022b3660046114a6565b6106c3565b61013561023e3660046112d3565b6106fb565b6101f4610251366004611522565b6107fe565b610118610264366004611570565b6001600160a01b03918216600090815260056020908152604080832093909416825291909152205460ff1690565b60006001600160e01b031982166380ac58cd60e01b14806102c357506001600160e01b03198216635b5e139f60e01b145b806102de57506301ffc9a760e01b6001600160e01b03198316145b92915050565b6060600080546102f3906115a3565b80601f016020809104026020016040519081016040528092919081815260200182805461031f906115a3565b801561036c5780601f106103415761010080835404028352916020019161036c565b820191906000526020600020905b81548152906001019060200180831161034f57829003601f168201915b5050505050905090565b60006103818261093d565b506000908152600460205260409020546001600160a01b031690565b60006103a8826105c3565b9050806001600160a01b0316836001600160a01b03160361041a5760405162461bcd60e51b815260206004820152602160248201527f4552433732313a20617070726f76616c20746f2063757272656e74206f776e656044820152603960f91b60648201526084015b60405180910390fd5b336001600160a01b038216148061043657506104368133610264565b6104a85760405162461bcd60e51b815260206004820152603d60248201527f4552433732313a20617070726f76652063616c6c6572206973206e6f7420746f60448201527f6b656e206f776e6572206f7220617070726f76656420666f7220616c6c0000006064820152608401610411565b6104b2838361099f565b505050565b6104c13382610a0d565b6104dd5760405162461bcd60e51b8152600401610411906115dd565b6104b2838383610a8b565b6104b2838383604051806020016040528060008152506106c3565b6007546001600160a01b0316331461054a5760405162461bcd60e51b815260206004820152600a6024820152696f776e6572206f6e6c7960b01b6044820152606401610411565b600880546001600160a01b0319166001600160a01b0392909216919091179055565b6007546001600160a01b031633146105b35760405162461bcd60e51b815260206004820152600a6024820152696f776e6572206f6e6c7960b01b6044820152606401610411565b60096105bf8282611678565b5050565b6000818152600260205260408120546001600160a01b0316806102de5760405162461bcd60e51b8152602060048201526018602482015277115490cdcc8c4e881a5b9d985b1a59081d1bdad95b88125160421b6044820152606401610411565b60006001600160a01b03821661068d5760405162461bcd60e51b815260206004820152602960248201527f4552433732313a2061646472657373207a65726f206973206e6f7420612076616044820152683634b21037bbb732b960b91b6064820152608401610411565b506001600160a01b031660009081526003602052604090205490565b6060600180546102f3906115a3565b6105bf338383610bef565b6106cd3383610a0d565b6106e95760405162461bcd60e51b8152600401610411906115dd565b6106f584848484610cbd565b50505050565b60606107068261093d565b6000828152600660205260408120805461071f906115a3565b80601f016020809104026020016040519081016040528092919081815260200182805461074b906115a3565b80156107985780601f1061076d57610100808354040283529160200191610798565b820191906000526020600020905b81548152906001019060200180831161077b57829003601f168201915b5050505050905060006107a9610cf0565b905080516000036107bb575092915050565b8151156107ed5780826040516020016107d5929190611738565b60405160208183030381529060405292505050919050565b6107f684610cff565b949350505050565b6008546000906001600160a01b031633146108505760405162461bcd60e51b8152602060048201526012602482015271706f737420636f6e7472616374206f6e6c7960701b6044820152606401610411565b600a826040516108609190611767565b9081526040519081900360200190205460ff16156108d75760405162461bcd60e51b815260206004820152602e60248201527f7468697320696d6167652068617320616c7265616479206265656e206d696e7460448201526d1959081d1bc81cdbdb59481b999d60921b6064820152608401610411565b6001600a836040516108e99190611767565b908152604051908190036020019020805491151560ff19909216919091179055600b546109168482610d66565b6109208184610d80565b600b805490600061093083611783565b9091555090949350505050565b6000818152600260205260409020546001600160a01b031661099c5760405162461bcd60e51b8152602060048201526018602482015277115490cdcc8c4e881a5b9d985b1a59081d1bdad95b88125160421b6044820152606401610411565b50565b600081815260046020526040902080546001600160a01b0319166001600160a01b03841690811790915581906109d4826105c3565b6001600160a01b03167f8c5be1e5ebec7d5bd14f71427d1e84f3dd0314c0f7b2291e5b200ac8c7c3b92560405160405180910390a45050565b600080610a19836105c3565b9050806001600160a01b0316846001600160a01b03161480610a6057506001600160a01b0380821660009081526005602090815260408083209388168352929052205460ff165b806107f65750836001600160a01b0316610a7984610376565b6001600160a01b031614949350505050565b826001600160a01b0316610a9e826105c3565b6001600160a01b031614610ac45760405162461bcd60e51b8152600401610411906117aa565b6001600160a01b038216610b265760405162461bcd60e51b8152602060048201526024808201527f4552433732313a207472616e7366657220746f20746865207a65726f206164646044820152637265737360e01b6064820152608401610411565b826001600160a01b0316610b39826105c3565b6001600160a01b031614610b5f5760405162461bcd60e51b8152600401610411906117aa565b600081815260046020908152604080832080546001600160a01b03199081169091556001600160a01b0387811680865260038552838620805460001901905590871680865283862080546001019055868652600290945282852080549092168417909155905184937fddf252ad1be2c89b69c2b068fc378daa952ba7f163c4a11628f55a4df523b3ef91a4505050565b816001600160a01b0316836001600160a01b031603610c505760405162461bcd60e51b815260206004820152601960248201527f4552433732313a20617070726f766520746f2063616c6c6572000000000000006044820152606401610411565b6001600160a01b03838116600081815260056020908152604080832094871680845294825291829020805460ff191686151590811790915591519182527f17307eab39ab6107e8899845ad3d59bd9653f200f220920489ca2b5937696c31910160405180910390a3505050565b610cc8848484610a8b565b610cd484848484610e13565b6106f55760405162461bcd60e51b8152600401610411906117ef565b6060600980546102f3906115a3565b6060610d0a8261093d565b6000610d14610cf0565b90506000815111610d345760405180602001604052806000815250610d5f565b80610d3e84610f14565b604051602001610d4f929190611738565b6040516020818303038152906040525b9392505050565b6105bf828260405180602001604052806000815250610fa7565b6000828152600260205260409020546001600160a01b0316610dfb5760405162461bcd60e51b815260206004820152602e60248201527f45524337323155524953746f726167653a2055524920736574206f66206e6f6e60448201526d32bc34b9ba32b73a103a37b5b2b760911b6064820152608401610411565b60008281526006602052604090206104b28282611678565b60006001600160a01b0384163b15610f0957604051630a85bd0160e11b81526001600160a01b0385169063150b7a0290610e57903390899088908890600401611841565b6020604051808303816000875af1925050508015610e92575060408051601f3d908101601f19168201909252610e8f9181019061187e565b60015b610eef573d808015610ec0576040519150601f19603f3d011682016040523d82523d6000602084013e610ec5565b606091505b508051600003610ee75760405162461bcd60e51b8152600401610411906117ef565b805181602001fd5b6001600160e01b031916630a85bd0160e11b1490506107f6565b506001949350505050565b60606000610f2183610fda565b600101905060008167ffffffffffffffff811115610f4157610f41611389565b6040519080825280601f01601f191660200182016040528015610f6b576020820181803683370190505b5090508181016020015b600019016f181899199a1a9b1b9c1cb0b131b232b360811b600a86061a8153600a8504945084610f7557509392505050565b610fb183836110b2565b610fbe6000848484610e13565b6104b25760405162461bcd60e51b8152600401610411906117ef565b60008072184f03e93ff9f4daa797ed6e38ed64bf6a1f0160401b83106110195772184f03e93ff9f4daa797ed6e38ed64bf6a1f0160401b830492506040015b6d04ee2d6d415b85acef81000000008310611045576d04ee2d6d415b85acef8100000000830492506020015b662386f26fc10000831061106357662386f26fc10000830492506010015b6305f5e100831061107b576305f5e100830492506008015b612710831061108f57612710830492506004015b606483106110a1576064830492506002015b600a83106102de5760010192915050565b6001600160a01b0382166111085760405162461bcd60e51b815260206004820181905260248201527f4552433732313a206d696e7420746f20746865207a65726f20616464726573736044820152606401610411565b6000818152600260205260409020546001600160a01b03161561116d5760405162461bcd60e51b815260206004820152601c60248201527f4552433732313a20746f6b656e20616c7265616479206d696e746564000000006044820152606401610411565b6000818152600260205260409020546001600160a01b0316156111d25760405162461bcd60e51b815260206004820152601c60248201527f4552433732313a20746f6b656e20616c7265616479206d696e746564000000006044820152606401610411565b6001600160a01b038216600081815260036020908152604080832080546001019055848352600290915280822080546001600160a01b0319168417905551839291907fddf252ad1be2c89b69c2b068fc378daa952ba7f163c4a11628f55a4df523b3ef908290a45050565b6001600160e01b03198116811461099c57600080fd5b60006020828403121561126557600080fd5b8135610d5f8161123d565b60005b8381101561128b578181015183820152602001611273565b50506000910152565b600081518084526112ac816020860160208601611270565b601f01601f19169290920160200192915050565b602081526000610d5f6020830184611294565b6000602082840312156112e557600080fd5b5035919050565b80356001600160a01b038116811461130357600080fd5b919050565b6000806040838503121561131b57600080fd5b611324836112ec565b946020939093013593505050565b60008060006060848603121561134757600080fd5b611350846112ec565b925061135e602085016112ec565b9150604084013590509250925092565b60006020828403121561138057600080fd5b610d5f826112ec565b634e487b7160e01b600052604160045260246000fd5b600067ffffffffffffffff808411156113ba576113ba611389565b604051601f8501601f19908116603f011681019082821181831017156113e2576113e2611389565b816040528093508581528686860111156113fb57600080fd5b858560208301376000602087830101525050509392505050565b600082601f83011261142657600080fd5b610d5f8383356020850161139f565b60006020828403121561144757600080fd5b813567ffffffffffffffff81111561145e57600080fd5b6107f684828501611415565b6000806040838503121561147d57600080fd5b611486836112ec565b91506020830135801515811461149b57600080fd5b809150509250929050565b600080600080608085870312156114bc57600080fd5b6114c5856112ec565b93506114d3602086016112ec565b925060408501359150606085013567ffffffffffffffff8111156114f657600080fd5b8501601f8101871361150757600080fd5b6115168782356020840161139f565b91505092959194509250565b6000806040838503121561153557600080fd5b61153e836112ec565b9150602083013567ffffffffffffffff81111561155a57600080fd5b61156685828601611415565b9150509250929050565b6000806040838503121561158357600080fd5b61158c836112ec565b915061159a602084016112ec565b90509250929050565b600181811c908216806115b757607f821691505b6020821081036115d757634e487b7160e01b600052602260045260246000fd5b50919050565b6020808252602d908201527f4552433732313a2063616c6c6572206973206e6f7420746f6b656e206f776e6560408201526c1c881bdc88185c1c1c9bdd9959609a1b606082015260800190565b601f8211156104b257600081815260208120601f850160051c810160208610156116515750805b601f850160051c820191505b818110156116705782815560010161165d565b505050505050565b815167ffffffffffffffff81111561169257611692611389565b6116a6816116a084546115a3565b8461162a565b602080601f8311600181146116db57600084156116c35750858301515b600019600386901b1c1916600185901b178555611670565b600085815260208120601f198616915b8281101561170a578886015182559484019460019091019084016116eb565b50858210156117285787850151600019600388901b60f8161c191681555b5050505050600190811b01905550565b6000835161174a818460208801611270565b83519083019061175e818360208801611270565b01949350505050565b60008251611779818460208701611270565b9190910192915050565b6000600182016117a357634e487b7160e01b600052601160045260246000fd5b5060010190565b60208082526025908201527f4552433732313a207472616e736665722066726f6d20696e636f72726563742060408201526437bbb732b960d91b606082015260800190565b60208082526032908201527f4552433732313a207472616e7366657220746f206e6f6e20455243373231526560408201527131b2b4bb32b91034b6b83632b6b2b73a32b960711b606082015260800190565b6001600160a01b038581168252841660208201526040810183905260806060820181905260009061187490830184611294565b9695505050505050565b60006020828403121561189057600080fd5b8151610d5f8161123d56fea2646970667358221220e97918b2ac8f3b9c189c6fb9a8a1a38374671471e9474e4eebfbe88ea720193664736f6c6343000813003368747470733a2f2f636c6f7564666c6172652d697066732e636f6d2f697066732f",
  "immutableReferences": {},
  "source": "pragma solidity ^0.8.0;\n\nimport '@openzeppelin/contracts/token/ERC721/extensions/ERC721URIStorage.sol';\n// ERC721: https://github.com/OpenZeppelin/openzeppelin-contracts/blob/master/contracts/token/ERC721/ERC721.sol\n// ERC721URIStorage: https://github.com/OpenZeppelin/openzeppelin-contracts/blob/master/contracts/token/extensions/ERC721URIStorage.sol\n\ncontract MediaNFT is ERC721URIStorage {\n\t// owner of this nft contract\n\taddress owner; \n\t// address of the post contract\n\taddress postContract;\n\t// ipfs gateway, there are many other alternatives as well\n\tstring baseURI = \"https://cloudflare-ipfs.com/ipfs/\"; \n\t// keep track of used images, so that we do not accidentally mint the same image to different nfts\n\tmapping(string => bool) usedImagesSet;\n\t// running number of token ids\n\tuint nextTokenID;\n\n\tmodifier ownerOnly {\n\t\trequire(owner == msg.sender, \"owner only\");\n\t\t_;\n\t}\n\n\tconstructor() ERC721(\"DefiSocialMediaNFT\", \"DSMNFT\") {\n\t\towner = msg.sender;\n\t\tnextTokenID = 0;\n\t}\n\n\tfunction setPostContract(address _postContract) public ownerOnly {\n\t\tpostContract = _postContract;\n\t}\n\n\tmodifier postContractOnly() {\n\t\trequire(postContract == msg.sender, \"post contract only\");\n\t\t_;\n\t}\n\n\t// returns id of nft minted\n\t// `to` is the address to mint the nft to\n\t// `ipfsCID` is the identifier in the IPFS network that points to the associated media (can get this through https://nft.storage website or api)\n\tfunction mint(address to, string memory ipfsCID) postContractOnly external returns (uint) {\n\t\trequire(!usedImagesSet[ipfsCID], \"this image has already been minted to some nft\");\n\t\tusedImagesSet[ipfsCID] = true;\n\n\t\tuint tokenID = nextTokenID;\n\t\t_safeMint(to, tokenID);\n\t\t_setTokenURI(tokenID, ipfsCID);\n\t\tnextTokenID++;\n\n\t\treturn tokenID;\n\t}\n\n\tfunction _baseURI() internal view virtual override returns (string memory) {\n        return baseURI;\n    }\n\n\tfunction setBaseURI(string memory __baseURI) public ownerOnly {\n\t\tbaseURI = __baseURI;\n\t}\n}",
  "sourcePath": "/Users/cy/git/sch/is4302/DefiSocialMedia/contracts/MediaNFT.sol",
  "compiler": {
    "name": "solc",
    "version": "0.8.19+commit.7dd6d404.Emscripten.clang"
  },
  "schemaVersion": "3.4.11",
  "updatedAt": "2023-03-22T15:24:13.371Z",
  "networkType": "ethereum",
  "devdoc": {
    "events": {
      "Approval(address,address,uint256)": {
        "details": "Emitted when `owner` enables `approved` to manage the `tokenId` token."
      },
      "ApprovalForAll(address,address,bool)": {
        "details": "Emitted when `owner` enables or disables (`approved`) `operator` to manage all of its assets."
      },
      "Transfer(address,address,uint256)": {
        "details": "Emitted when `tokenId` token is transferred from `from` to `to`."
      }
    },
    "kind": "dev",
    "methods": {
      "approve(address,uint256)": {
        "details": "See {IERC721-approve}."
      },
      "balanceOf(address)": {
        "details": "See {IERC721-balanceOf}."
      },
      "getApproved(uint256)": {
        "details": "See {IERC721-getApproved}."
      },
      "isApprovedForAll(address,address)": {
        "details": "See {IERC721-isApprovedForAll}."
      },
      "name()": {
        "details": "See {IERC721Metadata-name}."
      },
      "ownerOf(uint256)": {
        "details": "See {IERC721-ownerOf}."
      },
      "safeTransferFrom(address,address,uint256)": {
        "details": "See {IERC721-safeTransferFrom}."
      },
      "safeTransferFrom(address,address,uint256,bytes)": {
        "details": "See {IERC721-safeTransferFrom}."
      },
      "setApprovalForAll(address,bool)": {
        "details": "See {IERC721-setApprovalForAll}."
      },
      "supportsInterface(bytes4)": {
        "details": "See {IERC165-supportsInterface}."
      },
      "symbol()": {
        "details": "See {IERC721Metadata-symbol}."
      },
      "tokenURI(uint256)": {
        "details": "See {IERC721Metadata-tokenURI}."
      },
      "transferFrom(address,address,uint256)": {
        "details": "See {IERC721-transferFrom}."
      }
    },
    "version": 1
  },
  "userdoc": {
    "kind": "user",
    "methods": {},
    "version": 1
  }
}