{
  "contractName": "Post",
  "abi": [
    {
      "inputs": [
        {
          "internalType": "string",
          "name": "baseURI",
          "type": "string"
        }
      ],
      "stateMutability": "nonpayable",
      "type": "constructor"
    },
    {
      "inputs": [
        {
          "internalType": "uint256",
          "name": "id",
          "type": "uint256"
        }
      ],
      "name": "getPost",
      "outputs": [
        {
          "components": [
            {
              "internalType": "uint256",
              "name": "id",
              "type": "uint256"
            },
            {
              "internalType": "address",
              "name": "owner",
              "type": "address"
            },
            {
              "internalType": "string",
              "name": "caption",
              "type": "string"
            },
            {
              "internalType": "uint256",
              "name": "likes",
              "type": "uint256"
            },
            {
              "components": [
                {
                  "internalType": "uint256",
                  "name": "id",
                  "type": "uint256"
                },
                {
                  "internalType": "address",
                  "name": "owner",
                  "type": "address"
                },
                {
                  "internalType": "uint256",
                  "name": "timestamp",
                  "type": "uint256"
                },
                {
                  "internalType": "string",
                  "name": "text",
                  "type": "string"
                },
                {
                  "internalType": "bool",
                  "name": "deleted",
                  "type": "bool"
                }
              ],
              "internalType": "struct Post.Comment[]",
              "name": "comments",
              "type": "tuple[]"
            },
            {
              "internalType": "uint256",
              "name": "timestamp",
              "type": "uint256"
            },
            {
              "internalType": "uint256",
              "name": "viewCount",
              "type": "uint256"
            },
            {
              "internalType": "uint256",
              "name": "mediaNFTID",
              "type": "uint256"
            },
            {
              "internalType": "bool",
              "name": "deleted",
              "type": "bool"
            }
          ],
          "internalType": "struct Post.Post",
          "name": "",
          "type": "tuple"
        }
      ],
      "stateMutability": "nonpayable",
      "type": "function"
    },
    {
      "inputs": [
        {
          "internalType": "string",
          "name": "caption",
          "type": "string"
        },
        {
          "internalType": "uint256",
          "name": "mediaNFTID",
          "type": "uint256"
        }
      ],
      "name": "createPost",
      "outputs": [],
      "stateMutability": "nonpayable",
      "type": "function"
    },
    {
      "inputs": [
        {
          "internalType": "uint256",
          "name": "id",
          "type": "uint256"
        }
      ],
      "name": "like",
      "outputs": [],
      "stateMutability": "nonpayable",
      "type": "function"
    },
    {
      "inputs": [
        {
          "internalType": "uint256",
          "name": "id",
          "type": "uint256"
        }
      ],
      "name": "unlike",
      "outputs": [],
      "stateMutability": "nonpayable",
      "type": "function"
    },
    {
      "inputs": [
        {
          "internalType": "uint256",
          "name": "id",
          "type": "uint256"
        },
        {
          "internalType": "string",
          "name": "text",
          "type": "string"
        }
      ],
      "name": "addComment",
      "outputs": [],
      "stateMutability": "nonpayable",
      "type": "function"
    },
    {
      "inputs": [
        {
          "internalType": "uint256",
          "name": "postID",
          "type": "uint256"
        },
        {
          "internalType": "uint256",
          "name": "commentID",
          "type": "uint256"
        }
      ],
      "name": "deleteComment",
      "outputs": [],
      "stateMutability": "nonpayable",
      "type": "function"
    },
    {
      "inputs": [
        {
          "internalType": "uint256",
          "name": "id",
          "type": "uint256"
        }
      ],
      "name": "deletePost",
      "outputs": [],
      "stateMutability": "nonpayable",
      "type": "function"
    },
    {
      "inputs": [
        {
          "internalType": "string",
          "name": "baseURI",
          "type": "string"
        }
      ],
      "name": "setBaseURI",
      "outputs": [],
      "stateMutability": "nonpayable",
      "type": "function"
    }
  ],
  "bytecode": "0x608060405260006002553480156200001657600080fd5b506040516200560d3803806200560d83398181016040528101906200003c91906200029d565b806040516200004b90620000fc565b6200005791906200034b565b604051809103906000f08015801562000074573d6000803e3d6000fd5b50600160006101000a81548173ffffffffffffffffffffffffffffffffffffffff021916908373ffffffffffffffffffffffffffffffffffffffff160217905550336000806101000a81548173ffffffffffffffffffffffffffffffffffffffff021916908373ffffffffffffffffffffffffffffffffffffffff160217905550506200036f565b6130c5806200254883390190565b6000604051905090565b600080fd5b600080fd5b600080fd5b600080fd5b6000601f19601f8301169050919050565b7f4e487b7100000000000000000000000000000000000000000000000000000000600052604160045260246000fd5b620001738262000128565b810181811067ffffffffffffffff8211171562000195576200019462000139565b5b80604052505050565b6000620001aa6200010a565b9050620001b8828262000168565b919050565b600067ffffffffffffffff821115620001db57620001da62000139565b5b620001e68262000128565b9050602081019050919050565b60005b8381101562000213578082015181840152602081019050620001f6565b60008484015250505050565b6000620002366200023084620001bd565b6200019e565b90508281526020810184848401111562000255576200025462000123565b5b62000262848285620001f3565b509392505050565b600082601f8301126200028257620002816200011e565b5b8151620002948482602086016200021f565b91505092915050565b600060208284031215620002b657620002b562000114565b5b600082015167ffffffffffffffff811115620002d757620002d662000119565b5b620002e5848285016200026a565b91505092915050565b600081519050919050565b600082825260208201905092915050565b60006200031782620002ee565b620003238185620002f9565b935062000335818560208601620001f3565b620003408162000128565b840191505092915050565b600060208201905081810360008301526200036781846200030a565b905092915050565b6121c9806200037f6000396000f3fe608060405234801561001057600080fd5b50600436106100885760003560e01c806355f804b31161005b57806355f804b31461011157806374d21ae01461012d578063aa7e568314610149578063e82935da1461016557610088565b8063094cd5ee1461008d5780631252cb48146100a957806331a4bcb5146100c557806340731c24146100e1575b600080fd5b6100a760048036038101906100a29190611331565b610181565b005b6100c360048036038101906100be91906114a4565b610310565b005b6100df60048036038101906100da9190611500565b610481565b005b6100fb60048036038101906100f69190611331565b6106e0565b604051610108919061182e565b60405180910390f35b61012b60048036038101906101269190611850565b610b1e565b005b61014760048036038101906101429190611331565b610c3c565b005b610163600480360381019061015e9190611899565b610e2e565b005b61017f600480360381019061017a9190611331565b61101a565b005b806003600082815260200190815260200160002060010160009054906101000a900473ffffffffffffffffffffffffffffffffffffffff1673ffffffffffffffffffffffffffffffffffffffff163373ffffffffffffffffffffffffffffffffffffffff1614610226576040517f08c379a000000000000000000000000000000000000000000000000000000000815260040161021d90611978565b60405180910390fd5b8160008110158015610239575060025481105b610278576040517f08c379a000000000000000000000000000000000000000000000000000000000815260040161026f906119e4565b60405180910390fd5b6003600082815260200190815260200160002060080160009054906101000a900460ff16156102dc576040517f08c379a00000000000000000000000000000000000000000000000000000000081526004016102d390611a50565b60405180910390fd5b60016003600085815260200190815260200160002060080160006101000a81548160ff021916908315150217905550505050565b600081106103a857600160009054906101000a900473ffffffffffffffffffffffffffffffffffffffff1673ffffffffffffffffffffffffffffffffffffffff166340c10f1933836040518363ffffffff1660e01b8152600401610375929190611a8e565b600060405180830381600087803b15801561038f57600080fd5b505af11580156103a3573d6000803e3d6000fd5b505050505b600060036000600254815260200190815260200160002090506002548160000181905550338160010160006101000a81548173ffffffffffffffffffffffffffffffffffffffff021916908373ffffffffffffffffffffffffffffffffffffffff160217905550828160020190816104209190611cc3565b50600081600301819055504281600501819055506000816006018190555081816007018190555060008160080160006101000a81548160ff0219169083151502179055506002600081548092919061047790611dc4565b9190505550505050565b8160008110158015610494575060025481105b6104d3576040517f08c379a00000000000000000000000000000000000000000000000000000000081526004016104ca906119e4565b60405180910390fd5b6003600082815260200190815260200160002060080160009054906101000a900460ff1615610537576040517f08c379a000000000000000000000000000000000000000000000000000000000815260040161052e90611a50565b60405180910390fd5b600082101580156105605750600360008481526020019081526020016000206004018054905082105b61059f576040517f08c379a000000000000000000000000000000000000000000000000000000000815260040161059690611e58565b60405180910390fd5b60006003600085815260200190815260200160002060040183815481106105c9576105c8611e78565b5b906000526020600020906005020190508060040160009054906101000a900460ff161561062b576040517f08c379a000000000000000000000000000000000000000000000000000000000815260040161062290611ef3565b60405180910390fd5b3373ffffffffffffffffffffffffffffffffffffffff168160010160009054906101000a900473ffffffffffffffffffffffffffffffffffffffff1673ffffffffffffffffffffffffffffffffffffffff16146106bd576040517f08c379a00000000000000000000000000000000000000000000000000000000081526004016106b490611f85565b60405180910390fd5b60018160040160006101000a81548160ff02191690831515021790555050505050565b6106e861123c565b81600081101580156106fb575060025481105b61073a576040517f08c379a0000000000000000000000000000000000000000000000000000000008152600401610731906119e4565b60405180910390fd5b6003600082815260200190815260200160002060080160009054906101000a900460ff161561079e576040517f08c379a000000000000000000000000000000000000000000000000000000000815260040161079590611a50565b60405180910390fd5b6107a78361120d565b60006003600085815260200190815260200160002060405180610120016040529081600082015481526020016001820160009054906101000a900473ffffffffffffffffffffffffffffffffffffffff1673ffffffffffffffffffffffffffffffffffffffff1673ffffffffffffffffffffffffffffffffffffffff16815260200160028201805461083890611ae6565b80601f016020809104026020016040519081016040528092919081815260200182805461086490611ae6565b80156108b15780601f10610886576101008083540402835291602001916108b1565b820191906000526020600020905b81548152906001019060200180831161089457829003601f168201915b505050505081526020016003820154815260200160048201805480602002602001604051908101604052809291908181526020016000905b82821015610a3257838290600052602060002090600502016040518060a0016040529081600082015481526020016001820160009054906101000a900473ffffffffffffffffffffffffffffffffffffffff1673ffffffffffffffffffffffffffffffffffffffff1673ffffffffffffffffffffffffffffffffffffffff1681526020016002820154815260200160038201805461098690611ae6565b80601f01602080910402602001604051908101604052809291908181526020018280546109b290611ae6565b80156109ff5780601f106109d4576101008083540402835291602001916109ff565b820191906000526020600020905b8154815290600101906020018083116109e257829003601f168201915b505050505081526020016004820160009054906101000a900460ff161515151581525050815260200190600101906108e9565b5050505081526020016005820154815260200160068201548152602001600782015481526020016008820160009054906101000a900460ff161515151581525050905060008160800151905060005b8151811015610b1257818181518110610a9d57610a9c611e78565b5b60200260200101516080015115610aff57818181518110610ac157610ac0611e78565b5b60200260200101610ad06112a0565b8152506001828281518110610ae857610ae7611e78565b5b602002602001015160800190151590811515815250505b8080610b0a90611dc4565b915050610a81565b50819350505050919050565b60008054906101000a900473ffffffffffffffffffffffffffffffffffffffff1673ffffffffffffffffffffffffffffffffffffffff163373ffffffffffffffffffffffffffffffffffffffff1614610bac576040517f08c379a0000000000000000000000000000000000000000000000000000000008152600401610ba390612017565b60405180910390fd5b600160009054906101000a900473ffffffffffffffffffffffffffffffffffffffff1673ffffffffffffffffffffffffffffffffffffffff166355f804b3826040518263ffffffff1660e01b8152600401610c079190612070565b600060405180830381600087803b158015610c2157600080fd5b505af1158015610c35573d6000803e3d6000fd5b5050505050565b8060008110158015610c4f575060025481105b610c8e576040517f08c379a0000000000000000000000000000000000000000000000000000000008152600401610c85906119e4565b60405180910390fd5b6003600082815260200190815260200160002060080160009054906101000a900460ff1615610cf2576040517f08c379a0000000000000000000000000000000000000000000000000000000008152600401610ce990611a50565b60405180910390fd5b60003390506004600084815260200190815260200160002060008273ffffffffffffffffffffffffffffffffffffffff1673ffffffffffffffffffffffffffffffffffffffff16815260200190815260200160002060009054906101000a900460ff16610d94576040517f08c379a0000000000000000000000000000000000000000000000000000000008152600401610d8b906120de565b60405180910390fd5b60006004600085815260200190815260200160002060008373ffffffffffffffffffffffffffffffffffffffff1673ffffffffffffffffffffffffffffffffffffffff16815260200190815260200160002060006101000a81548160ff021916908315150217905550600360008481526020019081526020016000206003016000815480929190610e24906120fe565b9190505550505050565b8160008110158015610e41575060025481105b610e80576040517f08c379a0000000000000000000000000000000000000000000000000000000008152600401610e77906119e4565b60405180910390fd5b6003600082815260200190815260200160002060080160009054906101000a900460ff1615610ee4576040517f08c379a0000000000000000000000000000000000000000000000000000000008152600401610edb90611a50565b60405180910390fd5b600060036000858152602001908152602001600020600401805490509050600360008581526020019081526020016000206004016040518060a001604052808381526020013373ffffffffffffffffffffffffffffffffffffffff1681526020014281526020018581526020016000151581525090806001815401808255809150506001900390600052602060002090600502016000909190919091506000820151816000015560208201518160010160006101000a81548173ffffffffffffffffffffffffffffffffffffffff021916908373ffffffffffffffffffffffffffffffffffffffff160217905550604082015181600201556060820151816003019081610ff19190611cc3565b5060808201518160040160006101000a81548160ff021916908315150217905550505050505050565b806000811015801561102d575060025481105b61106c576040517f08c379a0000000000000000000000000000000000000000000000000000000008152600401611063906119e4565b60405180910390fd5b6003600082815260200190815260200160002060080160009054906101000a900460ff16156110d0576040517f08c379a00000000000000000000000000000000000000000000000000000000081526004016110c790611a50565b60405180910390fd5b60003390506004600084815260200190815260200160002060008273ffffffffffffffffffffffffffffffffffffffff1673ffffffffffffffffffffffffffffffffffffffff16815260200190815260200160002060009054906101000a900460ff1615611173576040517f08c379a000000000000000000000000000000000000000000000000000000000815260040161116a90612173565b60405180910390fd5b60016004600085815260200190815260200160002060008373ffffffffffffffffffffffffffffffffffffffff1673ffffffffffffffffffffffffffffffffffffffff16815260200190815260200160002060006101000a81548160ff02191690831515021790555060036000848152602001908152602001600020600301600081548092919061120390611dc4565b9190505550505050565b60036000828152602001908152602001600020600601600081548092919061123490611dc4565b919050555050565b60405180610120016040528060008152602001600073ffffffffffffffffffffffffffffffffffffffff1681526020016060815260200160008152602001606081526020016000815260200160008152602001600081526020016000151581525090565b6040518060a0016040528060008152602001600073ffffffffffffffffffffffffffffffffffffffff16815260200160008152602001606081526020016000151581525090565b6000604051905090565b600080fd5b600080fd5b6000819050919050565b61130e816112fb565b811461131957600080fd5b50565b60008135905061132b81611305565b92915050565b600060208284031215611347576113466112f1565b5b60006113558482850161131c565b91505092915050565b600080fd5b600080fd5b6000601f19601f8301169050919050565b7f4e487b7100000000000000000000000000000000000000000000000000000000600052604160045260246000fd5b6113b182611368565b810181811067ffffffffffffffff821117156113d0576113cf611379565b5b80604052505050565b60006113e36112e7565b90506113ef82826113a8565b919050565b600067ffffffffffffffff82111561140f5761140e611379565b5b61141882611368565b9050602081019050919050565b82818337600083830152505050565b6000611447611442846113f4565b6113d9565b90508281526020810184848401111561146357611462611363565b5b61146e848285611425565b509392505050565b600082601f83011261148b5761148a61135e565b5b813561149b848260208601611434565b91505092915050565b600080604083850312156114bb576114ba6112f1565b5b600083013567ffffffffffffffff8111156114d9576114d86112f6565b5b6114e585828601611476565b92505060206114f68582860161131c565b9150509250929050565b60008060408385031215611517576115166112f1565b5b60006115258582860161131c565b92505060206115368582860161131c565b9150509250929050565b611549816112fb565b82525050565b600073ffffffffffffffffffffffffffffffffffffffff82169050919050565b600061157a8261154f565b9050919050565b61158a8161156f565b82525050565b600081519050919050565b600082825260208201905092915050565b60005b838110156115ca5780820151818401526020810190506115af565b60008484015250505050565b60006115e182611590565b6115eb818561159b565b93506115fb8185602086016115ac565b61160481611368565b840191505092915050565b600081519050919050565b600082825260208201905092915050565b6000819050602082019050919050565b60008115159050919050565b6116508161163b565b82525050565b600060a08301600083015161166e6000860182611540565b5060208301516116816020860182611581565b5060408301516116946040860182611540565b50606083015184820360608601526116ac82826115d6565b91505060808301516116c16080860182611647565b508091505092915050565b60006116d88383611656565b905092915050565b6000602082019050919050565b60006116f88261160f565b611702818561161a565b9350836020820285016117148561162b565b8060005b85811015611750578484038952815161173185826116cc565b945061173c836116e0565b925060208a01995050600181019050611718565b50829750879550505050505092915050565b60006101208301600083015161177b6000860182611540565b50602083015161178e6020860182611581565b50604083015184820360408601526117a682826115d6565b91505060608301516117bb6060860182611540565b50608083015184820360808601526117d382826116ed565b91505060a08301516117e860a0860182611540565b5060c08301516117fb60c0860182611540565b5060e083015161180e60e0860182611540565b50610100830151611823610100860182611647565b508091505092915050565b600060208201905081810360008301526118488184611762565b905092915050565b600060208284031215611866576118656112f1565b5b600082013567ffffffffffffffff811115611884576118836112f6565b5b61189084828501611476565b91505092915050565b600080604083850312156118b0576118af6112f1565b5b60006118be8582860161131c565b925050602083013567ffffffffffffffff8111156118df576118de6112f6565b5b6118eb85828601611476565b9150509250929050565b600082825260208201905092915050565b7f6f6e6c79206f776e6572206f6620706f73742063616e20646f2074686973206160008201527f6374696f6e000000000000000000000000000000000000000000000000000000602082015250565b60006119626025836118f5565b915061196d82611906565b604082019050919050565b6000602082019050818103600083015261199181611955565b9050919050565b7f696e76616c696420706f73742069640000000000000000000000000000000000600082015250565b60006119ce600f836118f5565b91506119d982611998565b602082019050919050565b600060208201905081810360008301526119fd816119c1565b9050919050565b7f706f737420686173206265656e2064656c657465640000000000000000000000600082015250565b6000611a3a6015836118f5565b9150611a4582611a04565b602082019050919050565b60006020820190508181036000830152611a6981611a2d565b9050919050565b611a798161156f565b82525050565b611a88816112fb565b82525050565b6000604082019050611aa36000830185611a70565b611ab06020830184611a7f565b9392505050565b7f4e487b7100000000000000000000000000000000000000000000000000000000600052602260045260246000fd5b60006002820490506001821680611afe57607f821691505b602082108103611b1157611b10611ab7565b5b50919050565b60008190508160005260206000209050919050565b60006020601f8301049050919050565b600082821b905092915050565b600060088302611b797fffffffffffffffffffffffffffffffffffffffffffffffffffffffffffffffff82611b3c565b611b838683611b3c565b95508019841693508086168417925050509392505050565b6000819050919050565b6000611bc0611bbb611bb6846112fb565b611b9b565b6112fb565b9050919050565b6000819050919050565b611bda83611ba5565b611bee611be682611bc7565b848454611b49565b825550505050565b600090565b611c03611bf6565b611c0e818484611bd1565b505050565b5b81811015611c3257611c27600082611bfb565b600181019050611c14565b5050565b601f821115611c7757611c4881611b17565b611c5184611b2c565b81016020851015611c60578190505b611c74611c6c85611b2c565b830182611c13565b50505b505050565b600082821c905092915050565b6000611c9a60001984600802611c7c565b1980831691505092915050565b6000611cb38383611c89565b9150826002028217905092915050565b611ccc82611590565b67ffffffffffffffff811115611ce557611ce4611379565b5b611cef8254611ae6565b611cfa828285611c36565b600060209050601f831160018114611d2d5760008415611d1b578287015190505b611d258582611ca7565b865550611d8d565b601f198416611d3b86611b17565b60005b82811015611d6357848901518255600182019150602085019450602081019050611d3e565b86831015611d805784890151611d7c601f891682611c89565b8355505b6001600288020188555050505b505050505050565b7f4e487b7100000000000000000000000000000000000000000000000000000000600052601160045260246000fd5b6000611dcf826112fb565b91507fffffffffffffffffffffffffffffffffffffffffffffffffffffffffffffffff8203611e0157611e00611d95565b5b600182019050919050565b7f696e76616c696420636f6d6d656e742049440000000000000000000000000000600082015250565b6000611e426012836118f5565b9150611e4d82611e0c565b602082019050919050565b60006020820190508181036000830152611e7181611e35565b9050919050565b7f4e487b7100000000000000000000000000000000000000000000000000000000600052603260045260246000fd5b7f636f6d6d656e7420697320616c72656164792064656c65746564000000000000600082015250565b6000611edd601a836118f5565b9150611ee882611ea7565b602082019050919050565b60006020820190508181036000830152611f0c81611ed0565b9050919050565b7f6f6e6c79206f776e6572206f66207468697320636f6d6d656e742063616e206460008201527f656c657465207468697320636f6d6d656e740000000000000000000000000000602082015250565b6000611f6f6032836118f5565b9150611f7a82611f13565b604082019050919050565b60006020820190508181036000830152611f9e81611f62565b9050919050565b7f6f6e6c79206f776e6572206f66207468697320636f6e74726163742063616e2060008201527f646f207468697320616374696f6e000000000000000000000000000000000000602082015250565b6000612001602e836118f5565b915061200c82611fa5565b604082019050919050565b6000602082019050818103600083015261203081611ff4565b9050919050565b600061204282611590565b61204c81856118f5565b935061205c8185602086016115ac565b61206581611368565b840191505092915050565b6000602082019050818103600083015261208a8184612037565b905092915050565b7f796f752068617665206e6f74206c696b6564207468697320706f737400000000600082015250565b60006120c8601c836118f5565b91506120d382612092565b602082019050919050565b600060208201905081810360008301526120f7816120bb565b9050919050565b6000612109826112fb565b91506000820361211c5761211b611d95565b5b600182039050919050565b7f796f75206861766520616c7265616479206c696b6564207468697320706f7374600082015250565b600061215d6020836118f5565b915061216882612127565b602082019050919050565b6000602082019050818103600083015261218c81612150565b905091905056fea26469706673582212204e555d5082d2d5b24a607bb61e50692a61542a7a1f23b4dce83071519c721c2364736f6c6343000813003360806040523480156200001157600080fd5b50604051620030c5380380620030c58339818101604052810190620000379190620002b6565b6040518060400160405280601281526020017f44656669536f6369616c4d656469614e465400000000000000000000000000008152506040518060400160405280600381526020017f44534d00000000000000000000000000000000000000000000000000000000008152508160009081620000b4919062000552565b508060019081620000c6919062000552565b5050508060069081620000da919062000552565b5033600760006101000a81548173ffffffffffffffffffffffffffffffffffffffff021916908373ffffffffffffffffffffffffffffffffffffffff1602179055505062000639565b6000604051905090565b600080fd5b600080fd5b600080fd5b600080fd5b6000601f19601f8301169050919050565b7f4e487b7100000000000000000000000000000000000000000000000000000000600052604160045260246000fd5b6200018c8262000141565b810181811067ffffffffffffffff82111715620001ae57620001ad62000152565b5b80604052505050565b6000620001c362000123565b9050620001d1828262000181565b919050565b600067ffffffffffffffff821115620001f457620001f362000152565b5b620001ff8262000141565b9050602081019050919050565b60005b838110156200022c5780820151818401526020810190506200020f565b60008484015250505050565b60006200024f6200024984620001d6565b620001b7565b9050828152602081018484840111156200026e576200026d6200013c565b5b6200027b8482856200020c565b509392505050565b600082601f8301126200029b576200029a62000137565b5b8151620002ad84826020860162000238565b91505092915050565b600060208284031215620002cf57620002ce6200012d565b5b600082015167ffffffffffffffff811115620002f057620002ef62000132565b5b620002fe8482850162000283565b91505092915050565b600081519050919050565b7f4e487b7100000000000000000000000000000000000000000000000000000000600052602260045260246000fd5b600060028204905060018216806200035a57607f821691505b60208210810362000370576200036f62000312565b5b50919050565b60008190508160005260206000209050919050565b60006020601f8301049050919050565b600082821b905092915050565b600060088302620003da7fffffffffffffffffffffffffffffffffffffffffffffffffffffffffffffffff826200039b565b620003e686836200039b565b95508019841693508086168417925050509392505050565b6000819050919050565b6000819050919050565b6000620004336200042d6200042784620003fe565b62000408565b620003fe565b9050919050565b6000819050919050565b6200044f8362000412565b620004676200045e826200043a565b848454620003a8565b825550505050565b600090565b6200047e6200046f565b6200048b81848462000444565b505050565b5b81811015620004b357620004a760008262000474565b60018101905062000491565b5050565b601f8211156200050257620004cc8162000376565b620004d7846200038b565b81016020851015620004e7578190505b620004ff620004f6856200038b565b83018262000490565b50505b505050565b600082821c905092915050565b6000620005276000198460080262000507565b1980831691505092915050565b600062000542838362000514565b9150826002028217905092915050565b6200055d8262000307565b67ffffffffffffffff81111562000579576200057862000152565b5b62000585825462000341565b62000592828285620004b7565b600060209050601f831160018114620005ca5760008415620005b5578287015190505b620005c1858262000534565b86555062000631565b601f198416620005da8662000376565b60005b828110156200060457848901518255600182019150602085019450602081019050620005dd565b8683101562000624578489015162000620601f89168262000514565b8355505b6001600288020188555050505b505050505050565b612a7c80620006496000396000f3fe608060405234801561001057600080fd5b50600436106100f55760003560e01c806355f804b311610097578063a22cb46511610066578063a22cb46514610282578063b88d4fde1461029e578063c87b56dd146102ba578063e985e9c5146102ea576100f5565b806355f804b3146101e85780636352211e1461020457806370a082311461023457806395d89b4114610264576100f5565b8063095ea7b3116100d3578063095ea7b31461017857806323b872dd1461019457806340c10f19146101b057806342842e0e146101cc576100f5565b806301ffc9a7146100fa57806306fdde031461012a578063081812fc14610148575b600080fd5b610114600480360381019061010f91906119a4565b61031a565b60405161012191906119ec565b60405180910390f35b6101326103fc565b60405161013f9190611a97565b60405180910390f35b610162600480360381019061015d9190611aef565b61048e565b60405161016f9190611b5d565b60405180910390f35b610192600480360381019061018d9190611ba4565b6104d4565b005b6101ae60048036038101906101a99190611be4565b6105eb565b005b6101ca60048036038101906101c59190611ba4565b61064b565b005b6101e660048036038101906101e19190611be4565b6106e9565b005b61020260048036038101906101fd9190611d6c565b610709565b005b61021e60048036038101906102199190611aef565b6107ac565b60405161022b9190611b5d565b60405180910390f35b61024e60048036038101906102499190611db5565b610832565b60405161025b9190611df1565b60405180910390f35b61026c6108e9565b6040516102799190611a97565b60405180910390f35b61029c60048036038101906102979190611e38565b61097b565b005b6102b860048036038101906102b39190611f19565b610991565b005b6102d460048036038101906102cf9190611aef565b6109f3565b6040516102e19190611a97565b60405180910390f35b61030460048036038101906102ff9190611f9c565b610a5b565b60405161031191906119ec565b60405180910390f35b60007f80ac58cd000000000000000000000000000000000000000000000000000000007bffffffffffffffffffffffffffffffffffffffffffffffffffffffff1916827bffffffffffffffffffffffffffffffffffffffffffffffffffffffff191614806103e557507f5b5e139f000000000000000000000000000000000000000000000000000000007bffffffffffffffffffffffffffffffffffffffffffffffffffffffff1916827bffffffffffffffffffffffffffffffffffffffffffffffffffffffff1916145b806103f557506103f482610aef565b5b9050919050565b60606000805461040b9061200b565b80601f01602080910402602001604051908101604052809291908181526020018280546104379061200b565b80156104845780601f1061045957610100808354040283529160200191610484565b820191906000526020600020905b81548152906001019060200180831161046757829003601f168201915b5050505050905090565b600061049982610b59565b6004600083815260200190815260200160002060009054906101000a900473ffffffffffffffffffffffffffffffffffffffff169050919050565b60006104df826107ac565b90508073ffffffffffffffffffffffffffffffffffffffff168373ffffffffffffffffffffffffffffffffffffffff160361054f576040517f08c379a0000000000000000000000000000000000000000000000000000000008152600401610546906120ae565b60405180910390fd5b8073ffffffffffffffffffffffffffffffffffffffff1661056e610ba4565b73ffffffffffffffffffffffffffffffffffffffff16148061059d575061059c81610597610ba4565b610a5b565b5b6105dc576040517f08c379a00000000000000000000000000000000000000000000000000000000081526004016105d390612140565b60405180910390fd5b6105e68383610bac565b505050565b6105fc6105f6610ba4565b82610c65565b61063b576040517f08c379a0000000000000000000000000000000000000000000000000000000008152600401610632906121d2565b60405180910390fd5b610646838383610cfa565b505050565b3373ffffffffffffffffffffffffffffffffffffffff16600760009054906101000a900473ffffffffffffffffffffffffffffffffffffffff1673ffffffffffffffffffffffffffffffffffffffff16146106db576040517f08c379a00000000000000000000000000000000000000000000000000000000081526004016106d29061223e565b60405180910390fd5b6106e58282610ff3565b5050565b61070483838360405180602001604052806000815250610991565b505050565b3373ffffffffffffffffffffffffffffffffffffffff16600760009054906101000a900473ffffffffffffffffffffffffffffffffffffffff1673ffffffffffffffffffffffffffffffffffffffff1614610799576040517f08c379a00000000000000000000000000000000000000000000000000000000081526004016107909061223e565b60405180910390fd5b80600690816107a8919061240a565b5050565b6000806107b883611011565b9050600073ffffffffffffffffffffffffffffffffffffffff168173ffffffffffffffffffffffffffffffffffffffff1603610829576040517f08c379a000000000000000000000000000000000000000000000000000000000815260040161082090612528565b60405180910390fd5b80915050919050565b60008073ffffffffffffffffffffffffffffffffffffffff168273ffffffffffffffffffffffffffffffffffffffff16036108a2576040517f08c379a0000000000000000000000000000000000000000000000000000000008152600401610899906125ba565b60405180910390fd5b600360008373ffffffffffffffffffffffffffffffffffffffff1673ffffffffffffffffffffffffffffffffffffffff168152602001908152602001600020549050919050565b6060600180546108f89061200b565b80601f01602080910402602001604051908101604052809291908181526020018280546109249061200b565b80156109715780601f1061094657610100808354040283529160200191610971565b820191906000526020600020905b81548152906001019060200180831161095457829003601f168201915b5050505050905090565b61098d610986610ba4565b838361104e565b5050565b6109a261099c610ba4565b83610c65565b6109e1576040517f08c379a00000000000000000000000000000000000000000000000000000000081526004016109d8906121d2565b60405180910390fd5b6109ed848484846111ba565b50505050565b60606109fe82610b59565b6000610a08611216565b90506000815111610a285760405180602001604052806000815250610a53565b80610a32846112a8565b604051602001610a43929190612616565b6040516020818303038152906040525b915050919050565b6000600560008473ffffffffffffffffffffffffffffffffffffffff1673ffffffffffffffffffffffffffffffffffffffff16815260200190815260200160002060008373ffffffffffffffffffffffffffffffffffffffff1673ffffffffffffffffffffffffffffffffffffffff16815260200190815260200160002060009054906101000a900460ff16905092915050565b60007f01ffc9a7000000000000000000000000000000000000000000000000000000007bffffffffffffffffffffffffffffffffffffffffffffffffffffffff1916827bffffffffffffffffffffffffffffffffffffffffffffffffffffffff1916149050919050565b610b6281611376565b610ba1576040517f08c379a0000000000000000000000000000000000000000000000000000000008152600401610b9890612528565b60405180910390fd5b50565b600033905090565b816004600083815260200190815260200160002060006101000a81548173ffffffffffffffffffffffffffffffffffffffff021916908373ffffffffffffffffffffffffffffffffffffffff160217905550808273ffffffffffffffffffffffffffffffffffffffff16610c1f836107ac565b73ffffffffffffffffffffffffffffffffffffffff167f8c5be1e5ebec7d5bd14f71427d1e84f3dd0314c0f7b2291e5b200ac8c7c3b92560405160405180910390a45050565b600080610c71836107ac565b90508073ffffffffffffffffffffffffffffffffffffffff168473ffffffffffffffffffffffffffffffffffffffff161480610cb35750610cb28185610a5b565b5b80610cf157508373ffffffffffffffffffffffffffffffffffffffff16610cd98461048e565b73ffffffffffffffffffffffffffffffffffffffff16145b91505092915050565b8273ffffffffffffffffffffffffffffffffffffffff16610d1a826107ac565b73ffffffffffffffffffffffffffffffffffffffff1614610d70576040517f08c379a0000000000000000000000000000000000000000000000000000000008152600401610d67906126ac565b60405180910390fd5b600073ffffffffffffffffffffffffffffffffffffffff168273ffffffffffffffffffffffffffffffffffffffff1603610ddf576040517f08c379a0000000000000000000000000000000000000000000000000000000008152600401610dd69061273e565b60405180910390fd5b610dec83838360016113b7565b8273ffffffffffffffffffffffffffffffffffffffff16610e0c826107ac565b73ffffffffffffffffffffffffffffffffffffffff1614610e62576040517f08c379a0000000000000000000000000000000000000000000000000000000008152600401610e59906126ac565b60405180910390fd5b6004600082815260200190815260200160002060006101000a81549073ffffffffffffffffffffffffffffffffffffffff02191690556001600360008573ffffffffffffffffffffffffffffffffffffffff1673ffffffffffffffffffffffffffffffffffffffff168152602001908152602001600020600082825403925050819055506001600360008473ffffffffffffffffffffffffffffffffffffffff1673ffffffffffffffffffffffffffffffffffffffff16815260200190815260200160002060008282540192505081905550816002600083815260200190815260200160002060006101000a81548173ffffffffffffffffffffffffffffffffffffffff021916908373ffffffffffffffffffffffffffffffffffffffff160217905550808273ffffffffffffffffffffffffffffffffffffffff168473ffffffffffffffffffffffffffffffffffffffff167fddf252ad1be2c89b69c2b068fc378daa952ba7f163c4a11628f55a4df523b3ef60405160405180910390a4610fee83838360016113bd565b505050565b61100d8282604051806020016040528060008152506113c3565b5050565b60006002600083815260200190815260200160002060009054906101000a900473ffffffffffffffffffffffffffffffffffffffff169050919050565b8173ffffffffffffffffffffffffffffffffffffffff168373ffffffffffffffffffffffffffffffffffffffff16036110bc576040517f08c379a00000000000000000000000000000000000000000000000000000000081526004016110b3906127aa565b60405180910390fd5b80600560008573ffffffffffffffffffffffffffffffffffffffff1673ffffffffffffffffffffffffffffffffffffffff16815260200190815260200160002060008473ffffffffffffffffffffffffffffffffffffffff1673ffffffffffffffffffffffffffffffffffffffff16815260200190815260200160002060006101000a81548160ff0219169083151502179055508173ffffffffffffffffffffffffffffffffffffffff168373ffffffffffffffffffffffffffffffffffffffff167f17307eab39ab6107e8899845ad3d59bd9653f200f220920489ca2b5937696c31836040516111ad91906119ec565b60405180910390a3505050565b6111c5848484610cfa565b6111d18484848461141e565b611210576040517f08c379a00000000000000000000000000000000000000000000000000000000081526004016112079061283c565b60405180910390fd5b50505050565b6060600680546112259061200b565b80601f01602080910402602001604051908101604052809291908181526020018280546112519061200b565b801561129e5780601f106112735761010080835404028352916020019161129e565b820191906000526020600020905b81548152906001019060200180831161128157829003601f168201915b5050505050905090565b6060600060016112b7846115a5565b01905060008167ffffffffffffffff8111156112d6576112d5611c41565b5b6040519080825280601f01601f1916602001820160405280156113085781602001600182028036833780820191505090505b509050600082602001820190505b60011561136b578080600190039150507f3031323334353637383961626364656600000000000000000000000000000000600a86061a8153600a858161135f5761135e61285c565b5b04945060008503611316575b819350505050919050565b60008073ffffffffffffffffffffffffffffffffffffffff1661139883611011565b73ffffffffffffffffffffffffffffffffffffffff1614159050919050565b50505050565b50505050565b6113cd83836116f8565b6113da600084848461141e565b611419576040517f08c379a00000000000000000000000000000000000000000000000000000000081526004016114109061283c565b60405180910390fd5b505050565b600061143f8473ffffffffffffffffffffffffffffffffffffffff16611915565b15611598578373ffffffffffffffffffffffffffffffffffffffff1663150b7a02611468610ba4565b8786866040518563ffffffff1660e01b815260040161148a94939291906128e0565b6020604051808303816000875af19250505080156114c657506040513d601f19601f820116820180604052508101906114c39190612941565b60015b611548573d80600081146114f6576040519150601f19603f3d011682016040523d82523d6000602084013e6114fb565b606091505b506000815103611540576040517f08c379a00000000000000000000000000000000000000000000000000000000081526004016115379061283c565b60405180910390fd5b805181602001fd5b63150b7a0260e01b7bffffffffffffffffffffffffffffffffffffffffffffffffffffffff1916817bffffffffffffffffffffffffffffffffffffffffffffffffffffffff19161491505061159d565b600190505b949350505050565b600080600090507a184f03e93ff9f4daa797ed6e38ed64bf6a1f0100000000000000008310611603577a184f03e93ff9f4daa797ed6e38ed64bf6a1f01000000000000000083816115f9576115f861285c565b5b0492506040810190505b6d04ee2d6d415b85acef81000000008310611640576d04ee2d6d415b85acef810000000083816116365761163561285c565b5b0492506020810190505b662386f26fc10000831061166f57662386f26fc1000083816116655761166461285c565b5b0492506010810190505b6305f5e1008310611698576305f5e100838161168e5761168d61285c565b5b0492506008810190505b61271083106116bd5761271083816116b3576116b261285c565b5b0492506004810190505b606483106116e057606483816116d6576116d561285c565b5b0492506002810190505b600a83106116ef576001810190505b80915050919050565b600073ffffffffffffffffffffffffffffffffffffffff168273ffffffffffffffffffffffffffffffffffffffff1603611767576040517f08c379a000000000000000000000000000000000000000000000000000000000815260040161175e906129ba565b60405180910390fd5b61177081611376565b156117b0576040517f08c379a00000000000000000000000000000000000000000000000000000000081526004016117a790612a26565b60405180910390fd5b6117be6000838360016113b7565b6117c781611376565b15611807576040517f08c379a00000000000000000000000000000000000000000000000000000000081526004016117fe90612a26565b60405180910390fd5b6001600360008473ffffffffffffffffffffffffffffffffffffffff1673ffffffffffffffffffffffffffffffffffffffff16815260200190815260200160002060008282540192505081905550816002600083815260200190815260200160002060006101000a81548173ffffffffffffffffffffffffffffffffffffffff021916908373ffffffffffffffffffffffffffffffffffffffff160217905550808273ffffffffffffffffffffffffffffffffffffffff16600073ffffffffffffffffffffffffffffffffffffffff167fddf252ad1be2c89b69c2b068fc378daa952ba7f163c4a11628f55a4df523b3ef60405160405180910390a46119116000838360016113bd565b5050565b6000808273ffffffffffffffffffffffffffffffffffffffff163b119050919050565b6000604051905090565b600080fd5b600080fd5b60007fffffffff0000000000000000000000000000000000000000000000000000000082169050919050565b6119818161194c565b811461198c57600080fd5b50565b60008135905061199e81611978565b92915050565b6000602082840312156119ba576119b9611942565b5b60006119c88482850161198f565b91505092915050565b60008115159050919050565b6119e6816119d1565b82525050565b6000602082019050611a0160008301846119dd565b92915050565b600081519050919050565b600082825260208201905092915050565b60005b83811015611a41578082015181840152602081019050611a26565b60008484015250505050565b6000601f19601f8301169050919050565b6000611a6982611a07565b611a738185611a12565b9350611a83818560208601611a23565b611a8c81611a4d565b840191505092915050565b60006020820190508181036000830152611ab18184611a5e565b905092915050565b6000819050919050565b611acc81611ab9565b8114611ad757600080fd5b50565b600081359050611ae981611ac3565b92915050565b600060208284031215611b0557611b04611942565b5b6000611b1384828501611ada565b91505092915050565b600073ffffffffffffffffffffffffffffffffffffffff82169050919050565b6000611b4782611b1c565b9050919050565b611b5781611b3c565b82525050565b6000602082019050611b726000830184611b4e565b92915050565b611b8181611b3c565b8114611b8c57600080fd5b50565b600081359050611b9e81611b78565b92915050565b60008060408385031215611bbb57611bba611942565b5b6000611bc985828601611b8f565b9250506020611bda85828601611ada565b9150509250929050565b600080600060608486031215611bfd57611bfc611942565b5b6000611c0b86828701611b8f565b9350506020611c1c86828701611b8f565b9250506040611c2d86828701611ada565b9150509250925092565b600080fd5b600080fd5b7f4e487b7100000000000000000000000000000000000000000000000000000000600052604160045260246000fd5b611c7982611a4d565b810181811067ffffffffffffffff82111715611c9857611c97611c41565b5b80604052505050565b6000611cab611938565b9050611cb78282611c70565b919050565b600067ffffffffffffffff821115611cd757611cd6611c41565b5b611ce082611a4d565b9050602081019050919050565b82818337600083830152505050565b6000611d0f611d0a84611cbc565b611ca1565b905082815260208101848484011115611d2b57611d2a611c3c565b5b611d36848285611ced565b509392505050565b600082601f830112611d5357611d52611c37565b5b8135611d63848260208601611cfc565b91505092915050565b600060208284031215611d8257611d81611942565b5b600082013567ffffffffffffffff811115611da057611d9f611947565b5b611dac84828501611d3e565b91505092915050565b600060208284031215611dcb57611dca611942565b5b6000611dd984828501611b8f565b91505092915050565b611deb81611ab9565b82525050565b6000602082019050611e066000830184611de2565b92915050565b611e15816119d1565b8114611e2057600080fd5b50565b600081359050611e3281611e0c565b92915050565b60008060408385031215611e4f57611e4e611942565b5b6000611e5d85828601611b8f565b9250506020611e6e85828601611e23565b9150509250929050565b600067ffffffffffffffff821115611e9357611e92611c41565b5b611e9c82611a4d565b9050602081019050919050565b6000611ebc611eb784611e78565b611ca1565b905082815260208101848484011115611ed857611ed7611c3c565b5b611ee3848285611ced565b509392505050565b600082601f830112611f0057611eff611c37565b5b8135611f10848260208601611ea9565b91505092915050565b60008060008060808587031215611f3357611f32611942565b5b6000611f4187828801611b8f565b9450506020611f5287828801611b8f565b9350506040611f6387828801611ada565b925050606085013567ffffffffffffffff811115611f8457611f83611947565b5b611f9087828801611eeb565b91505092959194509250565b60008060408385031215611fb357611fb2611942565b5b6000611fc185828601611b8f565b9250506020611fd285828601611b8f565b9150509250929050565b7f4e487b7100000000000000000000000000000000000000000000000000000000600052602260045260246000fd5b6000600282049050600182168061202357607f821691505b60208210810361203657612035611fdc565b5b50919050565b7f4552433732313a20617070726f76616c20746f2063757272656e74206f776e6560008201527f7200000000000000000000000000000000000000000000000000000000000000602082015250565b6000612098602183611a12565b91506120a38261203c565b604082019050919050565b600060208201905081810360008301526120c78161208b565b9050919050565b7f4552433732313a20617070726f76652063616c6c6572206973206e6f7420746f60008201527f6b656e206f776e6572206f7220617070726f76656420666f7220616c6c000000602082015250565b600061212a603d83611a12565b9150612135826120ce565b604082019050919050565b600060208201905081810360008301526121598161211d565b9050919050565b7f4552433732313a2063616c6c6572206973206e6f7420746f6b656e206f776e6560008201527f72206f7220617070726f76656400000000000000000000000000000000000000602082015250565b60006121bc602d83611a12565b91506121c782612160565b604082019050919050565b600060208201905081810360008301526121eb816121af565b9050919050565b7f6f776e6572206f6e6c7900000000000000000000000000000000000000000000600082015250565b6000612228600a83611a12565b9150612233826121f2565b602082019050919050565b600060208201905081810360008301526122578161221b565b9050919050565b60008190508160005260206000209050919050565b60006020601f8301049050919050565b600082821b905092915050565b6000600883026122c07fffffffffffffffffffffffffffffffffffffffffffffffffffffffffffffffff82612283565b6122ca8683612283565b95508019841693508086168417925050509392505050565b6000819050919050565b60006123076123026122fd84611ab9565b6122e2565b611ab9565b9050919050565b6000819050919050565b612321836122ec565b61233561232d8261230e565b848454612290565b825550505050565b600090565b61234a61233d565b612355818484612318565b505050565b5b818110156123795761236e600082612342565b60018101905061235b565b5050565b601f8211156123be5761238f8161225e565b61239884612273565b810160208510156123a7578190505b6123bb6123b385612273565b83018261235a565b50505b505050565b600082821c905092915050565b60006123e1600019846008026123c3565b1980831691505092915050565b60006123fa83836123d0565b9150826002028217905092915050565b61241382611a07565b67ffffffffffffffff81111561242c5761242b611c41565b5b612436825461200b565b61244182828561237d565b600060209050601f8311600181146124745760008415612462578287015190505b61246c85826123ee565b8655506124d4565b601f1984166124828661225e565b60005b828110156124aa57848901518255600182019150602085019450602081019050612485565b868310156124c757848901516124c3601f8916826123d0565b8355505b6001600288020188555050505b505050505050565b7f4552433732313a20696e76616c696420746f6b656e2049440000000000000000600082015250565b6000612512601883611a12565b915061251d826124dc565b602082019050919050565b6000602082019050818103600083015261254181612505565b9050919050565b7f4552433732313a2061646472657373207a65726f206973206e6f74206120766160008201527f6c6964206f776e65720000000000000000000000000000000000000000000000602082015250565b60006125a4602983611a12565b91506125af82612548565b604082019050919050565b600060208201905081810360008301526125d381612597565b9050919050565b600081905092915050565b60006125f082611a07565b6125fa81856125da565b935061260a818560208601611a23565b80840191505092915050565b600061262282856125e5565b915061262e82846125e5565b91508190509392505050565b7f4552433732313a207472616e736665722066726f6d20696e636f72726563742060008201527f6f776e6572000000000000000000000000000000000000000000000000000000602082015250565b6000612696602583611a12565b91506126a18261263a565b604082019050919050565b600060208201905081810360008301526126c581612689565b9050919050565b7f4552433732313a207472616e7366657220746f20746865207a65726f2061646460008201527f7265737300000000000000000000000000000000000000000000000000000000602082015250565b6000612728602483611a12565b9150612733826126cc565b604082019050919050565b600060208201905081810360008301526127578161271b565b9050919050565b7f4552433732313a20617070726f766520746f2063616c6c657200000000000000600082015250565b6000612794601983611a12565b915061279f8261275e565b602082019050919050565b600060208201905081810360008301526127c381612787565b9050919050565b7f4552433732313a207472616e7366657220746f206e6f6e20455243373231526560008201527f63656976657220696d706c656d656e7465720000000000000000000000000000602082015250565b6000612826603283611a12565b9150612831826127ca565b604082019050919050565b6000602082019050818103600083015261285581612819565b9050919050565b7f4e487b7100000000000000000000000000000000000000000000000000000000600052601260045260246000fd5b600081519050919050565b600082825260208201905092915050565b60006128b28261288b565b6128bc8185612896565b93506128cc818560208601611a23565b6128d581611a4d565b840191505092915050565b60006080820190506128f56000830187611b4e565b6129026020830186611b4e565b61290f6040830185611de2565b818103606083015261292181846128a7565b905095945050505050565b60008151905061293b81611978565b92915050565b60006020828403121561295757612956611942565b5b60006129658482850161292c565b91505092915050565b7f4552433732313a206d696e7420746f20746865207a65726f2061646472657373600082015250565b60006129a4602083611a12565b91506129af8261296e565b602082019050919050565b600060208201905081810360008301526129d381612997565b9050919050565b7f4552433732313a20746f6b656e20616c7265616479206d696e74656400000000600082015250565b6000612a10601c83611a12565b9150612a1b826129da565b602082019050919050565b60006020820190508181036000830152612a3f81612a03565b905091905056fea264697066735822122025309a195e38876cb11836f63b4c04ed9962b0fca14b1e6b693cd0c0a285b05664736f6c63430008130033",
  "immutableReferences": {},
  "source": "pragma solidity ^0.8.0;\n\nimport \"./MediaNFT.sol\";\n\ncontract Post {\n\tstruct Comment {\n\t\tuint256 id;\n\t\taddress owner;\n\t\tuint256 timestamp;\n\t\tstring text;\n\t\tbool deleted;\n\t}\n\n\tstruct Post {\n\t\tuint256 id;\n\t\taddress owner;\n\t\tstring caption;\n\t\tuint256 likes;\n\t\tComment[] comments;\n\t\tuint256 timestamp;\n\t\tuint256 viewCount;\n\t\tuint256 mediaNFTID; // value of -1 dictates no media\n\t\tbool deleted;\n\t}\n\n\taddress owner;\n\tMediaNFT nftContract;\n\tuint256 nextPostID = 0;\n\tmapping(uint256 => Post) idToPost;\n\t// ensures that for each post, there are no duplicate likes for this account (i.e an account cannot like a post twice)\n\tmapping(uint256 => mapping(address => bool)) hasLiked; \n\n\n\tmodifier postOwnerOnly(uint256 id) {\n\t\trequire(msg.sender == idToPost[id].owner, \"only owner of post can do this action\");\n\t\t_;\n\t}\n\n\t// a valid post is defined as a non-deleted post with a valid id\n\tmodifier validPost(uint256 id) { \n\t\trequire (id >= 0 && id < nextPostID, \"invalid post id\");\n\t\trequire(!idToPost[id].deleted, \"post has been deleted\");\n\t\t_;\n\t}\n\n\tmodifier contractOwnerOnly() {\n\t\trequire(msg.sender == owner, \"only owner of this contract can do this action\");\n\t\t_;\n\t}\n\n\tconstructor (string memory baseURI){\n\t\tnftContract = new MediaNFT(baseURI);\n\t\towner = msg.sender;\n\t}\n\n\tfunction incrViewCount(uint256 id) private {\n\t\tidToPost[id].viewCount++;\n\t}\n\n\tfunction getPost(uint256 id) public validPost(id) returns (Post memory)  {\n\t\tincrViewCount(id);\n\t\tPost memory post = idToPost[id];\n\t\t// filter out deleted comments\n\t\tComment[] memory comments = post.comments;\n\t\tfor (uint256 i = 0; i < comments.length; i++) {\n\t\t\tif (comments[i].deleted) {\n\t\t\t\tdelete comments[i];\n\t\t\t\tcomments[i].deleted = true;\n\t\t\t}\n\t\t}\n\t\treturn post;\n\t}\n\n\tfunction createPost(string memory caption, uint256 mediaNFTID) public {\n\t\t// input of negative media nft ID indicates this post has no media\n\t\tif (mediaNFTID >= 0) {\n\t\t\t// mint nft to user\n\t\t\tnftContract.mint(msg.sender, mediaNFTID);\n\t\t}\n\t\tPost storage post = idToPost[nextPostID];\n\n\t\tpost.id = nextPostID;\n\t\tpost.owner = msg.sender;\n\t\tpost.caption = caption;\n\t\tpost.likes = 0;\n\t\tpost.timestamp = block.timestamp;\n\t\tpost.viewCount = 0;\n\t\tpost.mediaNFTID = mediaNFTID;\n\t\tpost.deleted = false; \n\t\t\n\t\tnextPostID++;\n\t}\n\n\tfunction like(uint256 id) public validPost(id) {\n\t\taddress liker = msg.sender;\n\t\trequire(!hasLiked[id][liker], \"you have already liked this post\");\n\t\thasLiked[id][liker] = true;\n\t\tidToPost[id].likes++;\n\t}\n\n\tfunction unlike(uint256 id) public validPost(id) {\n\t\taddress liker = msg.sender;\n\t\trequire(hasLiked[id][liker], \"you have not liked this post\");\n\t\thasLiked[id][liker] = false;\n\t\tidToPost[id].likes--;\n\t}\n\n\tfunction addComment(uint256 id, string memory text) public validPost(id) {\n\t\tuint256 commentID = idToPost[id].comments.length;\n\t\tidToPost[id].comments.push(Comment(commentID, msg.sender, block.timestamp, text, false));\n\t}\n\n\tfunction deleteComment(uint256 postID, uint256 commentID) public validPost(postID) {\n\t\trequire(commentID >= 0 && commentID < idToPost[postID].comments.length, \"invalid comment ID\");\n\t\tComment storage comment = idToPost[postID].comments[commentID];\n\t\trequire(!comment.deleted, \"comment is already deleted\");\n\t\trequire(comment.owner == msg.sender, \"only owner of this comment can delete this comment\");\n\t\tcomment.deleted = true;\n\t}\n\n\tfunction deletePost(uint256 id) public postOwnerOnly(id) validPost(id) {\n\t\tidToPost[id].deleted = true;\n\t}\n\n\tfunction setBaseURI(string memory baseURI) public contractOwnerOnly {\n\t\tnftContract.setBaseURI(baseURI);\n\t}\n}\n\n",
  "sourcePath": "/Users/cy/git/sch/is4302/DefiSocialMedia/contracts/Post.sol",
  "compiler": {
    "name": "solc",
    "version": "0.8.19+commit.7dd6d404.Emscripten.clang"
  },
  "schemaVersion": "3.4.11",
  "updatedAt": "2023-03-20T09:55:34.836Z",
  "devdoc": {
    "kind": "dev",
    "methods": {},
    "version": 1
  },
  "userdoc": {
    "kind": "user",
    "methods": {},
    "version": 1
  }
}