{
  "contractName": "Post",
  "abi": [
    {
      "inputs": [],
      "stateMutability": "nonpayable",
      "type": "constructor"
    },
    {
      "inputs": [
        {
          "internalType": "uint256",
          "name": "id",
          "type": "uint256"
        }
      ],
      "name": "getPost",
      "outputs": [
        {
          "components": [
            {
              "internalType": "uint256",
              "name": "id",
              "type": "uint256"
            },
            {
              "internalType": "address",
              "name": "owner",
              "type": "address"
            },
            {
              "internalType": "string",
              "name": "caption",
              "type": "string"
            },
            {
              "internalType": "uint256",
              "name": "likes",
              "type": "uint256"
            },
            {
              "components": [
                {
                  "internalType": "uint256",
                  "name": "id",
                  "type": "uint256"
                },
                {
                  "internalType": "address",
                  "name": "owner",
                  "type": "address"
                },
                {
                  "internalType": "uint256",
                  "name": "timestamp",
                  "type": "uint256"
                },
                {
                  "internalType": "string",
                  "name": "text",
                  "type": "string"
                },
                {
                  "internalType": "bool",
                  "name": "deleted",
                  "type": "bool"
                }
              ],
              "internalType": "struct Post.Comment[]",
              "name": "comments",
              "type": "tuple[]"
            },
            {
              "internalType": "uint256",
              "name": "timestamp",
              "type": "uint256"
            },
            {
              "internalType": "uint256",
              "name": "viewCount",
              "type": "uint256"
            },
            {
              "internalType": "int256",
              "name": "mediaNFTID",
              "type": "int256"
            },
            {
              "internalType": "bool",
              "name": "deleted",
              "type": "bool"
            }
          ],
          "internalType": "struct Post.PostData",
          "name": "",
          "type": "tuple"
        }
      ],
      "stateMutability": "nonpayable",
      "type": "function"
    },
    {
      "inputs": [
        {
          "internalType": "string",
          "name": "caption",
          "type": "string"
        },
        {
          "internalType": "string",
          "name": "ipfsCID",
          "type": "string"
        }
      ],
      "name": "createPost",
      "outputs": [
        {
          "internalType": "uint256",
          "name": "",
          "type": "uint256"
        }
      ],
      "stateMutability": "nonpayable",
      "type": "function"
    },
    {
      "inputs": [
        {
          "internalType": "uint256",
          "name": "id",
          "type": "uint256"
        }
      ],
      "name": "like",
      "outputs": [],
      "stateMutability": "nonpayable",
      "type": "function"
    },
    {
      "inputs": [
        {
          "internalType": "uint256",
          "name": "id",
          "type": "uint256"
        }
      ],
      "name": "unlike",
      "outputs": [],
      "stateMutability": "nonpayable",
      "type": "function"
    },
    {
      "inputs": [
        {
          "internalType": "uint256",
          "name": "id",
          "type": "uint256"
        },
        {
          "internalType": "string",
          "name": "text",
          "type": "string"
        }
      ],
      "name": "addComment",
      "outputs": [],
      "stateMutability": "nonpayable",
      "type": "function"
    },
    {
      "inputs": [
        {
          "internalType": "uint256",
          "name": "postID",
          "type": "uint256"
        },
        {
          "internalType": "uint256",
          "name": "commentID",
          "type": "uint256"
        }
      ],
      "name": "deleteComment",
      "outputs": [],
      "stateMutability": "nonpayable",
      "type": "function"
    },
    {
      "inputs": [
        {
          "internalType": "uint256",
          "name": "id",
          "type": "uint256"
        }
      ],
      "name": "deletePost",
      "outputs": [],
      "stateMutability": "nonpayable",
      "type": "function"
    },
    {
      "inputs": [
        {
          "internalType": "uint256",
          "name": "id",
          "type": "uint256"
        }
      ],
      "name": "getTokenURIByTokenID",
      "outputs": [
        {
          "internalType": "string",
          "name": "",
          "type": "string"
        }
      ],
      "stateMutability": "view",
      "type": "function"
    },
    {
      "inputs": [
        {
          "internalType": "uint256",
          "name": "id",
          "type": "uint256"
        }
      ],
      "name": "getTokenURIByPostID",
      "outputs": [
        {
          "internalType": "string",
          "name": "",
          "type": "string"
        }
      ],
      "stateMutability": "view",
      "type": "function"
    }
  ],
  "bytecode": "0x6080604052600060025534801561001557600080fd5b50604051610022906100c4565b604051809103906000f08015801561003e573d6000803e3d6000fd5b50600160006101000a81548173ffffffffffffffffffffffffffffffffffffffff021916908373ffffffffffffffffffffffffffffffffffffffff160217905550336000806101000a81548173ffffffffffffffffffffffffffffffffffffffff021916908373ffffffffffffffffffffffffffffffffffffffff1602179055506100d2565b61328e80620024eb83390190565b61240980620000e26000396000f3fe608060405234801561001057600080fd5b50600436106100935760003560e01c806374d21ae01161006657806374d21ae014610130578063810e5f8d1461014c578063aa7e56831461017c578063e82935da14610198578063f4f7faf7146101b457610093565b8063094cd5ee1461009857806331a4bcb5146100b4578063392338f5146100d057806340731c2414610100575b600080fd5b6100b260048036038101906100ad919061148e565b6101e4565b005b6100ce60048036038101906100c991906114bb565b610373565b005b6100ea60048036038101906100e59190611641565b6105d2565b6040516100f791906116c8565b60405180910390f35b61011a6004803603810190610115919061148e565b610788565b60405161012791906119ea565b60405180910390f35b61014a6004803603810190610145919061148e565b610bc6565b005b6101666004803603810190610161919061148e565b610db8565b6040516101739190611a56565b60405180910390f35b61019660048036038101906101919190611a78565b610e62565b005b6101b260048036038101906101ad919061148e565b61104e565b005b6101ce60048036038101906101c9919061148e565b611241565b6040516101db9190611a56565b60405180910390f35b806003600082815260200190815260200160002060010160009054906101000a900473ffffffffffffffffffffffffffffffffffffffff1673ffffffffffffffffffffffffffffffffffffffff163373ffffffffffffffffffffffffffffffffffffffff1614610289576040517f08c379a000000000000000000000000000000000000000000000000000000000815260040161028090611b46565b60405180910390fd5b816000811015801561029c575060025481105b6102db576040517f08c379a00000000000000000000000000000000000000000000000000000000081526004016102d290611bb2565b60405180910390fd5b6003600082815260200190815260200160002060080160009054906101000a900460ff161561033f576040517f08c379a000000000000000000000000000000000000000000000000000000000815260040161033690611c1e565b60405180910390fd5b60016003600085815260200190815260200160002060080160006101000a81548160ff021916908315150217905550505050565b8160008110158015610386575060025481105b6103c5576040517f08c379a00000000000000000000000000000000000000000000000000000000081526004016103bc90611bb2565b60405180910390fd5b6003600082815260200190815260200160002060080160009054906101000a900460ff1615610429576040517f08c379a000000000000000000000000000000000000000000000000000000000815260040161042090611c1e565b60405180910390fd5b600082101580156104525750600360008481526020019081526020016000206004018054905082105b610491576040517f08c379a000000000000000000000000000000000000000000000000000000000815260040161048890611c8a565b60405180910390fd5b60006003600085815260200190815260200160002060040183815481106104bb576104ba611caa565b5b906000526020600020906005020190508060040160009054906101000a900460ff161561051d576040517f08c379a000000000000000000000000000000000000000000000000000000000815260040161051490611d25565b60405180910390fd5b3373ffffffffffffffffffffffffffffffffffffffff168160010160009054906101000a900473ffffffffffffffffffffffffffffffffffffffff1673ffffffffffffffffffffffffffffffffffffffff16146105af576040517f08c379a00000000000000000000000000000000000000000000000000000000081526004016105a690611db7565b60405180910390fd5b60018160040160006101000a81548160ff02191690831515021790555050505050565b6000807fffffffffffffffffffffffffffffffffffffffffffffffffffffffffffffffff90506000835111156106a557600160009054906101000a900473ffffffffffffffffffffffffffffffffffffffff1673ffffffffffffffffffffffffffffffffffffffff1663d0def52133856040518363ffffffff1660e01b815260040161065f929190611de6565b6020604051808303816000875af115801561067e573d6000803e3d6000fd5b505050506040513d601f19601f820116820180604052508101906106a29190611e2b565b90505b600060036000600254815260200190815260200160002090506002548160000181905550338160010160006101000a81548173ffffffffffffffffffffffffffffffffffffffff021916908373ffffffffffffffffffffffffffffffffffffffff1602179055508481600201908161071d9190612064565b50600081600301819055504281600501819055506000816006018190555081816007018190555060008160080160006101000a81548160ff0219169083151502179055506002600081548092919061077490612165565b919050555080600001549250505092915050565b610790611399565b81600081101580156107a3575060025481105b6107e2576040517f08c379a00000000000000000000000000000000000000000000000000000000081526004016107d990611bb2565b60405180910390fd5b6003600082815260200190815260200160002060080160009054906101000a900460ff1615610846576040517f08c379a000000000000000000000000000000000000000000000000000000000815260040161083d90611c1e565b60405180910390fd5b61084f8361136a565b60006003600085815260200190815260200160002060405180610120016040529081600082015481526020016001820160009054906101000a900473ffffffffffffffffffffffffffffffffffffffff1673ffffffffffffffffffffffffffffffffffffffff1673ffffffffffffffffffffffffffffffffffffffff1681526020016002820180546108e090611e87565b80601f016020809104026020016040519081016040528092919081815260200182805461090c90611e87565b80156109595780601f1061092e57610100808354040283529160200191610959565b820191906000526020600020905b81548152906001019060200180831161093c57829003601f168201915b505050505081526020016003820154815260200160048201805480602002602001604051908101604052809291908181526020016000905b82821015610ada57838290600052602060002090600502016040518060a0016040529081600082015481526020016001820160009054906101000a900473ffffffffffffffffffffffffffffffffffffffff1673ffffffffffffffffffffffffffffffffffffffff1673ffffffffffffffffffffffffffffffffffffffff16815260200160028201548152602001600382018054610a2e90611e87565b80601f0160208091040260200160405190810160405280929190818152602001828054610a5a90611e87565b8015610aa75780601f10610a7c57610100808354040283529160200191610aa7565b820191906000526020600020905b815481529060010190602001808311610a8a57829003601f168201915b505050505081526020016004820160009054906101000a900460ff16151515158152505081526020019060010190610991565b5050505081526020016005820154815260200160068201548152602001600782015481526020016008820160009054906101000a900460ff161515151581525050905060008160800151905060005b8151811015610bba57818181518110610b4557610b44611caa565b5b60200260200101516080015115610ba757818181518110610b6957610b68611caa565b5b60200260200101610b786113fd565b8152506001828281518110610b9057610b8f611caa565b5b602002602001015160800190151590811515815250505b8080610bb290612165565b915050610b29565b50819350505050919050565b8060008110158015610bd9575060025481105b610c18576040517f08c379a0000000000000000000000000000000000000000000000000000000008152600401610c0f90611bb2565b60405180910390fd5b6003600082815260200190815260200160002060080160009054906101000a900460ff1615610c7c576040517f08c379a0000000000000000000000000000000000000000000000000000000008152600401610c7390611c1e565b60405180910390fd5b60003390506004600084815260200190815260200160002060008273ffffffffffffffffffffffffffffffffffffffff1673ffffffffffffffffffffffffffffffffffffffff16815260200190815260200160002060009054906101000a900460ff16610d1e576040517f08c379a0000000000000000000000000000000000000000000000000000000008152600401610d15906121f9565b60405180910390fd5b60006004600085815260200190815260200160002060008373ffffffffffffffffffffffffffffffffffffffff1673ffffffffffffffffffffffffffffffffffffffff16815260200190815260200160002060006101000a81548160ff021916908315150217905550600360008481526020019081526020016000206003016000815480929190610dae90612219565b9190505550505050565b6060600160009054906101000a900473ffffffffffffffffffffffffffffffffffffffff1673ffffffffffffffffffffffffffffffffffffffff1663c87b56dd836040518263ffffffff1660e01b8152600401610e1591906116c8565b600060405180830381865afa158015610e32573d6000803e3d6000fd5b505050506040513d6000823e3d601f19601f82011682018060405250810190610e5b91906122b2565b9050919050565b8160008110158015610e75575060025481105b610eb4576040517f08c379a0000000000000000000000000000000000000000000000000000000008152600401610eab90611bb2565b60405180910390fd5b6003600082815260200190815260200160002060080160009054906101000a900460ff1615610f18576040517f08c379a0000000000000000000000000000000000000000000000000000000008152600401610f0f90611c1e565b60405180910390fd5b600060036000858152602001908152602001600020600401805490509050600360008581526020019081526020016000206004016040518060a001604052808381526020013373ffffffffffffffffffffffffffffffffffffffff1681526020014281526020018581526020016000151581525090806001815401808255809150506001900390600052602060002090600502016000909190919091506000820151816000015560208201518160010160006101000a81548173ffffffffffffffffffffffffffffffffffffffff021916908373ffffffffffffffffffffffffffffffffffffffff1602179055506040820151816002015560608201518160030190816110259190612064565b5060808201518160040160006101000a81548160ff021916908315150217905550505050505050565b8060008110158015611061575060025481105b6110a0576040517f08c379a000000000000000000000000000000000000000000000000000000000815260040161109790611bb2565b60405180910390fd5b6003600082815260200190815260200160002060080160009054906101000a900460ff1615611104576040517f08c379a00000000000000000000000000000000000000000000000000000000081526004016110fb90611c1e565b60405180910390fd5b60003390506004600084815260200190815260200160002060008273ffffffffffffffffffffffffffffffffffffffff1673ffffffffffffffffffffffffffffffffffffffff16815260200190815260200160002060009054906101000a900460ff16156111a7576040517f08c379a000000000000000000000000000000000000000000000000000000000815260040161119e90612347565b60405180910390fd5b60016004600085815260200190815260200160002060008373ffffffffffffffffffffffffffffffffffffffff1673ffffffffffffffffffffffffffffffffffffffff16815260200190815260200160002060006101000a81548160ff02191690831515021790555060036000848152602001908152602001600020600301600081548092919061123790612165565b9190505550505050565b60608160008110158015611256575060025481105b611295576040517f08c379a000000000000000000000000000000000000000000000000000000000815260040161128c90611bb2565b60405180910390fd5b6003600082815260200190815260200160002060080160009054906101000a900460ff16156112f9576040517f08c379a00000000000000000000000000000000000000000000000000000000081526004016112f090611c1e565b60405180910390fd5b6000600360008581526020019081526020016000206007015490506000811215611358576040517f08c379a000000000000000000000000000000000000000000000000000000000815260040161134f906123b3565b60405180910390fd5b61136181610db8565b92505050919050565b60036000828152602001908152602001600020600601600081548092919061139190612165565b919050555050565b60405180610120016040528060008152602001600073ffffffffffffffffffffffffffffffffffffffff1681526020016060815260200160008152602001606081526020016000815260200160008152602001600081526020016000151581525090565b6040518060a0016040528060008152602001600073ffffffffffffffffffffffffffffffffffffffff16815260200160008152602001606081526020016000151581525090565b6000604051905090565b600080fd5b600080fd5b6000819050919050565b61146b81611458565b811461147657600080fd5b50565b60008135905061148881611462565b92915050565b6000602082840312156114a4576114a361144e565b5b60006114b284828501611479565b91505092915050565b600080604083850312156114d2576114d161144e565b5b60006114e085828601611479565b92505060206114f185828601611479565b9150509250929050565b600080fd5b600080fd5b6000601f19601f8301169050919050565b7f4e487b7100000000000000000000000000000000000000000000000000000000600052604160045260246000fd5b61154e82611505565b810181811067ffffffffffffffff8211171561156d5761156c611516565b5b80604052505050565b6000611580611444565b905061158c8282611545565b919050565b600067ffffffffffffffff8211156115ac576115ab611516565b5b6115b582611505565b9050602081019050919050565b82818337600083830152505050565b60006115e46115df84611591565b611576565b905082815260208101848484011115611600576115ff611500565b5b61160b8482856115c2565b509392505050565b600082601f830112611628576116276114fb565b5b81356116388482602086016115d1565b91505092915050565b600080604083850312156116585761165761144e565b5b600083013567ffffffffffffffff81111561167657611675611453565b5b61168285828601611613565b925050602083013567ffffffffffffffff8111156116a3576116a2611453565b5b6116af85828601611613565b9150509250929050565b6116c281611458565b82525050565b60006020820190506116dd60008301846116b9565b92915050565b6116ec81611458565b82525050565b600073ffffffffffffffffffffffffffffffffffffffff82169050919050565b600061171d826116f2565b9050919050565b61172d81611712565b82525050565b600081519050919050565b600082825260208201905092915050565b60005b8381101561176d578082015181840152602081019050611752565b60008484015250505050565b600061178482611733565b61178e818561173e565b935061179e81856020860161174f565b6117a781611505565b840191505092915050565b600081519050919050565b600082825260208201905092915050565b6000819050602082019050919050565b60008115159050919050565b6117f3816117de565b82525050565b600060a08301600083015161181160008601826116e3565b5060208301516118246020860182611724565b50604083015161183760408601826116e3565b506060830151848203606086015261184f8282611779565b915050608083015161186460808601826117ea565b508091505092915050565b600061187b83836117f9565b905092915050565b6000602082019050919050565b600061189b826117b2565b6118a581856117bd565b9350836020820285016118b7856117ce565b8060005b858110156118f357848403895281516118d4858261186f565b94506118df83611883565b925060208a019950506001810190506118bb565b50829750879550505050505092915050565b6000819050919050565b61191881611905565b82525050565b60006101208301600083015161193760008601826116e3565b50602083015161194a6020860182611724565b50604083015184820360408601526119628282611779565b915050606083015161197760608601826116e3565b506080830151848203608086015261198f8282611890565b91505060a08301516119a460a08601826116e3565b5060c08301516119b760c08601826116e3565b5060e08301516119ca60e086018261190f565b506101008301516119df6101008601826117ea565b508091505092915050565b60006020820190508181036000830152611a04818461191e565b905092915050565b600082825260208201905092915050565b6000611a2882611733565b611a328185611a0c565b9350611a4281856020860161174f565b611a4b81611505565b840191505092915050565b60006020820190508181036000830152611a708184611a1d565b905092915050565b60008060408385031215611a8f57611a8e61144e565b5b6000611a9d85828601611479565b925050602083013567ffffffffffffffff811115611abe57611abd611453565b5b611aca85828601611613565b9150509250929050565b7f6f6e6c79206f776e6572206f6620706f73742063616e20646f2074686973206160008201527f6374696f6e000000000000000000000000000000000000000000000000000000602082015250565b6000611b30602583611a0c565b9150611b3b82611ad4565b604082019050919050565b60006020820190508181036000830152611b5f81611b23565b9050919050565b7f696e76616c696420706f73742069640000000000000000000000000000000000600082015250565b6000611b9c600f83611a0c565b9150611ba782611b66565b602082019050919050565b60006020820190508181036000830152611bcb81611b8f565b9050919050565b7f706f737420686173206265656e2064656c657465640000000000000000000000600082015250565b6000611c08601583611a0c565b9150611c1382611bd2565b602082019050919050565b60006020820190508181036000830152611c3781611bfb565b9050919050565b7f696e76616c696420636f6d6d656e742049440000000000000000000000000000600082015250565b6000611c74601283611a0c565b9150611c7f82611c3e565b602082019050919050565b60006020820190508181036000830152611ca381611c67565b9050919050565b7f4e487b7100000000000000000000000000000000000000000000000000000000600052603260045260246000fd5b7f636f6d6d656e7420697320616c72656164792064656c65746564000000000000600082015250565b6000611d0f601a83611a0c565b9150611d1a82611cd9565b602082019050919050565b60006020820190508181036000830152611d3e81611d02565b9050919050565b7f6f6e6c79206f776e6572206f66207468697320636f6d6d656e742063616e206460008201527f656c657465207468697320636f6d6d656e740000000000000000000000000000602082015250565b6000611da1603283611a0c565b9150611dac82611d45565b604082019050919050565b60006020820190508181036000830152611dd081611d94565b9050919050565b611de081611712565b82525050565b6000604082019050611dfb6000830185611dd7565b8181036020830152611e0d8184611a1d565b90509392505050565b600081519050611e2581611462565b92915050565b600060208284031215611e4157611e4061144e565b5b6000611e4f84828501611e16565b91505092915050565b7f4e487b7100000000000000000000000000000000000000000000000000000000600052602260045260246000fd5b60006002820490506001821680611e9f57607f821691505b602082108103611eb257611eb1611e58565b5b50919050565b60008190508160005260206000209050919050565b60006020601f8301049050919050565b600082821b905092915050565b600060088302611f1a7fffffffffffffffffffffffffffffffffffffffffffffffffffffffffffffffff82611edd565b611f248683611edd565b95508019841693508086168417925050509392505050565b6000819050919050565b6000611f61611f5c611f5784611458565b611f3c565b611458565b9050919050565b6000819050919050565b611f7b83611f46565b611f8f611f8782611f68565b848454611eea565b825550505050565b600090565b611fa4611f97565b611faf818484611f72565b505050565b5b81811015611fd357611fc8600082611f9c565b600181019050611fb5565b5050565b601f82111561201857611fe981611eb8565b611ff284611ecd565b81016020851015612001578190505b61201561200d85611ecd565b830182611fb4565b50505b505050565b600082821c905092915050565b600061203b6000198460080261201d565b1980831691505092915050565b6000612054838361202a565b9150826002028217905092915050565b61206d82611733565b67ffffffffffffffff81111561208657612085611516565b5b6120908254611e87565b61209b828285611fd7565b600060209050601f8311600181146120ce57600084156120bc578287015190505b6120c68582612048565b86555061212e565b601f1984166120dc86611eb8565b60005b82811015612104578489015182556001820191506020850194506020810190506120df565b86831015612121578489015161211d601f89168261202a565b8355505b6001600288020188555050505b505050505050565b7f4e487b7100000000000000000000000000000000000000000000000000000000600052601160045260246000fd5b600061217082611458565b91507fffffffffffffffffffffffffffffffffffffffffffffffffffffffffffffffff82036121a2576121a1612136565b5b600182019050919050565b7f796f752068617665206e6f74206c696b6564207468697320706f737400000000600082015250565b60006121e3601c83611a0c565b91506121ee826121ad565b602082019050919050565b60006020820190508181036000830152612212816121d6565b9050919050565b600061222482611458565b91506000820361223757612236612136565b5b600182039050919050565b600061225561225084611591565b611576565b90508281526020810184848401111561227157612270611500565b5b61227c84828561174f565b509392505050565b600082601f830112612299576122986114fb565b5b81516122a9848260208601612242565b91505092915050565b6000602082840312156122c8576122c761144e565b5b600082015167ffffffffffffffff8111156122e6576122e5611453565b5b6122f284828501612284565b91505092915050565b7f796f75206861766520616c7265616479206c696b6564207468697320706f7374600082015250565b6000612331602083611a0c565b915061233c826122fb565b602082019050919050565b6000602082019050818103600083015261236081612324565b9050919050565b7f7468697320706f737420646f6573206e6f742068617665206d65646961000000600082015250565b600061239d601d83611a0c565b91506123a882612367565b602082019050919050565b600060208201905081810360008301526123cc81612390565b905091905056fea2646970667358221220d1dddcbc4f3a1764dc4ef617a58fc553c38c9a0fbcc94daa9d1d3723a54ac3cd64736f6c6343000813003360806040526040518060600160405280602181526020016200326d60219139600890816200002e919062000398565b503480156200003c57600080fd5b506040518060400160405280601281526020017f44656669536f6369616c4d656469614e465400000000000000000000000000008152506040518060400160405280600381526020017f44534d00000000000000000000000000000000000000000000000000000000008152508160009081620000ba919062000398565b508060019081620000cc919062000398565b50505033600760006101000a81548173ffffffffffffffffffffffffffffffffffffffff021916908373ffffffffffffffffffffffffffffffffffffffff1602179055506000600a819055506200047f565b600081519050919050565b7f4e487b7100000000000000000000000000000000000000000000000000000000600052604160045260246000fd5b7f4e487b7100000000000000000000000000000000000000000000000000000000600052602260045260246000fd5b60006002820490506001821680620001a057607f821691505b602082108103620001b657620001b562000158565b5b50919050565b60008190508160005260206000209050919050565b60006020601f8301049050919050565b600082821b905092915050565b600060088302620002207fffffffffffffffffffffffffffffffffffffffffffffffffffffffffffffffff82620001e1565b6200022c8683620001e1565b95508019841693508086168417925050509392505050565b6000819050919050565b6000819050919050565b600062000279620002736200026d8462000244565b6200024e565b62000244565b9050919050565b6000819050919050565b620002958362000258565b620002ad620002a48262000280565b848454620001ee565b825550505050565b600090565b620002c4620002b5565b620002d18184846200028a565b505050565b5b81811015620002f957620002ed600082620002ba565b600181019050620002d7565b5050565b601f82111562000348576200031281620001bc565b6200031d84620001d1565b810160208510156200032d578190505b620003456200033c85620001d1565b830182620002d6565b50505b505050565b600082821c905092915050565b60006200036d600019846008026200034d565b1980831691505092915050565b60006200038883836200035a565b9150826002028217905092915050565b620003a3826200011e565b67ffffffffffffffff811115620003bf57620003be62000129565b5b620003cb825462000187565b620003d8828285620002fd565b600060209050601f831160018114620004105760008415620003fb578287015190505b6200040785826200037a565b86555062000477565b601f1984166200042086620001bc565b60005b828110156200044a5784890151825560018201915060208501945060208101905062000423565b868310156200046a578489015162000466601f8916826200035a565b8355505b6001600288020188555050505b505050505050565b612dde806200048f6000396000f3fe608060405234801561001057600080fd5b50600436106100ea5760003560e01c806370a082311161008c578063b88d4fde11610066578063b88d4fde1461025b578063c87b56dd14610277578063d0def521146102a7578063e985e9c5146102d7576100ea565b806370a08231146101f157806395d89b4114610221578063a22cb4651461023f576100ea565b8063095ea7b3116100c8578063095ea7b31461016d57806323b872dd1461018957806342842e0e146101a55780636352211e146101c1576100ea565b806301ffc9a7146100ef57806306fdde031461011f578063081812fc1461013d575b600080fd5b61010960048036038101906101049190611b41565b610307565b6040516101169190611b89565b60405180910390f35b6101276103e9565b6040516101349190611c34565b60405180910390f35b61015760048036038101906101529190611c8c565b61047b565b6040516101649190611cfa565b60405180910390f35b61018760048036038101906101829190611d41565b6104c1565b005b6101a3600480360381019061019e9190611d81565b6105d8565b005b6101bf60048036038101906101ba9190611d81565b610638565b005b6101db60048036038101906101d69190611c8c565b610658565b6040516101e89190611cfa565b60405180910390f35b61020b60048036038101906102069190611dd4565b6106de565b6040516102189190611e10565b60405180910390f35b610229610795565b6040516102369190611c34565b60405180910390f35b61025960048036038101906102549190611e57565b610827565b005b61027560048036038101906102709190611fcc565b61083d565b005b610291600480360381019061028c9190611c8c565b61089f565b60405161029e9190611c34565b60405180910390f35b6102c160048036038101906102bc91906120f0565b6109b1565b6040516102ce9190611e10565b60405180910390f35b6102f160048036038101906102ec919061214c565b610b23565b6040516102fe9190611b89565b60405180910390f35b60007f80ac58cd000000000000000000000000000000000000000000000000000000007bffffffffffffffffffffffffffffffffffffffffffffffffffffffff1916827bffffffffffffffffffffffffffffffffffffffffffffffffffffffff191614806103d257507f5b5e139f000000000000000000000000000000000000000000000000000000007bffffffffffffffffffffffffffffffffffffffffffffffffffffffff1916827bffffffffffffffffffffffffffffffffffffffffffffffffffffffff1916145b806103e257506103e182610bb7565b5b9050919050565b6060600080546103f8906121bb565b80601f0160208091040260200160405190810160405280929190818152602001828054610424906121bb565b80156104715780601f1061044657610100808354040283529160200191610471565b820191906000526020600020905b81548152906001019060200180831161045457829003601f168201915b5050505050905090565b600061048682610c21565b6004600083815260200190815260200160002060009054906101000a900473ffffffffffffffffffffffffffffffffffffffff169050919050565b60006104cc82610658565b90508073ffffffffffffffffffffffffffffffffffffffff168373ffffffffffffffffffffffffffffffffffffffff160361053c576040517f08c379a00000000000000000000000000000000000000000000000000000000081526004016105339061225e565b60405180910390fd5b8073ffffffffffffffffffffffffffffffffffffffff1661055b610c6c565b73ffffffffffffffffffffffffffffffffffffffff16148061058a575061058981610584610c6c565b610b23565b5b6105c9576040517f08c379a00000000000000000000000000000000000000000000000000000000081526004016105c0906122f0565b60405180910390fd5b6105d38383610c74565b505050565b6105e96105e3610c6c565b82610d2d565b610628576040517f08c379a000000000000000000000000000000000000000000000000000000000815260040161061f90612382565b60405180910390fd5b610633838383610dc2565b505050565b6106538383836040518060200160405280600081525061083d565b505050565b600080610664836110bb565b9050600073ffffffffffffffffffffffffffffffffffffffff168173ffffffffffffffffffffffffffffffffffffffff16036106d5576040517f08c379a00000000000000000000000000000000000000000000000000000000081526004016106cc906123ee565b60405180910390fd5b80915050919050565b60008073ffffffffffffffffffffffffffffffffffffffff168273ffffffffffffffffffffffffffffffffffffffff160361074e576040517f08c379a000000000000000000000000000000000000000000000000000000000815260040161074590612480565b60405180910390fd5b600360008373ffffffffffffffffffffffffffffffffffffffff1673ffffffffffffffffffffffffffffffffffffffff168152602001908152602001600020549050919050565b6060600180546107a4906121bb565b80601f01602080910402602001604051908101604052809291908181526020018280546107d0906121bb565b801561081d5780601f106107f25761010080835404028352916020019161081d565b820191906000526020600020905b81548152906001019060200180831161080057829003601f168201915b5050505050905090565b610839610832610c6c565b83836110f8565b5050565b61084e610848610c6c565b83610d2d565b61088d576040517f08c379a000000000000000000000000000000000000000000000000000000000815260040161088490612382565b60405180910390fd5b61089984848484611264565b50505050565b60606108aa82610c21565b60006006600084815260200190815260200160002080546108ca906121bb565b80601f01602080910402602001604051908101604052809291908181526020018280546108f6906121bb565b80156109435780601f1061091857610100808354040283529160200191610943565b820191906000526020600020905b81548152906001019060200180831161092657829003601f168201915b5050505050905060006109546112c0565b905060008151036109695781925050506109ac565b60008251111561099e5780826040516020016109869291906124dc565b604051602081830303815290604052925050506109ac565b6109a784611352565b925050505b919050565b60003373ffffffffffffffffffffffffffffffffffffffff16600760009054906101000a900473ffffffffffffffffffffffffffffffffffffffff1673ffffffffffffffffffffffffffffffffffffffff1614610a43576040517f08c379a0000000000000000000000000000000000000000000000000000000008152600401610a3a9061254c565b60405180910390fd5b600982604051610a53919061256c565b908152602001604051809103902060009054906101000a900460ff1615610aaf576040517f08c379a0000000000000000000000000000000000000000000000000000000008152600401610aa6906125f5565b60405180910390fd5b6001600983604051610ac1919061256c565b908152602001604051809103902060006101000a81548160ff0219169083151502179055506000600a549050610af784826113ba565b610b0181846113d8565b600a6000815480929190610b1490612644565b91905055508091505092915050565b6000600560008473ffffffffffffffffffffffffffffffffffffffff1673ffffffffffffffffffffffffffffffffffffffff16815260200190815260200160002060008373ffffffffffffffffffffffffffffffffffffffff1673ffffffffffffffffffffffffffffffffffffffff16815260200190815260200160002060009054906101000a900460ff16905092915050565b60007f01ffc9a7000000000000000000000000000000000000000000000000000000007bffffffffffffffffffffffffffffffffffffffffffffffffffffffff1916827bffffffffffffffffffffffffffffffffffffffffffffffffffffffff1916149050919050565b610c2a81611445565b610c69576040517f08c379a0000000000000000000000000000000000000000000000000000000008152600401610c60906123ee565b60405180910390fd5b50565b600033905090565b816004600083815260200190815260200160002060006101000a81548173ffffffffffffffffffffffffffffffffffffffff021916908373ffffffffffffffffffffffffffffffffffffffff160217905550808273ffffffffffffffffffffffffffffffffffffffff16610ce783610658565b73ffffffffffffffffffffffffffffffffffffffff167f8c5be1e5ebec7d5bd14f71427d1e84f3dd0314c0f7b2291e5b200ac8c7c3b92560405160405180910390a45050565b600080610d3983610658565b90508073ffffffffffffffffffffffffffffffffffffffff168473ffffffffffffffffffffffffffffffffffffffff161480610d7b5750610d7a8185610b23565b5b80610db957508373ffffffffffffffffffffffffffffffffffffffff16610da18461047b565b73ffffffffffffffffffffffffffffffffffffffff16145b91505092915050565b8273ffffffffffffffffffffffffffffffffffffffff16610de282610658565b73ffffffffffffffffffffffffffffffffffffffff1614610e38576040517f08c379a0000000000000000000000000000000000000000000000000000000008152600401610e2f906126fe565b60405180910390fd5b600073ffffffffffffffffffffffffffffffffffffffff168273ffffffffffffffffffffffffffffffffffffffff1603610ea7576040517f08c379a0000000000000000000000000000000000000000000000000000000008152600401610e9e90612790565b60405180910390fd5b610eb48383836001611486565b8273ffffffffffffffffffffffffffffffffffffffff16610ed482610658565b73ffffffffffffffffffffffffffffffffffffffff1614610f2a576040517f08c379a0000000000000000000000000000000000000000000000000000000008152600401610f21906126fe565b60405180910390fd5b6004600082815260200190815260200160002060006101000a81549073ffffffffffffffffffffffffffffffffffffffff02191690556001600360008573ffffffffffffffffffffffffffffffffffffffff1673ffffffffffffffffffffffffffffffffffffffff168152602001908152602001600020600082825403925050819055506001600360008473ffffffffffffffffffffffffffffffffffffffff1673ffffffffffffffffffffffffffffffffffffffff16815260200190815260200160002060008282540192505081905550816002600083815260200190815260200160002060006101000a81548173ffffffffffffffffffffffffffffffffffffffff021916908373ffffffffffffffffffffffffffffffffffffffff160217905550808273ffffffffffffffffffffffffffffffffffffffff168473ffffffffffffffffffffffffffffffffffffffff167fddf252ad1be2c89b69c2b068fc378daa952ba7f163c4a11628f55a4df523b3ef60405160405180910390a46110b6838383600161148c565b505050565b60006002600083815260200190815260200160002060009054906101000a900473ffffffffffffffffffffffffffffffffffffffff169050919050565b8173ffffffffffffffffffffffffffffffffffffffff168373ffffffffffffffffffffffffffffffffffffffff1603611166576040517f08c379a000000000000000000000000000000000000000000000000000000000815260040161115d906127fc565b60405180910390fd5b80600560008573ffffffffffffffffffffffffffffffffffffffff1673ffffffffffffffffffffffffffffffffffffffff16815260200190815260200160002060008473ffffffffffffffffffffffffffffffffffffffff1673ffffffffffffffffffffffffffffffffffffffff16815260200190815260200160002060006101000a81548160ff0219169083151502179055508173ffffffffffffffffffffffffffffffffffffffff168373ffffffffffffffffffffffffffffffffffffffff167f17307eab39ab6107e8899845ad3d59bd9653f200f220920489ca2b5937696c31836040516112579190611b89565b60405180910390a3505050565b61126f848484610dc2565b61127b84848484611492565b6112ba576040517f08c379a00000000000000000000000000000000000000000000000000000000081526004016112b19061288e565b60405180910390fd5b50505050565b6060600880546112cf906121bb565b80601f01602080910402602001604051908101604052809291908181526020018280546112fb906121bb565b80156113485780601f1061131d57610100808354040283529160200191611348565b820191906000526020600020905b81548152906001019060200180831161132b57829003601f168201915b5050505050905090565b606061135d82610c21565b60006113676112c0565b9050600081511161138757604051806020016040528060008152506113b2565b8061139184611619565b6040516020016113a29291906124dc565b6040516020818303038152906040525b915050919050565b6113d48282604051806020016040528060008152506116e7565b5050565b6113e182611445565b611420576040517f08c379a000000000000000000000000000000000000000000000000000000000815260040161141790612920565b60405180910390fd5b806006600084815260200190815260200160002090816114409190612aec565b505050565b60008073ffffffffffffffffffffffffffffffffffffffff16611467836110bb565b73ffffffffffffffffffffffffffffffffffffffff1614159050919050565b50505050565b50505050565b60006114b38473ffffffffffffffffffffffffffffffffffffffff16611742565b1561160c578373ffffffffffffffffffffffffffffffffffffffff1663150b7a026114dc610c6c565b8786866040518563ffffffff1660e01b81526004016114fe9493929190612c13565b6020604051808303816000875af192505050801561153a57506040513d601f19601f820116820180604052508101906115379190612c74565b60015b6115bc573d806000811461156a576040519150601f19603f3d011682016040523d82523d6000602084013e61156f565b606091505b5060008151036115b4576040517f08c379a00000000000000000000000000000000000000000000000000000000081526004016115ab9061288e565b60405180910390fd5b805181602001fd5b63150b7a0260e01b7bffffffffffffffffffffffffffffffffffffffffffffffffffffffff1916817bffffffffffffffffffffffffffffffffffffffffffffffffffffffff191614915050611611565b600190505b949350505050565b60606000600161162884611765565b01905060008167ffffffffffffffff81111561164757611646611ea1565b5b6040519080825280601f01601f1916602001820160405280156116795781602001600182028036833780820191505090505b509050600082602001820190505b6001156116dc578080600190039150507f3031323334353637383961626364656600000000000000000000000000000000600a86061a8153600a85816116d0576116cf612ca1565b5b04945060008503611687575b819350505050919050565b6116f183836118b8565b6116fe6000848484611492565b61173d576040517f08c379a00000000000000000000000000000000000000000000000000000000081526004016117349061288e565b60405180910390fd5b505050565b6000808273ffffffffffffffffffffffffffffffffffffffff163b119050919050565b600080600090507a184f03e93ff9f4daa797ed6e38ed64bf6a1f01000000000000000083106117c3577a184f03e93ff9f4daa797ed6e38ed64bf6a1f01000000000000000083816117b9576117b8612ca1565b5b0492506040810190505b6d04ee2d6d415b85acef81000000008310611800576d04ee2d6d415b85acef810000000083816117f6576117f5612ca1565b5b0492506020810190505b662386f26fc10000831061182f57662386f26fc10000838161182557611824612ca1565b5b0492506010810190505b6305f5e1008310611858576305f5e100838161184e5761184d612ca1565b5b0492506008810190505b612710831061187d57612710838161187357611872612ca1565b5b0492506004810190505b606483106118a0576064838161189657611895612ca1565b5b0492506002810190505b600a83106118af576001810190505b80915050919050565b600073ffffffffffffffffffffffffffffffffffffffff168273ffffffffffffffffffffffffffffffffffffffff1603611927576040517f08c379a000000000000000000000000000000000000000000000000000000000815260040161191e90612d1c565b60405180910390fd5b61193081611445565b15611970576040517f08c379a000000000000000000000000000000000000000000000000000000000815260040161196790612d88565b60405180910390fd5b61197e600083836001611486565b61198781611445565b156119c7576040517f08c379a00000000000000000000000000000000000000000000000000000000081526004016119be90612d88565b60405180910390fd5b6001600360008473ffffffffffffffffffffffffffffffffffffffff1673ffffffffffffffffffffffffffffffffffffffff16815260200190815260200160002060008282540192505081905550816002600083815260200190815260200160002060006101000a81548173ffffffffffffffffffffffffffffffffffffffff021916908373ffffffffffffffffffffffffffffffffffffffff160217905550808273ffffffffffffffffffffffffffffffffffffffff16600073ffffffffffffffffffffffffffffffffffffffff167fddf252ad1be2c89b69c2b068fc378daa952ba7f163c4a11628f55a4df523b3ef60405160405180910390a4611ad160008383600161148c565b5050565b6000604051905090565b600080fd5b600080fd5b60007fffffffff0000000000000000000000000000000000000000000000000000000082169050919050565b611b1e81611ae9565b8114611b2957600080fd5b50565b600081359050611b3b81611b15565b92915050565b600060208284031215611b5757611b56611adf565b5b6000611b6584828501611b2c565b91505092915050565b60008115159050919050565b611b8381611b6e565b82525050565b6000602082019050611b9e6000830184611b7a565b92915050565b600081519050919050565b600082825260208201905092915050565b60005b83811015611bde578082015181840152602081019050611bc3565b60008484015250505050565b6000601f19601f8301169050919050565b6000611c0682611ba4565b611c108185611baf565b9350611c20818560208601611bc0565b611c2981611bea565b840191505092915050565b60006020820190508181036000830152611c4e8184611bfb565b905092915050565b6000819050919050565b611c6981611c56565b8114611c7457600080fd5b50565b600081359050611c8681611c60565b92915050565b600060208284031215611ca257611ca1611adf565b5b6000611cb084828501611c77565b91505092915050565b600073ffffffffffffffffffffffffffffffffffffffff82169050919050565b6000611ce482611cb9565b9050919050565b611cf481611cd9565b82525050565b6000602082019050611d0f6000830184611ceb565b92915050565b611d1e81611cd9565b8114611d2957600080fd5b50565b600081359050611d3b81611d15565b92915050565b60008060408385031215611d5857611d57611adf565b5b6000611d6685828601611d2c565b9250506020611d7785828601611c77565b9150509250929050565b600080600060608486031215611d9a57611d99611adf565b5b6000611da886828701611d2c565b9350506020611db986828701611d2c565b9250506040611dca86828701611c77565b9150509250925092565b600060208284031215611dea57611de9611adf565b5b6000611df884828501611d2c565b91505092915050565b611e0a81611c56565b82525050565b6000602082019050611e256000830184611e01565b92915050565b611e3481611b6e565b8114611e3f57600080fd5b50565b600081359050611e5181611e2b565b92915050565b60008060408385031215611e6e57611e6d611adf565b5b6000611e7c85828601611d2c565b9250506020611e8d85828601611e42565b9150509250929050565b600080fd5b600080fd5b7f4e487b7100000000000000000000000000000000000000000000000000000000600052604160045260246000fd5b611ed982611bea565b810181811067ffffffffffffffff82111715611ef857611ef7611ea1565b5b80604052505050565b6000611f0b611ad5565b9050611f178282611ed0565b919050565b600067ffffffffffffffff821115611f3757611f36611ea1565b5b611f4082611bea565b9050602081019050919050565b82818337600083830152505050565b6000611f6f611f6a84611f1c565b611f01565b905082815260208101848484011115611f8b57611f8a611e9c565b5b611f96848285611f4d565b509392505050565b600082601f830112611fb357611fb2611e97565b5b8135611fc3848260208601611f5c565b91505092915050565b60008060008060808587031215611fe657611fe5611adf565b5b6000611ff487828801611d2c565b945050602061200587828801611d2c565b935050604061201687828801611c77565b925050606085013567ffffffffffffffff81111561203757612036611ae4565b5b61204387828801611f9e565b91505092959194509250565b600067ffffffffffffffff82111561206a57612069611ea1565b5b61207382611bea565b9050602081019050919050565b600061209361208e8461204f565b611f01565b9050828152602081018484840111156120af576120ae611e9c565b5b6120ba848285611f4d565b509392505050565b600082601f8301126120d7576120d6611e97565b5b81356120e7848260208601612080565b91505092915050565b6000806040838503121561210757612106611adf565b5b600061211585828601611d2c565b925050602083013567ffffffffffffffff81111561213657612135611ae4565b5b612142858286016120c2565b9150509250929050565b6000806040838503121561216357612162611adf565b5b600061217185828601611d2c565b925050602061218285828601611d2c565b9150509250929050565b7f4e487b7100000000000000000000000000000000000000000000000000000000600052602260045260246000fd5b600060028204905060018216806121d357607f821691505b6020821081036121e6576121e561218c565b5b50919050565b7f4552433732313a20617070726f76616c20746f2063757272656e74206f776e6560008201527f7200000000000000000000000000000000000000000000000000000000000000602082015250565b6000612248602183611baf565b9150612253826121ec565b604082019050919050565b600060208201905081810360008301526122778161223b565b9050919050565b7f4552433732313a20617070726f76652063616c6c6572206973206e6f7420746f60008201527f6b656e206f776e6572206f7220617070726f76656420666f7220616c6c000000602082015250565b60006122da603d83611baf565b91506122e58261227e565b604082019050919050565b60006020820190508181036000830152612309816122cd565b9050919050565b7f4552433732313a2063616c6c6572206973206e6f7420746f6b656e206f776e6560008201527f72206f7220617070726f76656400000000000000000000000000000000000000602082015250565b600061236c602d83611baf565b915061237782612310565b604082019050919050565b6000602082019050818103600083015261239b8161235f565b9050919050565b7f4552433732313a20696e76616c696420746f6b656e2049440000000000000000600082015250565b60006123d8601883611baf565b91506123e3826123a2565b602082019050919050565b60006020820190508181036000830152612407816123cb565b9050919050565b7f4552433732313a2061646472657373207a65726f206973206e6f74206120766160008201527f6c6964206f776e65720000000000000000000000000000000000000000000000602082015250565b600061246a602983611baf565b91506124758261240e565b604082019050919050565b600060208201905081810360008301526124998161245d565b9050919050565b600081905092915050565b60006124b682611ba4565b6124c081856124a0565b93506124d0818560208601611bc0565b80840191505092915050565b60006124e882856124ab565b91506124f482846124ab565b91508190509392505050565b7f6f776e6572206f6e6c7900000000000000000000000000000000000000000000600082015250565b6000612536600a83611baf565b915061254182612500565b602082019050919050565b6000602082019050818103600083015261256581612529565b9050919050565b600061257882846124ab565b915081905092915050565b7f7468697320696d6167652068617320616c7265616479206265656e206d696e7460008201527f656420746f20736f6d65206e6674000000000000000000000000000000000000602082015250565b60006125df602e83611baf565b91506125ea82612583565b604082019050919050565b6000602082019050818103600083015261260e816125d2565b9050919050565b7f4e487b7100000000000000000000000000000000000000000000000000000000600052601160045260246000fd5b600061264f82611c56565b91507fffffffffffffffffffffffffffffffffffffffffffffffffffffffffffffffff820361268157612680612615565b5b600182019050919050565b7f4552433732313a207472616e736665722066726f6d20696e636f72726563742060008201527f6f776e6572000000000000000000000000000000000000000000000000000000602082015250565b60006126e8602583611baf565b91506126f38261268c565b604082019050919050565b60006020820190508181036000830152612717816126db565b9050919050565b7f4552433732313a207472616e7366657220746f20746865207a65726f2061646460008201527f7265737300000000000000000000000000000000000000000000000000000000602082015250565b600061277a602483611baf565b91506127858261271e565b604082019050919050565b600060208201905081810360008301526127a98161276d565b9050919050565b7f4552433732313a20617070726f766520746f2063616c6c657200000000000000600082015250565b60006127e6601983611baf565b91506127f1826127b0565b602082019050919050565b60006020820190508181036000830152612815816127d9565b9050919050565b7f4552433732313a207472616e7366657220746f206e6f6e20455243373231526560008201527f63656976657220696d706c656d656e7465720000000000000000000000000000602082015250565b6000612878603283611baf565b91506128838261281c565b604082019050919050565b600060208201905081810360008301526128a78161286b565b9050919050565b7f45524337323155524953746f726167653a2055524920736574206f66206e6f6e60008201527f6578697374656e7420746f6b656e000000000000000000000000000000000000602082015250565b600061290a602e83611baf565b9150612915826128ae565b604082019050919050565b60006020820190508181036000830152612939816128fd565b9050919050565b60008190508160005260206000209050919050565b60006020601f8301049050919050565b600082821b905092915050565b6000600883026129a27fffffffffffffffffffffffffffffffffffffffffffffffffffffffffffffffff82612965565b6129ac8683612965565b95508019841693508086168417925050509392505050565b6000819050919050565b60006129e96129e46129df84611c56565b6129c4565b611c56565b9050919050565b6000819050919050565b612a03836129ce565b612a17612a0f826129f0565b848454612972565b825550505050565b600090565b612a2c612a1f565b612a378184846129fa565b505050565b5b81811015612a5b57612a50600082612a24565b600181019050612a3d565b5050565b601f821115612aa057612a7181612940565b612a7a84612955565b81016020851015612a89578190505b612a9d612a9585612955565b830182612a3c565b50505b505050565b600082821c905092915050565b6000612ac360001984600802612aa5565b1980831691505092915050565b6000612adc8383612ab2565b9150826002028217905092915050565b612af582611ba4565b67ffffffffffffffff811115612b0e57612b0d611ea1565b5b612b1882546121bb565b612b23828285612a5f565b600060209050601f831160018114612b565760008415612b44578287015190505b612b4e8582612ad0565b865550612bb6565b601f198416612b6486612940565b60005b82811015612b8c57848901518255600182019150602085019450602081019050612b67565b86831015612ba95784890151612ba5601f891682612ab2565b8355505b6001600288020188555050505b505050505050565b600081519050919050565b600082825260208201905092915050565b6000612be582612bbe565b612bef8185612bc9565b9350612bff818560208601611bc0565b612c0881611bea565b840191505092915050565b6000608082019050612c286000830187611ceb565b612c356020830186611ceb565b612c426040830185611e01565b8181036060830152612c548184612bda565b905095945050505050565b600081519050612c6e81611b15565b92915050565b600060208284031215612c8a57612c89611adf565b5b6000612c9884828501612c5f565b91505092915050565b7f4e487b7100000000000000000000000000000000000000000000000000000000600052601260045260246000fd5b7f4552433732313a206d696e7420746f20746865207a65726f2061646472657373600082015250565b6000612d06602083611baf565b9150612d1182612cd0565b602082019050919050565b60006020820190508181036000830152612d3581612cf9565b9050919050565b7f4552433732313a20746f6b656e20616c7265616479206d696e74656400000000600082015250565b6000612d72601c83611baf565b9150612d7d82612d3c565b602082019050919050565b60006020820190508181036000830152612da181612d65565b905091905056fea26469706673582212206d93d38f7b6840646cd8953ff0f5af35a7e03764243b6768dd4f069b361b90ff64736f6c6343000813003368747470733a2f2f636c6f7564666c6172652d697066732e636f6d2f697066732f",
  "immutableReferences": {},
  "source": "pragma solidity ^0.8.0;\n\nimport \"./MediaNFT.sol\";\n\ncontract Post {\n\tstruct Comment {\n\t\tuint256 id;\n\t\taddress owner;\n\t\tuint256 timestamp;\n\t\tstring text;\n\t\tbool deleted;\n\t}\n\n\tstruct PostData {\n\t\tuint256 id;\n\t\taddress owner;\n\t\tstring caption;\n\t\tuint256 likes;\n\t\tComment[] comments;\n\t\tuint256 timestamp;\n\t\tuint256 viewCount;\n\t\tint mediaNFTID; // value of -1 dictates no media\n\t\tbool deleted;\n\t}\n\n\taddress owner;\n\tMediaNFT nftContract;\n\tuint256 nextPostID = 0;\n\tmapping(uint256 => PostData) idToPost;\n\t// ensures that for each post, there are no duplicate likes for this account (i.e an account cannot like a post twice)\n\tmapping(uint256 => mapping(address => bool)) hasLiked; \n\n\n\tmodifier postOwnerOnly(uint256 id) {\n\t\trequire(msg.sender == idToPost[id].owner, \"only owner of post can do this action\");\n\t\t_;\n\t}\n\n\t// a valid post is defined as a non-deleted post with a valid id\n\tmodifier validPost(uint256 id) { \n\t\trequire (id >= 0 && id < nextPostID, \"invalid post id\");\n\t\trequire(!idToPost[id].deleted, \"post has been deleted\");\n\t\t_;\n\t}\n\n\tconstructor () {\n\t\tnftContract = new MediaNFT();\n\t\towner = msg.sender;\n\t}\n\n\tfunction incrViewCount(uint256 id) private {\n\t\tidToPost[id].viewCount++;\n\t}\n\n\tfunction getPost(uint256 id) public validPost(id) returns (PostData memory)  {\n\t\tincrViewCount(id);\n\t\tPostData memory post = idToPost[id];\n\t\t// filter out deleted comments\n\t\tComment[] memory comments = post.comments;\n\t\tfor (uint256 i = 0; i < comments.length; i++) {\n\t\t\tif (comments[i].deleted) {\n\t\t\t\tdelete comments[i];\n\t\t\t\tcomments[i].deleted = true;\n\t\t\t}\n\t\t}\n\t\treturn post;\n\t}\n\n\t// returns id of post created\n\tfunction createPost(string memory caption, string memory ipfsCID) public returns (uint) {\n\t\t// default value of -1 indicates this post does not have any media attached to it\n\t\tint mediaNFTID = -1;\n\t\t// if this post has a media (i.e cid fill is non empty)\n\t\tif (bytes(ipfsCID).length > 0) { // same as ipfsCID != \"\", but cant do that in solidity\n\t\t\t// mint nft to user\n\t\t\tmediaNFTID = int(nftContract.mint(msg.sender, ipfsCID));\n\t\t}\n\t\tPostData storage post = idToPost[nextPostID];\n\n\t\tpost.id = nextPostID;\n\t\tpost.owner = msg.sender;\n\t\tpost.caption = caption;\n\t\tpost.likes = 0;\n\t\tpost.timestamp = block.timestamp;\n\t\tpost.viewCount = 0;\n\t\tpost.mediaNFTID = mediaNFTID;\n\t\tpost.deleted = false; \n\t\t\n\t\tnextPostID++;\n\t\treturn post.id;\n\t}\n\n\tfunction like(uint256 id) public validPost(id) {\n\t\taddress liker = msg.sender;\n\t\trequire(!hasLiked[id][liker], \"you have already liked this post\");\n\t\thasLiked[id][liker] = true;\n\t\tidToPost[id].likes++;\n\t}\n\n\tfunction unlike(uint256 id) public validPost(id) {\n\t\taddress liker = msg.sender;\n\t\trequire(hasLiked[id][liker], \"you have not liked this post\");\n\t\thasLiked[id][liker] = false;\n\t\tidToPost[id].likes--;\n\t}\n\n\tfunction addComment(uint256 id, string memory text) public validPost(id) {\n\t\tuint256 commentID = idToPost[id].comments.length;\n\t\tidToPost[id].comments.push(Comment(commentID, msg.sender, block.timestamp, text, false));\n\t}\n\n\tfunction deleteComment(uint256 postID, uint256 commentID) public validPost(postID) {\n\t\trequire(commentID >= 0 && commentID < idToPost[postID].comments.length, \"invalid comment ID\");\n\t\tComment storage comment = idToPost[postID].comments[commentID];\n\t\trequire(!comment.deleted, \"comment is already deleted\");\n\t\trequire(comment.owner == msg.sender, \"only owner of this comment can delete this comment\");\n\t\tcomment.deleted = true;\n\t}\n\n\tfunction deletePost(uint256 id) public postOwnerOnly(id) validPost(id) {\n\t\tidToPost[id].deleted = true;\n\t}\n\n\n\tfunction getTokenURIByTokenID(uint id) public view returns (string memory) {\n\t\treturn nftContract.tokenURI(id);\n\t}\n\n\tfunction getTokenURIByPostID(uint id) public view validPost(id) returns (string memory) {\n\t\tint tokenId = idToPost[id].mediaNFTID;\n\t\trequire(tokenId >= 0, \"this post does not have media\");\n\t\treturn getTokenURIByTokenID(uint(tokenId));\n\t}\n}\n\n",
  "sourcePath": "/Users/cy/git/sch/is4302/DefiSocialMedia/contracts/Post.sol",
  "compiler": {
    "name": "solc",
    "version": "0.8.19+commit.7dd6d404.Emscripten.clang"
  },
  "schemaVersion": "3.4.11",
  "updatedAt": "2023-03-20T16:31:33.295Z",
  "devdoc": {
    "kind": "dev",
    "methods": {},
    "version": 1
  },
  "userdoc": {
    "kind": "user",
    "methods": {},
    "version": 1
  }
}