{
  "contractName": "Post",
  "abi": [
    {
      "inputs": [],
      "stateMutability": "nonpayable",
      "type": "constructor"
    },
    {
      "inputs": [
        {
          "internalType": "uint256",
          "name": "id",
          "type": "uint256"
        }
      ],
      "name": "getPost",
      "outputs": [
        {
          "components": [
            {
              "internalType": "uint256",
              "name": "id",
              "type": "uint256"
            },
            {
              "internalType": "address",
              "name": "owner",
              "type": "address"
            },
            {
              "internalType": "string",
              "name": "caption",
              "type": "string"
            },
            {
              "internalType": "uint256",
              "name": "likes",
              "type": "uint256"
            },
            {
              "components": [
                {
                  "internalType": "uint256",
                  "name": "id",
                  "type": "uint256"
                },
                {
                  "internalType": "address",
                  "name": "owner",
                  "type": "address"
                },
                {
                  "internalType": "uint256",
                  "name": "timestamp",
                  "type": "uint256"
                },
                {
                  "internalType": "string",
                  "name": "text",
                  "type": "string"
                },
                {
                  "internalType": "bool",
                  "name": "deleted",
                  "type": "bool"
                }
              ],
              "internalType": "struct Post.Comment[]",
              "name": "comments",
              "type": "tuple[]"
            },
            {
              "internalType": "uint256",
              "name": "timestamp",
              "type": "uint256"
            },
            {
              "internalType": "uint256",
              "name": "viewCount",
              "type": "uint256"
            },
            {
              "internalType": "int256",
              "name": "mediaNFTID",
              "type": "int256"
            },
            {
              "internalType": "bool",
              "name": "deleted",
              "type": "bool"
            }
          ],
          "internalType": "struct Post.PostData",
          "name": "",
          "type": "tuple"
        }
      ],
      "stateMutability": "nonpayable",
      "type": "function"
    },
    {
      "inputs": [
        {
          "internalType": "string",
          "name": "caption",
          "type": "string"
        },
        {
          "internalType": "string",
          "name": "ipfsCID",
          "type": "string"
        }
      ],
      "name": "createPost",
      "outputs": [
        {
          "internalType": "uint256",
          "name": "",
          "type": "uint256"
        }
      ],
      "stateMutability": "nonpayable",
      "type": "function"
    },
    {
      "inputs": [
        {
          "internalType": "uint256",
          "name": "id",
          "type": "uint256"
        }
      ],
      "name": "like",
      "outputs": [],
      "stateMutability": "nonpayable",
      "type": "function"
    },
    {
      "inputs": [
        {
          "internalType": "uint256",
          "name": "id",
          "type": "uint256"
        }
      ],
      "name": "unlike",
      "outputs": [],
      "stateMutability": "nonpayable",
      "type": "function"
    },
    {
      "inputs": [
        {
          "internalType": "uint256",
          "name": "id",
          "type": "uint256"
        },
        {
          "internalType": "string",
          "name": "text",
          "type": "string"
        }
      ],
      "name": "addComment",
      "outputs": [],
      "stateMutability": "nonpayable",
      "type": "function"
    },
    {
      "inputs": [
        {
          "internalType": "uint256",
          "name": "postID",
          "type": "uint256"
        },
        {
          "internalType": "uint256",
          "name": "commentID",
          "type": "uint256"
        }
      ],
      "name": "deleteComment",
      "outputs": [],
      "stateMutability": "nonpayable",
      "type": "function"
    },
    {
      "inputs": [
        {
          "internalType": "uint256",
          "name": "id",
          "type": "uint256"
        }
      ],
      "name": "deletePost",
      "outputs": [],
      "stateMutability": "nonpayable",
      "type": "function"
    },
    {
      "inputs": [
        {
          "internalType": "uint256",
          "name": "id",
          "type": "uint256"
        }
      ],
      "name": "getTokenURIByTokenID",
      "outputs": [
        {
          "internalType": "string",
          "name": "",
          "type": "string"
        }
      ],
      "stateMutability": "view",
      "type": "function"
    },
    {
      "inputs": [
        {
          "internalType": "uint256",
          "name": "id",
          "type": "uint256"
        }
      ],
      "name": "getTokenURIByPostID",
      "outputs": [
        {
          "internalType": "string",
          "name": "",
          "type": "string"
        }
      ],
      "stateMutability": "view",
      "type": "function"
    },
    {
      "inputs": [
        {
          "internalType": "address",
          "name": "user",
          "type": "address"
        }
      ],
      "name": "deleteAllUserPosts",
      "outputs": [],
      "stateMutability": "nonpayable",
      "type": "function"
    }
  ],
  "bytecode": "0x608060405260006002553480156200001657600080fd5b506040516200002590620000c9565b604051809103906000f08015801562000042573d6000803e3d6000fd5b50600160006101000a81548173ffffffffffffffffffffffffffffffffffffffff021916908373ffffffffffffffffffffffffffffffffffffffff160217905550336000806101000a81548173ffffffffffffffffffffffffffffffffffffffff021916908373ffffffffffffffffffffffffffffffffffffffff160217905550620000d7565b61328e806200295f83390190565b61287880620000e76000396000f3fe608060405234801561001057600080fd5b506004361061009e5760003560e01c8063810e5f8d11610066578063810e5f8d14610157578063aa7e568314610187578063e82935da146101a3578063f4f7faf7146101bf578063ffd795d4146101ef5761009e565b8063094cd5ee146100a357806331a4bcb5146100bf578063392338f5146100db57806340731c241461010b57806374d21ae01461013b575b600080fd5b6100bd60048036038101906100b89190611812565b61020b565b005b6100d960048036038101906100d4919061183f565b61039a565b005b6100f560048036038101906100f091906119c5565b6105f9565b6040516101029190611a4c565b60405180910390f35b61012560048036038101906101209190611812565b610819565b6040516101329190611d6e565b60405180910390f35b61015560048036038101906101509190611812565b610c57565b005b610171600480360381019061016c9190611812565b610e49565b60405161017e9190611dda565b60405180910390f35b6101a1600480360381019061019c9190611dfc565b610ef3565b005b6101bd60048036038101906101b89190611812565b6110df565b005b6101d960048036038101906101d49190611812565b6112d2565b6040516101e69190611dda565b60405180910390f35b61020960048036038101906102049190611e84565b6113fb565b005b806003600082815260200190815260200160002060010160009054906101000a900473ffffffffffffffffffffffffffffffffffffffff1673ffffffffffffffffffffffffffffffffffffffff163373ffffffffffffffffffffffffffffffffffffffff16146102b0576040517f08c379a00000000000000000000000000000000000000000000000000000000081526004016102a790611f23565b60405180910390fd5b81600081101580156102c3575060025481105b610302576040517f08c379a00000000000000000000000000000000000000000000000000000000081526004016102f990611f8f565b60405180910390fd5b6003600082815260200190815260200160002060080160009054906101000a900460ff1615610366576040517f08c379a000000000000000000000000000000000000000000000000000000000815260040161035d90611ffb565b60405180910390fd5b60016003600085815260200190815260200160002060080160006101000a81548160ff021916908315150217905550505050565b81600081101580156103ad575060025481105b6103ec576040517f08c379a00000000000000000000000000000000000000000000000000000000081526004016103e390611f8f565b60405180910390fd5b6003600082815260200190815260200160002060080160009054906101000a900460ff1615610450576040517f08c379a000000000000000000000000000000000000000000000000000000000815260040161044790611ffb565b60405180910390fd5b600082101580156104795750600360008481526020019081526020016000206004018054905082105b6104b8576040517f08c379a00000000000000000000000000000000000000000000000000000000081526004016104af90612067565b60405180910390fd5b60006003600085815260200190815260200160002060040183815481106104e2576104e1612087565b5b906000526020600020906005020190508060040160009054906101000a900460ff1615610544576040517f08c379a000000000000000000000000000000000000000000000000000000000815260040161053b90612102565b60405180910390fd5b3373ffffffffffffffffffffffffffffffffffffffff168160010160009054906101000a900473ffffffffffffffffffffffffffffffffffffffff1673ffffffffffffffffffffffffffffffffffffffff16146105d6576040517f08c379a00000000000000000000000000000000000000000000000000000000081526004016105cd90612194565b60405180910390fd5b60018160040160006101000a81548160ff02191690831515021790555050505050565b6000807fffffffffffffffffffffffffffffffffffffffffffffffffffffffffffffffff90506000835111156106cc57600160009054906101000a900473ffffffffffffffffffffffffffffffffffffffff1673ffffffffffffffffffffffffffffffffffffffff1663d0def52133856040518363ffffffff1660e01b81526004016106869291906121c3565b6020604051808303816000875af11580156106a5573d6000803e3d6000fd5b505050506040513d601f19601f820116820180604052508101906106c99190612208565b90505b600060036000600254815260200190815260200160002090506002548160000181905550338160010160006101000a81548173ffffffffffffffffffffffffffffffffffffffff021916908373ffffffffffffffffffffffffffffffffffffffff160217905550848160020190816107449190612441565b50600081600301819055504281600501819055506000816006018190555081816007018190555060008160080160006101000a81548160ff0219169083151502179055506002600081548092919061079b90612542565b9190505550600560003373ffffffffffffffffffffffffffffffffffffffff1673ffffffffffffffffffffffffffffffffffffffff1681526020019081526020016000208160000154908060018154018082558091505060019003906000526020600020016000909190919091505580600001549250505092915050565b610821611609565b8160008110158015610834575060025481105b610873576040517f08c379a000000000000000000000000000000000000000000000000000000000815260040161086a90611f8f565b60405180910390fd5b6003600082815260200190815260200160002060080160009054906101000a900460ff16156108d7576040517f08c379a00000000000000000000000000000000000000000000000000000000081526004016108ce90611ffb565b60405180910390fd5b6108e0836115da565b60006003600085815260200190815260200160002060405180610120016040529081600082015481526020016001820160009054906101000a900473ffffffffffffffffffffffffffffffffffffffff1673ffffffffffffffffffffffffffffffffffffffff1673ffffffffffffffffffffffffffffffffffffffff16815260200160028201805461097190612264565b80601f016020809104026020016040519081016040528092919081815260200182805461099d90612264565b80156109ea5780601f106109bf576101008083540402835291602001916109ea565b820191906000526020600020905b8154815290600101906020018083116109cd57829003601f168201915b505050505081526020016003820154815260200160048201805480602002602001604051908101604052809291908181526020016000905b82821015610b6b57838290600052602060002090600502016040518060a0016040529081600082015481526020016001820160009054906101000a900473ffffffffffffffffffffffffffffffffffffffff1673ffffffffffffffffffffffffffffffffffffffff1673ffffffffffffffffffffffffffffffffffffffff16815260200160028201548152602001600382018054610abf90612264565b80601f0160208091040260200160405190810160405280929190818152602001828054610aeb90612264565b8015610b385780601f10610b0d57610100808354040283529160200191610b38565b820191906000526020600020905b815481529060010190602001808311610b1b57829003601f168201915b505050505081526020016004820160009054906101000a900460ff16151515158152505081526020019060010190610a22565b5050505081526020016005820154815260200160068201548152602001600782015481526020016008820160009054906101000a900460ff161515151581525050905060008160800151905060005b8151811015610c4b57818181518110610bd657610bd5612087565b5b60200260200101516080015115610c3857818181518110610bfa57610bf9612087565b5b60200260200101610c0961166d565b8152506001828281518110610c2157610c20612087565b5b602002602001015160800190151590811515815250505b8080610c4390612542565b915050610bba565b50819350505050919050565b8060008110158015610c6a575060025481105b610ca9576040517f08c379a0000000000000000000000000000000000000000000000000000000008152600401610ca090611f8f565b60405180910390fd5b6003600082815260200190815260200160002060080160009054906101000a900460ff1615610d0d576040517f08c379a0000000000000000000000000000000000000000000000000000000008152600401610d0490611ffb565b60405180910390fd5b60003390506004600084815260200190815260200160002060008273ffffffffffffffffffffffffffffffffffffffff1673ffffffffffffffffffffffffffffffffffffffff16815260200190815260200160002060009054906101000a900460ff16610daf576040517f08c379a0000000000000000000000000000000000000000000000000000000008152600401610da6906125d6565b60405180910390fd5b60006004600085815260200190815260200160002060008373ffffffffffffffffffffffffffffffffffffffff1673ffffffffffffffffffffffffffffffffffffffff16815260200190815260200160002060006101000a81548160ff021916908315150217905550600360008481526020019081526020016000206003016000815480929190610e3f906125f6565b9190505550505050565b6060600160009054906101000a900473ffffffffffffffffffffffffffffffffffffffff1673ffffffffffffffffffffffffffffffffffffffff1663c87b56dd836040518263ffffffff1660e01b8152600401610ea69190611a4c565b600060405180830381865afa158015610ec3573d6000803e3d6000fd5b505050506040513d6000823e3d601f19601f82011682018060405250810190610eec919061268f565b9050919050565b8160008110158015610f06575060025481105b610f45576040517f08c379a0000000000000000000000000000000000000000000000000000000008152600401610f3c90611f8f565b60405180910390fd5b6003600082815260200190815260200160002060080160009054906101000a900460ff1615610fa9576040517f08c379a0000000000000000000000000000000000000000000000000000000008152600401610fa090611ffb565b60405180910390fd5b600060036000858152602001908152602001600020600401805490509050600360008581526020019081526020016000206004016040518060a001604052808381526020013373ffffffffffffffffffffffffffffffffffffffff1681526020014281526020018581526020016000151581525090806001815401808255809150506001900390600052602060002090600502016000909190919091506000820151816000015560208201518160010160006101000a81548173ffffffffffffffffffffffffffffffffffffffff021916908373ffffffffffffffffffffffffffffffffffffffff1602179055506040820151816002015560608201518160030190816110b69190612441565b5060808201518160040160006101000a81548160ff021916908315150217905550505050505050565b80600081101580156110f2575060025481105b611131576040517f08c379a000000000000000000000000000000000000000000000000000000000815260040161112890611f8f565b60405180910390fd5b6003600082815260200190815260200160002060080160009054906101000a900460ff1615611195576040517f08c379a000000000000000000000000000000000000000000000000000000000815260040161118c90611ffb565b60405180910390fd5b60003390506004600084815260200190815260200160002060008273ffffffffffffffffffffffffffffffffffffffff1673ffffffffffffffffffffffffffffffffffffffff16815260200190815260200160002060009054906101000a900460ff1615611238576040517f08c379a000000000000000000000000000000000000000000000000000000000815260040161122f90612724565b60405180910390fd5b60016004600085815260200190815260200160002060008373ffffffffffffffffffffffffffffffffffffffff1673ffffffffffffffffffffffffffffffffffffffff16815260200190815260200160002060006101000a81548160ff0219169083151502179055506003600084815260200190815260200160002060030160008154809291906112c890612542565b9190505550505050565b606081600081101580156112e7575060025481105b611326576040517f08c379a000000000000000000000000000000000000000000000000000000000815260040161131d90611f8f565b60405180910390fd5b6003600082815260200190815260200160002060080160009054906101000a900460ff161561138a576040517f08c379a000000000000000000000000000000000000000000000000000000000815260040161138190611ffb565b60405180910390fd5b60006003600085815260200190815260200160002060070154905060008112156113e9576040517f08c379a00000000000000000000000000000000000000000000000000000000081526004016113e090612790565b60405180910390fd5b6113f281610e49565b92505050919050565b8073ffffffffffffffffffffffffffffffffffffffff163273ffffffffffffffffffffffffffffffffffffffff1614611469576040517f08c379a000000000000000000000000000000000000000000000000000000000815260040161146090612822565b60405180910390fd5b6000600560008373ffffffffffffffffffffffffffffffffffffffff1673ffffffffffffffffffffffffffffffffffffffff168152602001908152602001600020905060005b818054905081101561158a5760008282815481106114d0576114cf612087565b5b90600052602060002001549050600360008281526020019081526020016000206000808201600090556001820160006101000a81549073ffffffffffffffffffffffffffffffffffffffff021916905560028201600061153091906116b4565b600382016000905560048201600061154891906116f4565b6005820160009055600682016000905560078201600090556008820160006101000a81549060ff0219169055505050808061158290612542565b9150506114af565b50600560008373ffffffffffffffffffffffffffffffffffffffff1673ffffffffffffffffffffffffffffffffffffffff16815260200190815260200160002060006115d69190611718565b5050565b60036000828152602001908152602001600020600601600081548092919061160190612542565b919050555050565b60405180610120016040528060008152602001600073ffffffffffffffffffffffffffffffffffffffff1681526020016060815260200160008152602001606081526020016000815260200160008152602001600081526020016000151581525090565b6040518060a0016040528060008152602001600073ffffffffffffffffffffffffffffffffffffffff16815260200160008152602001606081526020016000151581525090565b5080546116c090612264565b6000825580601f106116d257506116f1565b601f0160209004906000526020600020908101906116f09190611739565b5b50565b50805460008255600502906000526020600020908101906117159190611756565b50565b50805460008255906000526020600020908101906117369190611739565b50565b5b8082111561175257600081600090555060010161173a565b5090565b5b808211156117c4576000808201600090556001820160006101000a81549073ffffffffffffffffffffffffffffffffffffffff021916905560028201600090556003820160006117a791906116b4565b6004820160006101000a81549060ff021916905550600501611757565b5090565b6000604051905090565b600080fd5b600080fd5b6000819050919050565b6117ef816117dc565b81146117fa57600080fd5b50565b60008135905061180c816117e6565b92915050565b600060208284031215611828576118276117d2565b5b6000611836848285016117fd565b91505092915050565b60008060408385031215611856576118556117d2565b5b6000611864858286016117fd565b9250506020611875858286016117fd565b9150509250929050565b600080fd5b600080fd5b6000601f19601f8301169050919050565b7f4e487b7100000000000000000000000000000000000000000000000000000000600052604160045260246000fd5b6118d282611889565b810181811067ffffffffffffffff821117156118f1576118f061189a565b5b80604052505050565b60006119046117c8565b905061191082826118c9565b919050565b600067ffffffffffffffff8211156119305761192f61189a565b5b61193982611889565b9050602081019050919050565b82818337600083830152505050565b600061196861196384611915565b6118fa565b90508281526020810184848401111561198457611983611884565b5b61198f848285611946565b509392505050565b600082601f8301126119ac576119ab61187f565b5b81356119bc848260208601611955565b91505092915050565b600080604083850312156119dc576119db6117d2565b5b600083013567ffffffffffffffff8111156119fa576119f96117d7565b5b611a0685828601611997565b925050602083013567ffffffffffffffff811115611a2757611a266117d7565b5b611a3385828601611997565b9150509250929050565b611a46816117dc565b82525050565b6000602082019050611a616000830184611a3d565b92915050565b611a70816117dc565b82525050565b600073ffffffffffffffffffffffffffffffffffffffff82169050919050565b6000611aa182611a76565b9050919050565b611ab181611a96565b82525050565b600081519050919050565b600082825260208201905092915050565b60005b83811015611af1578082015181840152602081019050611ad6565b60008484015250505050565b6000611b0882611ab7565b611b128185611ac2565b9350611b22818560208601611ad3565b611b2b81611889565b840191505092915050565b600081519050919050565b600082825260208201905092915050565b6000819050602082019050919050565b60008115159050919050565b611b7781611b62565b82525050565b600060a083016000830151611b956000860182611a67565b506020830151611ba86020860182611aa8565b506040830151611bbb6040860182611a67565b5060608301518482036060860152611bd38282611afd565b9150506080830151611be86080860182611b6e565b508091505092915050565b6000611bff8383611b7d565b905092915050565b6000602082019050919050565b6000611c1f82611b36565b611c298185611b41565b935083602082028501611c3b85611b52565b8060005b85811015611c775784840389528151611c588582611bf3565b9450611c6383611c07565b925060208a01995050600181019050611c3f565b50829750879550505050505092915050565b6000819050919050565b611c9c81611c89565b82525050565b600061012083016000830151611cbb6000860182611a67565b506020830151611cce6020860182611aa8565b5060408301518482036040860152611ce68282611afd565b9150506060830151611cfb6060860182611a67565b5060808301518482036080860152611d138282611c14565b91505060a0830151611d2860a0860182611a67565b5060c0830151611d3b60c0860182611a67565b5060e0830151611d4e60e0860182611c93565b50610100830151611d63610100860182611b6e565b508091505092915050565b60006020820190508181036000830152611d888184611ca2565b905092915050565b600082825260208201905092915050565b6000611dac82611ab7565b611db68185611d90565b9350611dc6818560208601611ad3565b611dcf81611889565b840191505092915050565b60006020820190508181036000830152611df48184611da1565b905092915050565b60008060408385031215611e1357611e126117d2565b5b6000611e21858286016117fd565b925050602083013567ffffffffffffffff811115611e4257611e416117d7565b5b611e4e85828601611997565b9150509250929050565b611e6181611a96565b8114611e6c57600080fd5b50565b600081359050611e7e81611e58565b92915050565b600060208284031215611e9a57611e996117d2565b5b6000611ea884828501611e6f565b91505092915050565b7f6f6e6c79206f776e6572206f6620706f73742063616e20646f2074686973206160008201527f6374696f6e000000000000000000000000000000000000000000000000000000602082015250565b6000611f0d602583611d90565b9150611f1882611eb1565b604082019050919050565b60006020820190508181036000830152611f3c81611f00565b9050919050565b7f696e76616c696420706f73742069640000000000000000000000000000000000600082015250565b6000611f79600f83611d90565b9150611f8482611f43565b602082019050919050565b60006020820190508181036000830152611fa881611f6c565b9050919050565b7f706f737420686173206265656e2064656c657465640000000000000000000000600082015250565b6000611fe5601583611d90565b9150611ff082611faf565b602082019050919050565b6000602082019050818103600083015261201481611fd8565b9050919050565b7f696e76616c696420636f6d6d656e742049440000000000000000000000000000600082015250565b6000612051601283611d90565b915061205c8261201b565b602082019050919050565b6000602082019050818103600083015261208081612044565b9050919050565b7f4e487b7100000000000000000000000000000000000000000000000000000000600052603260045260246000fd5b7f636f6d6d656e7420697320616c72656164792064656c65746564000000000000600082015250565b60006120ec601a83611d90565b91506120f7826120b6565b602082019050919050565b6000602082019050818103600083015261211b816120df565b9050919050565b7f6f6e6c79206f776e6572206f66207468697320636f6d6d656e742063616e206460008201527f656c657465207468697320636f6d6d656e740000000000000000000000000000602082015250565b600061217e603283611d90565b915061218982612122565b604082019050919050565b600060208201905081810360008301526121ad81612171565b9050919050565b6121bd81611a96565b82525050565b60006040820190506121d860008301856121b4565b81810360208301526121ea8184611da1565b90509392505050565b600081519050612202816117e6565b92915050565b60006020828403121561221e5761221d6117d2565b5b600061222c848285016121f3565b91505092915050565b7f4e487b7100000000000000000000000000000000000000000000000000000000600052602260045260246000fd5b6000600282049050600182168061227c57607f821691505b60208210810361228f5761228e612235565b5b50919050565b60008190508160005260206000209050919050565b60006020601f8301049050919050565b600082821b905092915050565b6000600883026122f77fffffffffffffffffffffffffffffffffffffffffffffffffffffffffffffffff826122ba565b61230186836122ba565b95508019841693508086168417925050509392505050565b6000819050919050565b600061233e612339612334846117dc565b612319565b6117dc565b9050919050565b6000819050919050565b61235883612323565b61236c61236482612345565b8484546122c7565b825550505050565b600090565b612381612374565b61238c81848461234f565b505050565b5b818110156123b0576123a5600082612379565b600181019050612392565b5050565b601f8211156123f5576123c681612295565b6123cf846122aa565b810160208510156123de578190505b6123f26123ea856122aa565b830182612391565b50505b505050565b600082821c905092915050565b6000612418600019846008026123fa565b1980831691505092915050565b60006124318383612407565b9150826002028217905092915050565b61244a82611ab7565b67ffffffffffffffff8111156124635761246261189a565b5b61246d8254612264565b6124788282856123b4565b600060209050601f8311600181146124ab5760008415612499578287015190505b6124a38582612425565b86555061250b565b601f1984166124b986612295565b60005b828110156124e1578489015182556001820191506020850194506020810190506124bc565b868310156124fe57848901516124fa601f891682612407565b8355505b6001600288020188555050505b505050505050565b7f4e487b7100000000000000000000000000000000000000000000000000000000600052601160045260246000fd5b600061254d826117dc565b91507fffffffffffffffffffffffffffffffffffffffffffffffffffffffffffffffff820361257f5761257e612513565b5b600182019050919050565b7f796f752068617665206e6f74206c696b6564207468697320706f737400000000600082015250565b60006125c0601c83611d90565b91506125cb8261258a565b602082019050919050565b600060208201905081810360008301526125ef816125b3565b9050919050565b6000612601826117dc565b91506000820361261457612613612513565b5b600182039050919050565b600061263261262d84611915565b6118fa565b90508281526020810184848401111561264e5761264d611884565b5b612659848285611ad3565b509392505050565b600082601f8301126126765761267561187f565b5b815161268684826020860161261f565b91505092915050565b6000602082840312156126a5576126a46117d2565b5b600082015167ffffffffffffffff8111156126c3576126c26117d7565b5b6126cf84828501612661565b91505092915050565b7f796f75206861766520616c7265616479206c696b6564207468697320706f7374600082015250565b600061270e602083611d90565b9150612719826126d8565b602082019050919050565b6000602082019050818103600083015261273d81612701565b9050919050565b7f7468697320706f737420646f6573206e6f742068617665206d65646961000000600082015250565b600061277a601d83611d90565b915061278582612744565b602082019050919050565b600060208201905081810360008301526127a98161276d565b9050919050565b7f6f6e6c79207468652073706563696669656420757365722063616e20696e697460008201527f69617465207468697320616374696f6e00000000000000000000000000000000602082015250565b600061280c603083611d90565b9150612817826127b0565b604082019050919050565b6000602082019050818103600083015261283b816127ff565b905091905056fea264697066735822122000dc2bbe5873440e8e1dc32b5149bab35f73380c4884a0bebd87db7c6088c13664736f6c6343000813003360806040526040518060600160405280602181526020016200326d60219139600890816200002e919062000398565b503480156200003c57600080fd5b506040518060400160405280601281526020017f44656669536f6369616c4d656469614e465400000000000000000000000000008152506040518060400160405280600381526020017f44534d00000000000000000000000000000000000000000000000000000000008152508160009081620000ba919062000398565b508060019081620000cc919062000398565b50505033600760006101000a81548173ffffffffffffffffffffffffffffffffffffffff021916908373ffffffffffffffffffffffffffffffffffffffff1602179055506000600a819055506200047f565b600081519050919050565b7f4e487b7100000000000000000000000000000000000000000000000000000000600052604160045260246000fd5b7f4e487b7100000000000000000000000000000000000000000000000000000000600052602260045260246000fd5b60006002820490506001821680620001a057607f821691505b602082108103620001b657620001b562000158565b5b50919050565b60008190508160005260206000209050919050565b60006020601f8301049050919050565b600082821b905092915050565b600060088302620002207fffffffffffffffffffffffffffffffffffffffffffffffffffffffffffffffff82620001e1565b6200022c8683620001e1565b95508019841693508086168417925050509392505050565b6000819050919050565b6000819050919050565b600062000279620002736200026d8462000244565b6200024e565b62000244565b9050919050565b6000819050919050565b620002958362000258565b620002ad620002a48262000280565b848454620001ee565b825550505050565b600090565b620002c4620002b5565b620002d18184846200028a565b505050565b5b81811015620002f957620002ed600082620002ba565b600181019050620002d7565b5050565b601f82111562000348576200031281620001bc565b6200031d84620001d1565b810160208510156200032d578190505b620003456200033c85620001d1565b830182620002d6565b50505b505050565b600082821c905092915050565b60006200036d600019846008026200034d565b1980831691505092915050565b60006200038883836200035a565b9150826002028217905092915050565b620003a3826200011e565b67ffffffffffffffff811115620003bf57620003be62000129565b5b620003cb825462000187565b620003d8828285620002fd565b600060209050601f831160018114620004105760008415620003fb578287015190505b6200040785826200037a565b86555062000477565b601f1984166200042086620001bc565b60005b828110156200044a5784890151825560018201915060208501945060208101905062000423565b868310156200046a578489015162000466601f8916826200035a565b8355505b6001600288020188555050505b505050505050565b612dde806200048f6000396000f3fe608060405234801561001057600080fd5b50600436106100ea5760003560e01c806370a082311161008c578063b88d4fde11610066578063b88d4fde1461025b578063c87b56dd14610277578063d0def521146102a7578063e985e9c5146102d7576100ea565b806370a08231146101f157806395d89b4114610221578063a22cb4651461023f576100ea565b8063095ea7b3116100c8578063095ea7b31461016d57806323b872dd1461018957806342842e0e146101a55780636352211e146101c1576100ea565b806301ffc9a7146100ef57806306fdde031461011f578063081812fc1461013d575b600080fd5b61010960048036038101906101049190611b41565b610307565b6040516101169190611b89565b60405180910390f35b6101276103e9565b6040516101349190611c34565b60405180910390f35b61015760048036038101906101529190611c8c565b61047b565b6040516101649190611cfa565b60405180910390f35b61018760048036038101906101829190611d41565b6104c1565b005b6101a3600480360381019061019e9190611d81565b6105d8565b005b6101bf60048036038101906101ba9190611d81565b610638565b005b6101db60048036038101906101d69190611c8c565b610658565b6040516101e89190611cfa565b60405180910390f35b61020b60048036038101906102069190611dd4565b6106de565b6040516102189190611e10565b60405180910390f35b610229610795565b6040516102369190611c34565b60405180910390f35b61025960048036038101906102549190611e57565b610827565b005b61027560048036038101906102709190611fcc565b61083d565b005b610291600480360381019061028c9190611c8c565b61089f565b60405161029e9190611c34565b60405180910390f35b6102c160048036038101906102bc91906120f0565b6109b1565b6040516102ce9190611e10565b60405180910390f35b6102f160048036038101906102ec919061214c565b610b23565b6040516102fe9190611b89565b60405180910390f35b60007f80ac58cd000000000000000000000000000000000000000000000000000000007bffffffffffffffffffffffffffffffffffffffffffffffffffffffff1916827bffffffffffffffffffffffffffffffffffffffffffffffffffffffff191614806103d257507f5b5e139f000000000000000000000000000000000000000000000000000000007bffffffffffffffffffffffffffffffffffffffffffffffffffffffff1916827bffffffffffffffffffffffffffffffffffffffffffffffffffffffff1916145b806103e257506103e182610bb7565b5b9050919050565b6060600080546103f8906121bb565b80601f0160208091040260200160405190810160405280929190818152602001828054610424906121bb565b80156104715780601f1061044657610100808354040283529160200191610471565b820191906000526020600020905b81548152906001019060200180831161045457829003601f168201915b5050505050905090565b600061048682610c21565b6004600083815260200190815260200160002060009054906101000a900473ffffffffffffffffffffffffffffffffffffffff169050919050565b60006104cc82610658565b90508073ffffffffffffffffffffffffffffffffffffffff168373ffffffffffffffffffffffffffffffffffffffff160361053c576040517f08c379a00000000000000000000000000000000000000000000000000000000081526004016105339061225e565b60405180910390fd5b8073ffffffffffffffffffffffffffffffffffffffff1661055b610c6c565b73ffffffffffffffffffffffffffffffffffffffff16148061058a575061058981610584610c6c565b610b23565b5b6105c9576040517f08c379a00000000000000000000000000000000000000000000000000000000081526004016105c0906122f0565b60405180910390fd5b6105d38383610c74565b505050565b6105e96105e3610c6c565b82610d2d565b610628576040517f08c379a000000000000000000000000000000000000000000000000000000000815260040161061f90612382565b60405180910390fd5b610633838383610dc2565b505050565b6106538383836040518060200160405280600081525061083d565b505050565b600080610664836110bb565b9050600073ffffffffffffffffffffffffffffffffffffffff168173ffffffffffffffffffffffffffffffffffffffff16036106d5576040517f08c379a00000000000000000000000000000000000000000000000000000000081526004016106cc906123ee565b60405180910390fd5b80915050919050565b60008073ffffffffffffffffffffffffffffffffffffffff168273ffffffffffffffffffffffffffffffffffffffff160361074e576040517f08c379a000000000000000000000000000000000000000000000000000000000815260040161074590612480565b60405180910390fd5b600360008373ffffffffffffffffffffffffffffffffffffffff1673ffffffffffffffffffffffffffffffffffffffff168152602001908152602001600020549050919050565b6060600180546107a4906121bb565b80601f01602080910402602001604051908101604052809291908181526020018280546107d0906121bb565b801561081d5780601f106107f25761010080835404028352916020019161081d565b820191906000526020600020905b81548152906001019060200180831161080057829003601f168201915b5050505050905090565b610839610832610c6c565b83836110f8565b5050565b61084e610848610c6c565b83610d2d565b61088d576040517f08c379a000000000000000000000000000000000000000000000000000000000815260040161088490612382565b60405180910390fd5b61089984848484611264565b50505050565b60606108aa82610c21565b60006006600084815260200190815260200160002080546108ca906121bb565b80601f01602080910402602001604051908101604052809291908181526020018280546108f6906121bb565b80156109435780601f1061091857610100808354040283529160200191610943565b820191906000526020600020905b81548152906001019060200180831161092657829003601f168201915b5050505050905060006109546112c0565b905060008151036109695781925050506109ac565b60008251111561099e5780826040516020016109869291906124dc565b604051602081830303815290604052925050506109ac565b6109a784611352565b925050505b919050565b60003373ffffffffffffffffffffffffffffffffffffffff16600760009054906101000a900473ffffffffffffffffffffffffffffffffffffffff1673ffffffffffffffffffffffffffffffffffffffff1614610a43576040517f08c379a0000000000000000000000000000000000000000000000000000000008152600401610a3a9061254c565b60405180910390fd5b600982604051610a53919061256c565b908152602001604051809103902060009054906101000a900460ff1615610aaf576040517f08c379a0000000000000000000000000000000000000000000000000000000008152600401610aa6906125f5565b60405180910390fd5b6001600983604051610ac1919061256c565b908152602001604051809103902060006101000a81548160ff0219169083151502179055506000600a549050610af784826113ba565b610b0181846113d8565b600a6000815480929190610b1490612644565b91905055508091505092915050565b6000600560008473ffffffffffffffffffffffffffffffffffffffff1673ffffffffffffffffffffffffffffffffffffffff16815260200190815260200160002060008373ffffffffffffffffffffffffffffffffffffffff1673ffffffffffffffffffffffffffffffffffffffff16815260200190815260200160002060009054906101000a900460ff16905092915050565b60007f01ffc9a7000000000000000000000000000000000000000000000000000000007bffffffffffffffffffffffffffffffffffffffffffffffffffffffff1916827bffffffffffffffffffffffffffffffffffffffffffffffffffffffff1916149050919050565b610c2a81611445565b610c69576040517f08c379a0000000000000000000000000000000000000000000000000000000008152600401610c60906123ee565b60405180910390fd5b50565b600033905090565b816004600083815260200190815260200160002060006101000a81548173ffffffffffffffffffffffffffffffffffffffff021916908373ffffffffffffffffffffffffffffffffffffffff160217905550808273ffffffffffffffffffffffffffffffffffffffff16610ce783610658565b73ffffffffffffffffffffffffffffffffffffffff167f8c5be1e5ebec7d5bd14f71427d1e84f3dd0314c0f7b2291e5b200ac8c7c3b92560405160405180910390a45050565b600080610d3983610658565b90508073ffffffffffffffffffffffffffffffffffffffff168473ffffffffffffffffffffffffffffffffffffffff161480610d7b5750610d7a8185610b23565b5b80610db957508373ffffffffffffffffffffffffffffffffffffffff16610da18461047b565b73ffffffffffffffffffffffffffffffffffffffff16145b91505092915050565b8273ffffffffffffffffffffffffffffffffffffffff16610de282610658565b73ffffffffffffffffffffffffffffffffffffffff1614610e38576040517f08c379a0000000000000000000000000000000000000000000000000000000008152600401610e2f906126fe565b60405180910390fd5b600073ffffffffffffffffffffffffffffffffffffffff168273ffffffffffffffffffffffffffffffffffffffff1603610ea7576040517f08c379a0000000000000000000000000000000000000000000000000000000008152600401610e9e90612790565b60405180910390fd5b610eb48383836001611486565b8273ffffffffffffffffffffffffffffffffffffffff16610ed482610658565b73ffffffffffffffffffffffffffffffffffffffff1614610f2a576040517f08c379a0000000000000000000000000000000000000000000000000000000008152600401610f21906126fe565b60405180910390fd5b6004600082815260200190815260200160002060006101000a81549073ffffffffffffffffffffffffffffffffffffffff02191690556001600360008573ffffffffffffffffffffffffffffffffffffffff1673ffffffffffffffffffffffffffffffffffffffff168152602001908152602001600020600082825403925050819055506001600360008473ffffffffffffffffffffffffffffffffffffffff1673ffffffffffffffffffffffffffffffffffffffff16815260200190815260200160002060008282540192505081905550816002600083815260200190815260200160002060006101000a81548173ffffffffffffffffffffffffffffffffffffffff021916908373ffffffffffffffffffffffffffffffffffffffff160217905550808273ffffffffffffffffffffffffffffffffffffffff168473ffffffffffffffffffffffffffffffffffffffff167fddf252ad1be2c89b69c2b068fc378daa952ba7f163c4a11628f55a4df523b3ef60405160405180910390a46110b6838383600161148c565b505050565b60006002600083815260200190815260200160002060009054906101000a900473ffffffffffffffffffffffffffffffffffffffff169050919050565b8173ffffffffffffffffffffffffffffffffffffffff168373ffffffffffffffffffffffffffffffffffffffff1603611166576040517f08c379a000000000000000000000000000000000000000000000000000000000815260040161115d906127fc565b60405180910390fd5b80600560008573ffffffffffffffffffffffffffffffffffffffff1673ffffffffffffffffffffffffffffffffffffffff16815260200190815260200160002060008473ffffffffffffffffffffffffffffffffffffffff1673ffffffffffffffffffffffffffffffffffffffff16815260200190815260200160002060006101000a81548160ff0219169083151502179055508173ffffffffffffffffffffffffffffffffffffffff168373ffffffffffffffffffffffffffffffffffffffff167f17307eab39ab6107e8899845ad3d59bd9653f200f220920489ca2b5937696c31836040516112579190611b89565b60405180910390a3505050565b61126f848484610dc2565b61127b84848484611492565b6112ba576040517f08c379a00000000000000000000000000000000000000000000000000000000081526004016112b19061288e565b60405180910390fd5b50505050565b6060600880546112cf906121bb565b80601f01602080910402602001604051908101604052809291908181526020018280546112fb906121bb565b80156113485780601f1061131d57610100808354040283529160200191611348565b820191906000526020600020905b81548152906001019060200180831161132b57829003601f168201915b5050505050905090565b606061135d82610c21565b60006113676112c0565b9050600081511161138757604051806020016040528060008152506113b2565b8061139184611619565b6040516020016113a29291906124dc565b6040516020818303038152906040525b915050919050565b6113d48282604051806020016040528060008152506116e7565b5050565b6113e182611445565b611420576040517f08c379a000000000000000000000000000000000000000000000000000000000815260040161141790612920565b60405180910390fd5b806006600084815260200190815260200160002090816114409190612aec565b505050565b60008073ffffffffffffffffffffffffffffffffffffffff16611467836110bb565b73ffffffffffffffffffffffffffffffffffffffff1614159050919050565b50505050565b50505050565b60006114b38473ffffffffffffffffffffffffffffffffffffffff16611742565b1561160c578373ffffffffffffffffffffffffffffffffffffffff1663150b7a026114dc610c6c565b8786866040518563ffffffff1660e01b81526004016114fe9493929190612c13565b6020604051808303816000875af192505050801561153a57506040513d601f19601f820116820180604052508101906115379190612c74565b60015b6115bc573d806000811461156a576040519150601f19603f3d011682016040523d82523d6000602084013e61156f565b606091505b5060008151036115b4576040517f08c379a00000000000000000000000000000000000000000000000000000000081526004016115ab9061288e565b60405180910390fd5b805181602001fd5b63150b7a0260e01b7bffffffffffffffffffffffffffffffffffffffffffffffffffffffff1916817bffffffffffffffffffffffffffffffffffffffffffffffffffffffff191614915050611611565b600190505b949350505050565b60606000600161162884611765565b01905060008167ffffffffffffffff81111561164757611646611ea1565b5b6040519080825280601f01601f1916602001820160405280156116795781602001600182028036833780820191505090505b509050600082602001820190505b6001156116dc578080600190039150507f3031323334353637383961626364656600000000000000000000000000000000600a86061a8153600a85816116d0576116cf612ca1565b5b04945060008503611687575b819350505050919050565b6116f183836118b8565b6116fe6000848484611492565b61173d576040517f08c379a00000000000000000000000000000000000000000000000000000000081526004016117349061288e565b60405180910390fd5b505050565b6000808273ffffffffffffffffffffffffffffffffffffffff163b119050919050565b600080600090507a184f03e93ff9f4daa797ed6e38ed64bf6a1f01000000000000000083106117c3577a184f03e93ff9f4daa797ed6e38ed64bf6a1f01000000000000000083816117b9576117b8612ca1565b5b0492506040810190505b6d04ee2d6d415b85acef81000000008310611800576d04ee2d6d415b85acef810000000083816117f6576117f5612ca1565b5b0492506020810190505b662386f26fc10000831061182f57662386f26fc10000838161182557611824612ca1565b5b0492506010810190505b6305f5e1008310611858576305f5e100838161184e5761184d612ca1565b5b0492506008810190505b612710831061187d57612710838161187357611872612ca1565b5b0492506004810190505b606483106118a0576064838161189657611895612ca1565b5b0492506002810190505b600a83106118af576001810190505b80915050919050565b600073ffffffffffffffffffffffffffffffffffffffff168273ffffffffffffffffffffffffffffffffffffffff1603611927576040517f08c379a000000000000000000000000000000000000000000000000000000000815260040161191e90612d1c565b60405180910390fd5b61193081611445565b15611970576040517f08c379a000000000000000000000000000000000000000000000000000000000815260040161196790612d88565b60405180910390fd5b61197e600083836001611486565b61198781611445565b156119c7576040517f08c379a00000000000000000000000000000000000000000000000000000000081526004016119be90612d88565b60405180910390fd5b6001600360008473ffffffffffffffffffffffffffffffffffffffff1673ffffffffffffffffffffffffffffffffffffffff16815260200190815260200160002060008282540192505081905550816002600083815260200190815260200160002060006101000a81548173ffffffffffffffffffffffffffffffffffffffff021916908373ffffffffffffffffffffffffffffffffffffffff160217905550808273ffffffffffffffffffffffffffffffffffffffff16600073ffffffffffffffffffffffffffffffffffffffff167fddf252ad1be2c89b69c2b068fc378daa952ba7f163c4a11628f55a4df523b3ef60405160405180910390a4611ad160008383600161148c565b5050565b6000604051905090565b600080fd5b600080fd5b60007fffffffff0000000000000000000000000000000000000000000000000000000082169050919050565b611b1e81611ae9565b8114611b2957600080fd5b50565b600081359050611b3b81611b15565b92915050565b600060208284031215611b5757611b56611adf565b5b6000611b6584828501611b2c565b91505092915050565b60008115159050919050565b611b8381611b6e565b82525050565b6000602082019050611b9e6000830184611b7a565b92915050565b600081519050919050565b600082825260208201905092915050565b60005b83811015611bde578082015181840152602081019050611bc3565b60008484015250505050565b6000601f19601f8301169050919050565b6000611c0682611ba4565b611c108185611baf565b9350611c20818560208601611bc0565b611c2981611bea565b840191505092915050565b60006020820190508181036000830152611c4e8184611bfb565b905092915050565b6000819050919050565b611c6981611c56565b8114611c7457600080fd5b50565b600081359050611c8681611c60565b92915050565b600060208284031215611ca257611ca1611adf565b5b6000611cb084828501611c77565b91505092915050565b600073ffffffffffffffffffffffffffffffffffffffff82169050919050565b6000611ce482611cb9565b9050919050565b611cf481611cd9565b82525050565b6000602082019050611d0f6000830184611ceb565b92915050565b611d1e81611cd9565b8114611d2957600080fd5b50565b600081359050611d3b81611d15565b92915050565b60008060408385031215611d5857611d57611adf565b5b6000611d6685828601611d2c565b9250506020611d7785828601611c77565b9150509250929050565b600080600060608486031215611d9a57611d99611adf565b5b6000611da886828701611d2c565b9350506020611db986828701611d2c565b9250506040611dca86828701611c77565b9150509250925092565b600060208284031215611dea57611de9611adf565b5b6000611df884828501611d2c565b91505092915050565b611e0a81611c56565b82525050565b6000602082019050611e256000830184611e01565b92915050565b611e3481611b6e565b8114611e3f57600080fd5b50565b600081359050611e5181611e2b565b92915050565b60008060408385031215611e6e57611e6d611adf565b5b6000611e7c85828601611d2c565b9250506020611e8d85828601611e42565b9150509250929050565b600080fd5b600080fd5b7f4e487b7100000000000000000000000000000000000000000000000000000000600052604160045260246000fd5b611ed982611bea565b810181811067ffffffffffffffff82111715611ef857611ef7611ea1565b5b80604052505050565b6000611f0b611ad5565b9050611f178282611ed0565b919050565b600067ffffffffffffffff821115611f3757611f36611ea1565b5b611f4082611bea565b9050602081019050919050565b82818337600083830152505050565b6000611f6f611f6a84611f1c565b611f01565b905082815260208101848484011115611f8b57611f8a611e9c565b5b611f96848285611f4d565b509392505050565b600082601f830112611fb357611fb2611e97565b5b8135611fc3848260208601611f5c565b91505092915050565b60008060008060808587031215611fe657611fe5611adf565b5b6000611ff487828801611d2c565b945050602061200587828801611d2c565b935050604061201687828801611c77565b925050606085013567ffffffffffffffff81111561203757612036611ae4565b5b61204387828801611f9e565b91505092959194509250565b600067ffffffffffffffff82111561206a57612069611ea1565b5b61207382611bea565b9050602081019050919050565b600061209361208e8461204f565b611f01565b9050828152602081018484840111156120af576120ae611e9c565b5b6120ba848285611f4d565b509392505050565b600082601f8301126120d7576120d6611e97565b5b81356120e7848260208601612080565b91505092915050565b6000806040838503121561210757612106611adf565b5b600061211585828601611d2c565b925050602083013567ffffffffffffffff81111561213657612135611ae4565b5b612142858286016120c2565b9150509250929050565b6000806040838503121561216357612162611adf565b5b600061217185828601611d2c565b925050602061218285828601611d2c565b9150509250929050565b7f4e487b7100000000000000000000000000000000000000000000000000000000600052602260045260246000fd5b600060028204905060018216806121d357607f821691505b6020821081036121e6576121e561218c565b5b50919050565b7f4552433732313a20617070726f76616c20746f2063757272656e74206f776e6560008201527f7200000000000000000000000000000000000000000000000000000000000000602082015250565b6000612248602183611baf565b9150612253826121ec565b604082019050919050565b600060208201905081810360008301526122778161223b565b9050919050565b7f4552433732313a20617070726f76652063616c6c6572206973206e6f7420746f60008201527f6b656e206f776e6572206f7220617070726f76656420666f7220616c6c000000602082015250565b60006122da603d83611baf565b91506122e58261227e565b604082019050919050565b60006020820190508181036000830152612309816122cd565b9050919050565b7f4552433732313a2063616c6c6572206973206e6f7420746f6b656e206f776e6560008201527f72206f7220617070726f76656400000000000000000000000000000000000000602082015250565b600061236c602d83611baf565b915061237782612310565b604082019050919050565b6000602082019050818103600083015261239b8161235f565b9050919050565b7f4552433732313a20696e76616c696420746f6b656e2049440000000000000000600082015250565b60006123d8601883611baf565b91506123e3826123a2565b602082019050919050565b60006020820190508181036000830152612407816123cb565b9050919050565b7f4552433732313a2061646472657373207a65726f206973206e6f74206120766160008201527f6c6964206f776e65720000000000000000000000000000000000000000000000602082015250565b600061246a602983611baf565b91506124758261240e565b604082019050919050565b600060208201905081810360008301526124998161245d565b9050919050565b600081905092915050565b60006124b682611ba4565b6124c081856124a0565b93506124d0818560208601611bc0565b80840191505092915050565b60006124e882856124ab565b91506124f482846124ab565b91508190509392505050565b7f6f776e6572206f6e6c7900000000000000000000000000000000000000000000600082015250565b6000612536600a83611baf565b915061254182612500565b602082019050919050565b6000602082019050818103600083015261256581612529565b9050919050565b600061257882846124ab565b915081905092915050565b7f7468697320696d6167652068617320616c7265616479206265656e206d696e7460008201527f656420746f20736f6d65206e6674000000000000000000000000000000000000602082015250565b60006125df602e83611baf565b91506125ea82612583565b604082019050919050565b6000602082019050818103600083015261260e816125d2565b9050919050565b7f4e487b7100000000000000000000000000000000000000000000000000000000600052601160045260246000fd5b600061264f82611c56565b91507fffffffffffffffffffffffffffffffffffffffffffffffffffffffffffffffff820361268157612680612615565b5b600182019050919050565b7f4552433732313a207472616e736665722066726f6d20696e636f72726563742060008201527f6f776e6572000000000000000000000000000000000000000000000000000000602082015250565b60006126e8602583611baf565b91506126f38261268c565b604082019050919050565b60006020820190508181036000830152612717816126db565b9050919050565b7f4552433732313a207472616e7366657220746f20746865207a65726f2061646460008201527f7265737300000000000000000000000000000000000000000000000000000000602082015250565b600061277a602483611baf565b91506127858261271e565b604082019050919050565b600060208201905081810360008301526127a98161276d565b9050919050565b7f4552433732313a20617070726f766520746f2063616c6c657200000000000000600082015250565b60006127e6601983611baf565b91506127f1826127b0565b602082019050919050565b60006020820190508181036000830152612815816127d9565b9050919050565b7f4552433732313a207472616e7366657220746f206e6f6e20455243373231526560008201527f63656976657220696d706c656d656e7465720000000000000000000000000000602082015250565b6000612878603283611baf565b91506128838261281c565b604082019050919050565b600060208201905081810360008301526128a78161286b565b9050919050565b7f45524337323155524953746f726167653a2055524920736574206f66206e6f6e60008201527f6578697374656e7420746f6b656e000000000000000000000000000000000000602082015250565b600061290a602e83611baf565b9150612915826128ae565b604082019050919050565b60006020820190508181036000830152612939816128fd565b9050919050565b60008190508160005260206000209050919050565b60006020601f8301049050919050565b600082821b905092915050565b6000600883026129a27fffffffffffffffffffffffffffffffffffffffffffffffffffffffffffffffff82612965565b6129ac8683612965565b95508019841693508086168417925050509392505050565b6000819050919050565b60006129e96129e46129df84611c56565b6129c4565b611c56565b9050919050565b6000819050919050565b612a03836129ce565b612a17612a0f826129f0565b848454612972565b825550505050565b600090565b612a2c612a1f565b612a378184846129fa565b505050565b5b81811015612a5b57612a50600082612a24565b600181019050612a3d565b5050565b601f821115612aa057612a7181612940565b612a7a84612955565b81016020851015612a89578190505b612a9d612a9585612955565b830182612a3c565b50505b505050565b600082821c905092915050565b6000612ac360001984600802612aa5565b1980831691505092915050565b6000612adc8383612ab2565b9150826002028217905092915050565b612af582611ba4565b67ffffffffffffffff811115612b0e57612b0d611ea1565b5b612b1882546121bb565b612b23828285612a5f565b600060209050601f831160018114612b565760008415612b44578287015190505b612b4e8582612ad0565b865550612bb6565b601f198416612b6486612940565b60005b82811015612b8c57848901518255600182019150602085019450602081019050612b67565b86831015612ba95784890151612ba5601f891682612ab2565b8355505b6001600288020188555050505b505050505050565b600081519050919050565b600082825260208201905092915050565b6000612be582612bbe565b612bef8185612bc9565b9350612bff818560208601611bc0565b612c0881611bea565b840191505092915050565b6000608082019050612c286000830187611ceb565b612c356020830186611ceb565b612c426040830185611e01565b8181036060830152612c548184612bda565b905095945050505050565b600081519050612c6e81611b15565b92915050565b600060208284031215612c8a57612c89611adf565b5b6000612c9884828501612c5f565b91505092915050565b7f4e487b7100000000000000000000000000000000000000000000000000000000600052601260045260246000fd5b7f4552433732313a206d696e7420746f20746865207a65726f2061646472657373600082015250565b6000612d06602083611baf565b9150612d1182612cd0565b602082019050919050565b60006020820190508181036000830152612d3581612cf9565b9050919050565b7f4552433732313a20746f6b656e20616c7265616479206d696e74656400000000600082015250565b6000612d72601c83611baf565b9150612d7d82612d3c565b602082019050919050565b60006020820190508181036000830152612da181612d65565b905091905056fea2646970667358221220f39789c718fb582e77b5df4a8197a37c963e6bada50c158a60f4f58b42352ca364736f6c6343000813003368747470733a2f2f636c6f7564666c6172652d697066732e636f6d2f697066732f",
  "immutableReferences": {},
  "source": "pragma solidity ^0.8.0;\n\nimport \"./MediaNFT.sol\";\n\ncontract Post {\n\tstruct Comment {\n\t\tuint256 id;\n\t\taddress owner;\n\t\tuint256 timestamp;\n\t\tstring text;\n\t\tbool deleted;\n\t}\n\n\tstruct PostData {\n\t\tuint256 id;\n\t\taddress owner;\n\t\tstring caption;\n\t\tuint256 likes;\n\t\tComment[] comments;\n\t\tuint256 timestamp;\n\t\tuint256 viewCount;\n\t\tint mediaNFTID; // value of -1 dictates no media\n\t\tbool deleted;\n\t}\n\n\taddress owner;\n\tMediaNFT nftContract;\n\tuint256 nextPostID = 0;\n\tmapping(uint256 => PostData) idToPost;\n\t// keep track of who liked each post to ensure that there are no duplicate likes for this post (i.e an account cannot like a post twice)\n\tmapping(uint256 => mapping(address => bool)) hasLiked; \n\t// mapping for users to his/her post ids\n\tmapping(address => uint256[]) userToPosts;\n\n\n\tmodifier postOwnerOnly(uint256 id) {\n\t\trequire(msg.sender == idToPost[id].owner, \"only owner of post can do this action\");\n\t\t_;\n\t}\n\n\t// a valid post is defined as a non-deleted post with a valid id\n\tmodifier validPost(uint256 id) { \n\t\trequire (id >= 0 && id < nextPostID, \"invalid post id\");\n\t\trequire(!idToPost[id].deleted, \"post has been deleted\");\n\t\t_;\n\t}\n\n\tconstructor () {\n\t\tnftContract = new MediaNFT();\n\t\towner = msg.sender;\n\t}\n\n\tfunction incrViewCount(uint256 id) private {\n\t\tidToPost[id].viewCount++;\n\t}\n\n\tfunction getPost(uint256 id) public validPost(id) returns (PostData memory)  {\n\t\tincrViewCount(id);\n\t\tPostData memory post = idToPost[id];\n\t\t// filter out deleted comments\n\t\tComment[] memory comments = post.comments;\n\t\tfor (uint256 i = 0; i < comments.length; i++) {\n\t\t\tif (comments[i].deleted) {\n\t\t\t\tdelete comments[i];\n\t\t\t\tcomments[i].deleted = true;\n\t\t\t}\n\t\t}\n\t\treturn post;\n\t}\n\n\t// returns id of post created\n\tfunction createPost(string memory caption, string memory ipfsCID) public returns (uint) {\n\t\t// default value of -1 indicates this post does not have any media attached to it\n\t\tint mediaNFTID = -1;\n\t\t// if this post has a media (i.e cid parameter is non empty)\n\t\tif (bytes(ipfsCID).length > 0) { // same as ipfsCID != \"\", but cant do that in solidity\n\t\t\t// mint nft to user\n\t\t\tmediaNFTID = int(nftContract.mint(msg.sender, ipfsCID));\n\t\t}\n\t\tPostData storage post = idToPost[nextPostID];\n\n\t\tpost.id = nextPostID;\n\t\tpost.owner = msg.sender;\n\t\tpost.caption = caption;\n\t\tpost.likes = 0;\n\t\tpost.timestamp = block.timestamp;\n\t\tpost.viewCount = 0;\n\t\tpost.mediaNFTID = mediaNFTID;\n\t\tpost.deleted = false; \n\t\t\n\t\tnextPostID++;\n\t\tuserToPosts[msg.sender].push(post.id);\n\t\t\n\t\treturn post.id;\n\t}\n\n\tfunction like(uint256 id) public validPost(id) {\n\t\taddress liker = msg.sender;\n\t\trequire(!hasLiked[id][liker], \"you have already liked this post\");\n\t\thasLiked[id][liker] = true;\n\t\tidToPost[id].likes++;\n\t}\n\n\tfunction unlike(uint256 id) public validPost(id) {\n\t\taddress liker = msg.sender;\n\t\trequire(hasLiked[id][liker], \"you have not liked this post\");\n\t\thasLiked[id][liker] = false;\n\t\tidToPost[id].likes--;\n\t}\n\n\tfunction addComment(uint256 id, string memory text) public validPost(id) {\n\t\tuint256 commentID = idToPost[id].comments.length;\n\t\tidToPost[id].comments.push(Comment(commentID, msg.sender, block.timestamp, text, false));\n\t}\n\n\tfunction deleteComment(uint256 postID, uint256 commentID) public validPost(postID) {\n\t\trequire(commentID >= 0 && commentID < idToPost[postID].comments.length, \"invalid comment ID\");\n\t\tComment storage comment = idToPost[postID].comments[commentID];\n\t\trequire(!comment.deleted, \"comment is already deleted\");\n\t\trequire(comment.owner == msg.sender, \"only owner of this comment can delete this comment\");\n\t\tcomment.deleted = true;\n\t}\n\n\tfunction deletePost(uint256 id) public postOwnerOnly(id) validPost(id) {\n\t\tidToPost[id].deleted = true;\n\t}\n\n\tfunction getTokenURIByTokenID(uint id) public view returns (string memory) {\n\t\treturn nftContract.tokenURI(id);\n\t}\n\n\tfunction getTokenURIByPostID(uint id) public view validPost(id) returns (string memory) {\n\t\tint tokenId = idToPost[id].mediaNFTID;\n\t\trequire(tokenId >= 0, \"this post does not have media\");\n\t\treturn getTokenURIByTokenID(uint(tokenId));\n\t}\n\n\tfunction deleteAllUserPosts(address user) public {\n\t\trequire (tx.origin == user, \"only the specified user can initiate this action\");\n\t\tuint256[] storage posts = userToPosts[user];\n\t\tfor (uint i = 0; i < posts.length; i++) {\n\t\t\tuint256 postId = posts[i];\n\t\t\tdelete idToPost[postId];\n\t\t}\n\t\tdelete userToPosts[user];\n\t}\n}\n\n",
  "sourcePath": "/Users/cy/git/sch/is4302/DefiSocialMedia/contracts/Post.sol",
  "compiler": {
    "name": "solc",
    "version": "0.8.19+commit.7dd6d404.Emscripten.clang"
  },
  "schemaVersion": "3.4.11",
  "updatedAt": "2023-03-21T12:04:36.504Z",
  "devdoc": {
    "kind": "dev",
    "methods": {},
    "version": 1
  },
  "userdoc": {
    "kind": "user",
    "methods": {},
    "version": 1
  }
}