{
  "contractName": "Post",
  "abi": [
    {
      "inputs": [
        {
          "internalType": "contract RNG",
          "name": "_rngContract",
          "type": "address"
        },
        {
          "internalType": "contract MediaNFT",
          "name": "_nftContract",
          "type": "address"
        },
        {
          "internalType": "contract Token",
          "name": "_tokenContract",
          "type": "address"
        }
      ],
      "stateMutability": "nonpayable",
      "type": "constructor"
    },
    {
      "inputs": [
        {
          "internalType": "address",
          "name": "creator",
          "type": "address"
        },
        {
          "internalType": "address",
          "name": "viewer",
          "type": "address"
        }
      ],
      "name": "canViewCreatorPosts",
      "outputs": [
        {
          "internalType": "bool",
          "name": "",
          "type": "bool"
        }
      ],
      "stateMutability": "view",
      "type": "function",
      "constant": true
    },
    {
      "inputs": [
        {
          "internalType": "uint256",
          "name": "id",
          "type": "uint256"
        }
      ],
      "name": "notDeletedOrFlagged",
      "outputs": [
        {
          "internalType": "bool",
          "name": "",
          "type": "bool"
        }
      ],
      "stateMutability": "view",
      "type": "function",
      "constant": true
    },
    {
      "inputs": [
        {
          "internalType": "uint256",
          "name": "id",
          "type": "uint256"
        }
      ],
      "name": "getPost",
      "outputs": [
        {
          "components": [
            {
              "internalType": "uint256",
              "name": "id",
              "type": "uint256"
            },
            {
              "internalType": "address",
              "name": "owner",
              "type": "address"
            },
            {
              "internalType": "string",
              "name": "caption",
              "type": "string"
            },
            {
              "internalType": "uint256",
              "name": "likes",
              "type": "uint256"
            },
            {
              "components": [
                {
                  "internalType": "uint256",
                  "name": "id",
                  "type": "uint256"
                },
                {
                  "internalType": "address",
                  "name": "owner",
                  "type": "address"
                },
                {
                  "internalType": "uint256",
                  "name": "timestamp",
                  "type": "uint256"
                },
                {
                  "internalType": "string",
                  "name": "text",
                  "type": "string"
                }
              ],
              "internalType": "struct Post.Comment[]",
              "name": "comments",
              "type": "tuple[]"
            },
            {
              "internalType": "uint256",
              "name": "timestamp",
              "type": "uint256"
            },
            {
              "internalType": "uint256",
              "name": "viewCount",
              "type": "uint256"
            },
            {
              "internalType": "int256",
              "name": "mediaNFTID",
              "type": "int256"
            },
            {
              "internalType": "bool",
              "name": "deleted",
              "type": "bool"
            },
            {
              "internalType": "bool",
              "name": "flagged",
              "type": "bool"
            },
            {
              "internalType": "uint256",
              "name": "reportCount",
              "type": "uint256"
            }
          ],
          "internalType": "struct Post.PostData",
          "name": "",
          "type": "tuple"
        }
      ],
      "stateMutability": "nonpayable",
      "type": "function"
    },
    {
      "inputs": [
        {
          "internalType": "address",
          "name": "user",
          "type": "address"
        }
      ],
      "name": "getAllPostsByUser",
      "outputs": [
        {
          "components": [
            {
              "internalType": "uint256",
              "name": "id",
              "type": "uint256"
            },
            {
              "internalType": "address",
              "name": "owner",
              "type": "address"
            },
            {
              "internalType": "string",
              "name": "caption",
              "type": "string"
            },
            {
              "internalType": "uint256",
              "name": "likes",
              "type": "uint256"
            },
            {
              "components": [
                {
                  "internalType": "uint256",
                  "name": "id",
                  "type": "uint256"
                },
                {
                  "internalType": "address",
                  "name": "owner",
                  "type": "address"
                },
                {
                  "internalType": "uint256",
                  "name": "timestamp",
                  "type": "uint256"
                },
                {
                  "internalType": "string",
                  "name": "text",
                  "type": "string"
                }
              ],
              "internalType": "struct Post.Comment[]",
              "name": "comments",
              "type": "tuple[]"
            },
            {
              "internalType": "uint256",
              "name": "timestamp",
              "type": "uint256"
            },
            {
              "internalType": "uint256",
              "name": "viewCount",
              "type": "uint256"
            },
            {
              "internalType": "int256",
              "name": "mediaNFTID",
              "type": "int256"
            },
            {
              "internalType": "bool",
              "name": "deleted",
              "type": "bool"
            },
            {
              "internalType": "bool",
              "name": "flagged",
              "type": "bool"
            },
            {
              "internalType": "uint256",
              "name": "reportCount",
              "type": "uint256"
            }
          ],
          "internalType": "struct Post.PostData[]",
          "name": "",
          "type": "tuple[]"
        }
      ],
      "stateMutability": "nonpayable",
      "type": "function"
    },
    {
      "inputs": [
        {
          "internalType": "string",
          "name": "caption",
          "type": "string"
        },
        {
          "internalType": "string",
          "name": "ipfsCID",
          "type": "string"
        }
      ],
      "name": "createPost",
      "outputs": [
        {
          "internalType": "uint256",
          "name": "",
          "type": "uint256"
        }
      ],
      "stateMutability": "nonpayable",
      "type": "function"
    },
    {
      "inputs": [
        {
          "internalType": "uint256",
          "name": "id",
          "type": "uint256"
        }
      ],
      "name": "like",
      "outputs": [],
      "stateMutability": "nonpayable",
      "type": "function"
    },
    {
      "inputs": [
        {
          "internalType": "uint256",
          "name": "id",
          "type": "uint256"
        }
      ],
      "name": "unlike",
      "outputs": [],
      "stateMutability": "nonpayable",
      "type": "function"
    },
    {
      "inputs": [
        {
          "internalType": "uint256",
          "name": "id",
          "type": "uint256"
        },
        {
          "internalType": "string",
          "name": "text",
          "type": "string"
        }
      ],
      "name": "addComment",
      "outputs": [
        {
          "internalType": "uint256",
          "name": "",
          "type": "uint256"
        }
      ],
      "stateMutability": "nonpayable",
      "type": "function"
    },
    {
      "inputs": [
        {
          "internalType": "uint256",
          "name": "postID",
          "type": "uint256"
        },
        {
          "internalType": "uint256",
          "name": "commentID",
          "type": "uint256"
        }
      ],
      "name": "deleteComment",
      "outputs": [],
      "stateMutability": "nonpayable",
      "type": "function"
    },
    {
      "inputs": [
        {
          "internalType": "uint256",
          "name": "id",
          "type": "uint256"
        }
      ],
      "name": "deletePost",
      "outputs": [],
      "stateMutability": "nonpayable",
      "type": "function"
    },
    {
      "inputs": [
        {
          "internalType": "uint256",
          "name": "id",
          "type": "uint256"
        }
      ],
      "name": "reportPost",
      "outputs": [],
      "stateMutability": "nonpayable",
      "type": "function"
    },
    {
      "inputs": [
        {
          "internalType": "uint256",
          "name": "id",
          "type": "uint256"
        }
      ],
      "name": "getTokenURIByTokenID",
      "outputs": [
        {
          "internalType": "string",
          "name": "",
          "type": "string"
        }
      ],
      "stateMutability": "view",
      "type": "function",
      "constant": true
    },
    {
      "inputs": [
        {
          "internalType": "uint256",
          "name": "id",
          "type": "uint256"
        }
      ],
      "name": "getTokenURIByPostID",
      "outputs": [
        {
          "internalType": "string",
          "name": "",
          "type": "string"
        }
      ],
      "stateMutability": "view",
      "type": "function",
      "constant": true
    },
    {
      "inputs": [
        {
          "internalType": "contract User",
          "name": "_userContract",
          "type": "address"
        }
      ],
      "name": "setUserContract",
      "outputs": [],
      "stateMutability": "nonpayable",
      "type": "function"
    },
    {
      "inputs": [
        {
          "internalType": "address",
          "name": "user",
          "type": "address"
        }
      ],
      "name": "deleteAllUserPosts",
      "outputs": [],
      "stateMutability": "nonpayable",
      "type": "function"
    },
    {
      "inputs": [
        {
          "internalType": "uint256",
          "name": "id",
          "type": "uint256"
        }
      ],
      "name": "getOwner",
      "outputs": [
        {
          "internalType": "address",
          "name": "",
          "type": "address"
        }
      ],
      "stateMutability": "view",
      "type": "function",
      "constant": true
    },
    {
      "inputs": [
        {
          "internalType": "uint256",
          "name": "id",
          "type": "uint256"
        }
      ],
      "name": "getFlaggedStatus",
      "outputs": [
        {
          "internalType": "bool",
          "name": "",
          "type": "bool"
        }
      ],
      "stateMutability": "view",
      "type": "function",
      "constant": true
    },
    {
      "inputs": [
        {
          "internalType": "address",
          "name": "_adContract",
          "type": "address"
        }
      ],
      "name": "setAdContract",
      "outputs": [],
      "stateMutability": "nonpayable",
      "type": "function"
    },
    {
      "inputs": [
        {
          "internalType": "address",
          "name": "user",
          "type": "address"
        },
        {
          "internalType": "string",
          "name": "caption",
          "type": "string"
        },
        {
          "internalType": "string",
          "name": "ipfsCID",
          "type": "string"
        },
        {
          "internalType": "uint256",
          "name": "endTime",
          "type": "uint256"
        }
      ],
      "name": "createAd",
      "outputs": [
        {
          "internalType": "uint256",
          "name": "",
          "type": "uint256"
        }
      ],
      "stateMutability": "nonpayable",
      "type": "function"
    },
    {
      "inputs": [],
      "name": "getAd",
      "outputs": [
        {
          "components": [
            {
              "components": [
                {
                  "internalType": "uint256",
                  "name": "id",
                  "type": "uint256"
                },
                {
                  "internalType": "address",
                  "name": "owner",
                  "type": "address"
                },
                {
                  "internalType": "string",
                  "name": "caption",
                  "type": "string"
                },
                {
                  "internalType": "uint256",
                  "name": "likes",
                  "type": "uint256"
                },
                {
                  "components": [
                    {
                      "internalType": "uint256",
                      "name": "id",
                      "type": "uint256"
                    },
                    {
                      "internalType": "address",
                      "name": "owner",
                      "type": "address"
                    },
                    {
                      "internalType": "uint256",
                      "name": "timestamp",
                      "type": "uint256"
                    },
                    {
                      "internalType": "string",
                      "name": "text",
                      "type": "string"
                    }
                  ],
                  "internalType": "struct Post.Comment[]",
                  "name": "comments",
                  "type": "tuple[]"
                },
                {
                  "internalType": "uint256",
                  "name": "timestamp",
                  "type": "uint256"
                },
                {
                  "internalType": "uint256",
                  "name": "viewCount",
                  "type": "uint256"
                },
                {
                  "internalType": "int256",
                  "name": "mediaNFTID",
                  "type": "int256"
                },
                {
                  "internalType": "bool",
                  "name": "deleted",
                  "type": "bool"
                },
                {
                  "internalType": "bool",
                  "name": "flagged",
                  "type": "bool"
                },
                {
                  "internalType": "uint256",
                  "name": "reportCount",
                  "type": "uint256"
                }
              ],
              "internalType": "struct Post.PostData",
              "name": "postData",
              "type": "tuple"
            },
            {
              "internalType": "uint256",
              "name": "endTime",
              "type": "uint256"
            }
          ],
          "internalType": "struct Post.Ad",
          "name": "",
          "type": "tuple"
        },
        {
          "internalType": "bool",
          "name": "",
          "type": "bool"
        }
      ],
      "stateMutability": "nonpayable",
      "type": "function"
    },
    {
      "inputs": [],
      "name": "getAdRevenueDistribution",
      "outputs": [
        {
          "internalType": "address[]",
          "name": "",
          "type": "address[]"
        },
        {
          "internalType": "uint256[]",
          "name": "",
          "type": "uint256[]"
        },
        {
          "internalType": "uint256",
          "name": "",
          "type": "uint256"
        }
      ],
      "stateMutability": "view",
      "type": "function",
      "constant": true
    },
    {
      "inputs": [],
      "name": "resetMonthlyViewCounts",
      "outputs": [],
      "stateMutability": "nonpayable",
      "type": "function"
    },
    {
      "inputs": [
        {
          "internalType": "contract ContentModeration",
          "name": "_contentModerationContract",
          "type": "address"
        }
      ],
      "name": "setContentModerationContract",
      "outputs": [],
      "stateMutability": "nonpayable",
      "type": "function"
    },
    {
      "inputs": [
        {
          "internalType": "uint256",
          "name": "postId",
          "type": "uint256"
        }
      ],
      "name": "resetFlagAndReportCount",
      "outputs": [],
      "stateMutability": "nonpayable",
      "type": "function"
    },
    {
      "inputs": [
        {
          "internalType": "uint256",
          "name": "postId",
          "type": "uint256"
        },
        {
          "internalType": "uint256",
          "name": "disputeId",
          "type": "uint256"
        }
      ],
      "name": "getPostToReviewDispute",
      "outputs": [
        {
          "components": [
            {
              "internalType": "uint256",
              "name": "id",
              "type": "uint256"
            },
            {
              "internalType": "address",
              "name": "owner",
              "type": "address"
            },
            {
              "internalType": "string",
              "name": "caption",
              "type": "string"
            },
            {
              "internalType": "uint256",
              "name": "likes",
              "type": "uint256"
            },
            {
              "components": [
                {
                  "internalType": "uint256",
                  "name": "id",
                  "type": "uint256"
                },
                {
                  "internalType": "address",
                  "name": "owner",
                  "type": "address"
                },
                {
                  "internalType": "uint256",
                  "name": "timestamp",
                  "type": "uint256"
                },
                {
                  "internalType": "string",
                  "name": "text",
                  "type": "string"
                }
              ],
              "internalType": "struct Post.Comment[]",
              "name": "comments",
              "type": "tuple[]"
            },
            {
              "internalType": "uint256",
              "name": "timestamp",
              "type": "uint256"
            },
            {
              "internalType": "uint256",
              "name": "viewCount",
              "type": "uint256"
            },
            {
              "internalType": "int256",
              "name": "mediaNFTID",
              "type": "int256"
            },
            {
              "internalType": "bool",
              "name": "deleted",
              "type": "bool"
            },
            {
              "internalType": "bool",
              "name": "flagged",
              "type": "bool"
            },
            {
              "internalType": "uint256",
              "name": "reportCount",
              "type": "uint256"
            }
          ],
          "internalType": "struct Post.PostData",
          "name": "",
          "type": "tuple"
        }
      ],
      "stateMutability": "view",
      "type": "function",
      "constant": true
    },
    {
      "inputs": [
        {
          "internalType": "contract Feed",
          "name": "_feedContract",
          "type": "address"
        }
      ],
      "name": "setFeedContract",
      "outputs": [],
      "stateMutability": "nonpayable",
      "type": "function"
    }
  ],
  "bytecode": "0x608060405260006006556064600b553480156200001b57600080fd5b5060405162003972380380620039728339810160408190526200003e91620000a9565b600280546001600160a01b039384166001600160a01b031991821617909155600380549284169282169290921790915560048054939092169281169290921790556000805490911633179055620000fd565b6001600160a01b0381168114620000a657600080fd5b50565b600080600060608486031215620000bf57600080fd5b8351620000cc8162000090565b6020850151909350620000df8162000090565b6040850151909250620000f28162000090565b809150509250925092565b613865806200010d6000396000f3fe608060405234801561001057600080fd5b506004361061018e5760003560e01c80638f0e9aee116100de578063c41a360a11610097578063da4700ed11610071578063da4700ed146103c7578063e82935da146103dd578063f4f7faf7146103f0578063ffd795d41461040357600080fd5b8063c41a360a14610350578063d2a2b99f14610394578063d884d157146103a757600080fd5b80638f0e9aee146102c6578063950d8ba1146102d9578063a1206d4e14610304578063aa7e568314610317578063acb6b2691461032a578063ace0b1e81461033d57600080fd5b80634df0829c1161014b5780635fe993f0116101255780635fe993f01461026d5780636e6784da1461028057806374d21ae014610293578063810e5f8d146102a657600080fd5b80634df0829c1461022f5780634e2a790f14610252578063513c38d21461025a57600080fd5b8063094cd5ee14610193578063243d3597146101a85780632b435c2c146101c857806331a4bcb5146101db578063392338f5146101ee57806340731c241461020f575b600080fd5b6101a66101a1366004612dae565b610416565b005b6101b061050b565b6040516101bf93929190612dc7565b60405180910390f35b6101a66101d6366004612dae565b6105fd565b6101a66101e9366004612e54565b61069e565b6102016101fc366004612f3b565b6109f9565b6040519081526020016101bf565b61022261021d366004612dae565b610c0d565b6040516101bf919061312d565b61024261023d366004612dae565b610f1d565b60405190151581526020016101bf565b6101a6610f78565b610222610268366004612e54565b610fc1565b6101a661027b366004613155565b611331565b6101a661028e366004612dae565b61137d565b6101a66102a1366004612dae565b61158d565b6102b96102b4366004612dae565b611716565b6040516101bf9190613172565b6102016102d4366004613185565b61178e565b6102426102e7366004612dae565b600090815260076020526040902060080154610100900460ff1690565b6101a6610312366004613155565b611a4e565b610201610325366004613203565b611a9a565b610242610338366004613240565b611c92565b6101a661034b366004613155565b611d85565b61037c61035e366004612dae565b6000908152600760205260409020600101546001600160a01b031690565b6040516001600160a01b0390911681526020016101bf565b6101a66103a2366004613155565b611dd1565b6103ba6103b5366004613155565b611e1d565b6040516101bf9190613279565b6103cf611eb5565b6040516101bf9291906132db565b6101a66103eb366004612dae565b6123fa565b6102b96103fe366004612dae565b612611565b6101a6610411366004613155565b612758565b60008181526007602052604090206001015481906001600160a01b031633146104945760405162461bcd60e51b815260206004820152602560248201527f6f6e6c79206f776e6572206f6620706f73742063616e20646f2074686973206160448201526431ba34b7b760d91b60648201526084015b60405180910390fd5b8160065481106104b65760405162461bcd60e51b815260040161048b90613312565b600083815260076020526040902060080154839060ff16156104ea5760405162461bcd60e51b815260040161048b9061333b565b5050506000908152600760205260409020600801805460ff19166001179055565b60125460609081906000906001600160a01b0316331461053d5760405162461bcd60e51b815260040161048b9061336a565b600e600f6011548280548060200260200160405190810160405280929190818152602001828054801561059957602002820191906000526020600020905b81546001600160a01b0316815260019091019060200180831161057b575b50505050509250818054806020026020016040519081016040528092919081815260200182805480156105eb57602002820191906000526020600020905b8154815260200190600101908083116105d7575b50505050509150925092509250909192565b6013546001600160a01b0316331461067d5760405162461bcd60e51b815260206004820152603a60248201527f6f6e6c7920636f6e74656e74206d6f6465726174696f6e20636f6e747261637460448201527f2063616e206578656375746520746869732066756e6374696f6e000000000000606482015260840161048b565b600090815260076020526040812060088101805461ff001916905560090155565b8160065481106106c05760405162461bcd60e51b815260040161048b90613312565b600083815260076020526040902060080154839060ff16156106f45760405162461bcd60e51b815260040161048b9061333b565b6000848152600760205260409020600801548490610100900460ff161561072d5760405162461bcd60e51b815260040161048b906133b4565b600085815260076020526040902060010154610752906001600160a01b031632611c92565b61076e5760405162461bcd60e51b815260040161048b906133e3565b60008581526007602052604090206004015484106107c35760405162461bcd60e51b81526020600482015260126024820152711a5b9d985b1a590818dbdb5b595b9d08125160721b604482015260640161048b565b6000858152600760205260408120600401905b81548110156109b157858282815481106107f2576107f2613440565b9060005260206000209060040201600001540361099f57336001600160a01b031682828154811061082557610825613440565b60009182526020909120600160049092020101546001600160a01b0316146108aa5760405162461bcd60e51b815260206004820152603260248201527f6f6e6c79206f776e6572206f66207468697320636f6d6d656e742063616e2064604482015271195b195d19481d1a1a5cc818dbdb5b595b9d60721b606482015260840161048b565b815482906108ba9060019061346c565b815481106108ca576108ca613440565b90600052602060002090600402018282815481106108ea576108ea613440565b60009182526020909120825460049092020190815560018083015490820180546001600160a01b0319166001600160a01b0390921691909117905560028083015490820155600380820190610941908401826134f9565b5090505081805480610955576109556135d6565b6000828152602081206004600019909301928302018181556001810180546001600160a01b031916905560028101829055906109946003830182612bbd565b5050905550506109f2565b806109a9816135ec565b9150506107d6565b5060405162461bcd60e51b815260206004820152601360248201527218d85b9b9bdd08199a5b990818dbdb5b595b9d606a1b604482015260640161048b565b505b5050505050565b600154604051637b51e92760e11b8152336004820181905260009290916001600160a01b039091169063f6a3d24e90602401602060405180830381865afa158015610a48573d6000803e3d6000fd5b505050506040513d601f19601f82011682018060405250810190610a6c9190613605565b610a885760405162461bcd60e51b815260040161048b90613627565b82516000199015610b0b5760025460405163d0def52160e01b81526001600160a01b039091169063d0def52190610ac59033908890600401613654565b6020604051808303816000875af1158015610ae4573d6000803e3d6000fd5b505050506040513d601f19601f82011682018060405250810190610b089190613680565b90505b60065460008181526007602052604090209081556001810180546001600160a01b0319163317905560028101610b418782613699565b5060006003820181905542600583015560068083018290556007830184905560088301805460ff19169055805491610b78836135ec565b909155505033600090815260086020908152604080832084548154600181018355918552929093209092015560055482549151630840a76560e41b815260048101929092526001600160a01b03169063840a765090602401600060405180830381600087803b158015610bea57600080fd5b505af1158015610bfe573d6000803e3d6000fd5b50509154979650505050505050565b610c15612bfa565b816006548110610c375760405162461bcd60e51b815260040161048b90613312565b600083815260076020526040902060080154839060ff1615610c6b5760405162461bcd60e51b815260040161048b9061333b565b6000848152600760205260409020600801548490610100900460ff1615610ca45760405162461bcd60e51b815260040161048b906133b4565b60008581526007602090815260408083208151610160810183528154815260018201546001600160a01b0316938101939093526002810180549192840191610ceb9061347f565b80601f0160208091040260200160405190810160405280929190818152602001828054610d179061347f565b8015610d645780601f10610d3957610100808354040283529160200191610d64565b820191906000526020600020905b815481529060010190602001808311610d4757829003601f168201915b505050505081526020016003820154815260200160048201805480602002602001604051908101604052809291908181526020016000905b82821015610e8b57600084815260209081902060408051608081018252600486029092018054835260018101546001600160a01b031693830193909352600283015490820152600382018054919291606084019190610dfa9061347f565b80601f0160208091040260200160405190810160405280929190818152602001828054610e269061347f565b8015610e735780601f10610e4857610100808354040283529160200191610e73565b820191906000526020600020905b815481529060010190602001808311610e5657829003601f168201915b50505050508152505081526020019060010190610d9c565b5050509082525060058201546020808301919091526006830154604083015260078301546060830152600883015460ff8082161515608085015261010090910416151560a083015260099092015460c090910152810151909150610eef9032611c92565b610f0b5760405162461bcd60e51b815260040161048b906133e3565b610f148661288d565b95945050505050565b6000816006548110610f415760405162461bcd60e51b815260040161048b90613312565b6000838152600760205260409020600881015460ff16158015610f6e57506008810154610100900460ff16155b9250505b50919050565b6012546001600160a01b03163314610fa25760405162461bcd60e51b815260040161048b9061336a565b610fae600e6000612c61565b610fba600f6000612c61565b6000601155565b610fc9612bfa565b826006548110610feb5760405162461bcd60e51b815260040161048b90613312565b600084815260076020526040902060080154849060ff161561101f5760405162461bcd60e51b815260040161048b9061333b565b60135460405163888b367760e01b815233600482015285916001600160a01b03169063888b367790602401602060405180830381865afa158015611067573d6000803e3d6000fd5b505050506040513d601f19601f8201168201806040525081019061108b9190613680565b146110f05760405162461bcd60e51b815260206004820152602f60248201527f796f7520617265206e6f7420766f74696e6720666f722074686520737065636960448201526e199a595908191a5cdc1d5d19481a59608a1b606482015260840161048b565b60008581526007602090815260408083208151610160810183528154815260018201546001600160a01b03169381019390935260028101805491928401916111379061347f565b80601f01602080910402602001604051908101604052809291908181526020018280546111639061347f565b80156111b05780601f10611185576101008083540402835291602001916111b0565b820191906000526020600020905b81548152906001019060200180831161119357829003601f168201915b505050505081526020016003820154815260200160048201805480602002602001604051908101604052809291908181526020016000905b828210156112d757600084815260209081902060408051608081018252600486029092018054835260018101546001600160a01b0316938301939093526002830154908201526003820180549192916060840191906112469061347f565b80601f01602080910402602001604051908101604052809291908181526020018280546112729061347f565b80156112bf5780601f10611294576101008083540402835291602001916112bf565b820191906000526020600020905b8154815290600101906020018083116112a257829003601f168201915b505050505081525050815260200190600101906111e8565b50505090825250600582015460208201526006820154604082015260078201546060820152600882015460ff8082161515608084015261010090910416151560a082015260099091015460c0909101529695505050505050565b6000546001600160a01b0316331461135b5760405162461bcd60e51b815260040161048b90613751565b601280546001600160a01b0319166001600160a01b0392909216919091179055565b80600654811061139f5760405162461bcd60e51b815260040161048b90613312565b600082815260076020526040902060080154829060ff16156113d35760405162461bcd60e51b815260040161048b9061333b565b6000838152600760205260409020600801548390610100900460ff161561140c5760405162461bcd60e51b815260040161048b906133b4565b600154604051637b51e92760e11b81523360048201819052916001600160a01b03169063f6a3d24e90602401602060405180830381865afa158015611455573d6000803e3d6000fd5b505050506040513d601f19601f820116820180604052508101906114799190613605565b6114955760405162461bcd60e51b815260040161048b90613627565b6000858152600c6020908152604080832033845290915290205460ff161561150b5760405162461bcd60e51b815260206004820152602360248201527f796f75206861766520616c7265616479207265706f72746564207468697320706044820152621bdcdd60ea1b606482015260840161048b565b6000858152600760205260408120600901805491611528836135ec565b90915550506000858152600c602090815260408083203384528252808320805460ff19166001179055600b54888452600790925290912060090154106109f2576000858152600760205260409020600801805461ff0019166101001790555050505050565b8060065481106115af5760405162461bcd60e51b815260040161048b90613312565b600082815260076020526040902060080154829060ff16156115e35760405162461bcd60e51b815260040161048b9061333b565b6000838152600760205260409020600801548390610100900460ff161561161c5760405162461bcd60e51b815260040161048b906133b4565b600084815260076020526040902060010154611641906001600160a01b031632611c92565b61165d5760405162461bcd60e51b815260040161048b906133e3565b60008481526009602090815260408083203380855292529091205460ff166116c75760405162461bcd60e51b815260206004820152601c60248201527f796f752068617665206e6f74206c696b6564207468697320706f737400000000604482015260640161048b565b60008581526009602090815260408083206001600160a01b03851684528252808320805460ff191690558783526007909152812060030180549161170a83613788565b91905055505050505050565b60025460405163c87b56dd60e01b8152600481018390526060916001600160a01b03169063c87b56dd90602401600060405180830381865afa158015611760573d6000803e3d6000fd5b505050506040513d6000823e601f3d908101601f19168201604052611788919081019061379f565b92915050565b6012546000906001600160a01b031633146117bb5760405162461bcd60e51b815260040161048b9061336a565b8251600019901561183e5760025460405163d0def52160e01b81526001600160a01b039091169063d0def521906117f89089908890600401613654565b6020604051808303816000875af1158015611817573d6000803e3d6000fd5b505050506040513d601f19601f8201168201806040525081019061183b9190613680565b90505b600d8054600181018255600091909152600b027fd7b6990105719101dabeb77144f2a3385c8033acd3af97e9423a695e81ad1ebf81018490556006547fd7b6990105719101dabeb77144f2a3385c8033acd3af97e9423a695e81ad1eb582019081557fd7b6990105719101dabeb77144f2a3385c8033acd3af97e9423a695e81ad1eb6820180546001600160a01b0319166001600160a01b038a161790559081907fd7b6990105719101dabeb77144f2a3385c8033acd3af97e9423a695e81ad1eb70161190b8882613699565b506000600382018190554260058301556006820181905560078083018590556008808401805460ff191690556001600160a01b03808c16845260209182526040808520865481546001818101845592885285882001558654808752949093529093209182558084015490820180546001600160a01b0319169190931617909155819060028082019061199f908401826134f9565b506003820154816003015560048201816004019080546119c0929190612c7f565b5060058281015490820155600680830154818301556007808401549083015560088084018054918401805460ff938416151560ff19821681178355925461010090819004909416151590930261ff001990921661ffff199093169290921717905560099283015492909101919091558054906000611a3d836135ec565b909155505054979650505050505050565b6000546001600160a01b03163314611a785760405162461bcd60e51b815260040161048b90613751565b600180546001600160a01b0319166001600160a01b0392909216919091179055565b6000826006548110611abe5760405162461bcd60e51b815260040161048b90613312565b600084815260076020526040902060080154849060ff1615611af25760405162461bcd60e51b815260040161048b9061333b565b6000858152600760205260409020600801548590610100900460ff1615611b2b5760405162461bcd60e51b815260040161048b906133b4565b600154604051637b51e92760e11b81523360048201819052916001600160a01b03169063f6a3d24e90602401602060405180830381865afa158015611b74573d6000803e3d6000fd5b505050506040513d601f19601f82011682018060405250810190611b989190613605565b611bb45760405162461bcd60e51b815260040161048b90613627565b600087815260076020526040902060010154611bd9906001600160a01b031632611c92565b611bf55760405162461bcd60e51b815260040161048b906133e3565b60008781526007602090815260408083206004908101805483516080810185528181523381870190815242958201958652606082018e81526001808501865594895296909720815194830201938455955191830180546001600160a01b0319166001600160a01b0390931692909217909155915160028201559151909291906003820190611c839082613699565b50919998505050505050505050565b60015460405163070ed9e160e01b81526001600160a01b038481166004830152600092169063070ed9e190602401602060405180830381865afa158015611cdd573d6000803e3d6000fd5b505050506040513d601f19601f82011682018060405250810190611d019190613605565b1580611d7e575060015460405163e5fe947760e01b81526001600160a01b03858116600483015284811660248301529091169063e5fe947790604401602060405180830381865afa158015611d5a573d6000803e3d6000fd5b505050506040513d601f19601f82011682018060405250810190611d7e9190613605565b9392505050565b6000546001600160a01b03163314611daf5760405162461bcd60e51b815260040161048b90613751565b601380546001600160a01b0319166001600160a01b0392909216919091179055565b6000546001600160a01b03163314611dfb5760405162461bcd60e51b815260040161048b90613751565b600580546001600160a01b0319166001600160a01b0392909216919091179055565b6060611e298232611c92565b611e455760405162461bcd60e51b815260040161048b906133e3565b6001600160a01b03821660009081526008602090815260409182902080548351818402810184019094528084529092611d7e9290918491830182828015611eab57602002820191906000526020600020905b815481526020019060010190808311611e97575b5050505050612a00565b611ebd612d1c565b60005b600d54156123e957600d546004805460408051635ec01e4d60e01b8152905160009385936001600160a01b031692635ec01e4d9281830192602092829003018188875af1158015611f15573d6000803e3d6000fd5b505050506040513d601f19601f82011682018060405250810190611f399190613680565b611f43919061380d565b905042600d8281548110611f5957611f59613440565b90600052602060002090600b0201600a01541080611fa05750611f9e600d8281548110611f8857611f88613440565b60009182526020909120600b9091020154610f1d565b155b1561216857600d611fb260018461346c565b81548110611fc257611fc2613440565b90600052602060002090600b0201600d8281548110611fe357611fe3613440565b600091825260209091208254600b9092020190815560018083015490820180546001600160a01b0319166001600160a01b039092169190911790558181600280820190612032908401826134f9565b50600382015481600301556004820181600401908054612053929190612c7f565b5060058281015490820155600680830154908201556007808301549082015560088083018054918301805460ff938416151560ff19821681178355925461010090819004909416151590930261ff001990921661ffff1990931692909217179055600991820154910155600a91820154910155600d8054806120d7576120d76135d6565b600082815260208120600b600019909301928302018181556001810180546001600160a01b03191690559081816121116002830182612bbd565b60038201600090556004820160006121299190612d3c565b50600060058201819055600682018190556007820181905560088201805461ffff191690556009909101819055600a92909201919091555090556123e2565b600d818154811061217b5761217b613440565b60009182526020909120604080516101a081018252600b90930290910180549183019182526001808201546001600160a01b03166060850152600282018054929491939192859284929091849160808501916121d69061347f565b80601f01602080910402602001604051908101604052809291908181526020018280546122029061347f565b801561224f5780601f106122245761010080835404028352916020019161224f565b820191906000526020600020905b81548152906001019060200180831161223257829003601f168201915b505050505081526020016003820154815260200160048201805480602002602001604051908101604052809291908181526020016000905b8282101561237657600084815260209081902060408051608081018252600486029092018054835260018101546001600160a01b0316938301939093526002830154908201526003820180549192916060840191906122e59061347f565b80601f01602080910402602001604051908101604052809291908181526020018280546123119061347f565b801561235e5780601f106123335761010080835404028352916020019161235e565b820191906000526020600020905b81548152906001019060200180831161234157829003601f168201915b50505050508152505081526020019060010190612287565b5050509082525060058201546020808301919091526006830154604083015260078301546060830152600883015460ff8082161515608085015261010090910416151560a083015260099092015460c090910152908252600a9290920154910152969095509350505050565b5050611ec0565b6123f1612d1c565b92600092509050565b80600654811061241c5760405162461bcd60e51b815260040161048b90613312565b600082815260076020526040902060080154829060ff16156124505760405162461bcd60e51b815260040161048b9061333b565b6000838152600760205260409020600801548390610100900460ff16156124895760405162461bcd60e51b815260040161048b906133b4565b600154604051637b51e92760e11b81523360048201819052916001600160a01b03169063f6a3d24e90602401602060405180830381865afa1580156124d2573d6000803e3d6000fd5b505050506040513d601f19601f820116820180604052508101906124f69190613605565b6125125760405162461bcd60e51b815260040161048b90613627565b600085815260076020526040902060010154612537906001600160a01b031632611c92565b6125535760405162461bcd60e51b815260040161048b906133e3565b60008581526009602090815260408083203380855292529091205460ff16156125be5760405162461bcd60e51b815260206004820181905260248201527f796f75206861766520616c7265616479206c696b6564207468697320706f7374604482015260640161048b565b60008681526009602090815260408083206001600160a01b03851684528252808320805460ff1916600117905588835260079091528120600301805491612604836135ec565b9190505550505050505050565b60608160065481106126355760405162461bcd60e51b815260040161048b90613312565b600083815260076020526040902060080154839060ff16156126695760405162461bcd60e51b815260040161048b9061333b565b6000848152600760205260409020600801548490610100900460ff16156126a25760405162461bcd60e51b815260040161048b906133b4565b6000858152600760205260409020600101546126c7906001600160a01b031632611c92565b6126e35760405162461bcd60e51b815260040161048b906133e3565b600085815260076020819052604082200154908112156127455760405162461bcd60e51b815260206004820152601d60248201527f7468697320706f737420646f6573206e6f742068617665206d65646961000000604482015260640161048b565b61274e81611716565b9695505050505050565b6001546001600160a01b031633146127a75760405162461bcd60e51b81526020600482015260126024820152717573657220636f6e7472616374206f6e6c7960701b604482015260640161048b565b326001600160a01b038216146128185760405162461bcd60e51b815260206004820152603060248201527f6f6e6c79207468652073706563696669656420757365722063616e20696e697460448201526f34b0ba32903a3434b99030b1ba34b7b760811b606482015260840161048b565b6001600160a01b0381166000908152600860205260408120905b815481101561288857600082828154811061284f5761284f613440565b600091825260208083209091015482526007905260409020600801805460ff191660011790555080612880816135ec565b915050612832565b505050565b6000818152600a6020908152604080832032845290915290205460ff16156128b25750565b60008181526007602052604081206006018054916128cf836135ec565b90915550506000818152600760209081526040808320600101546001600160a01b03168084526010909252822054600e5491929091821080156129415750826001600160a01b0316600e838154811061292a5761292a613440565b6000918252602090912001546001600160a01b0316145b9050806129a957600e80546001600160a01b0385166000818152601060205260408120839055600183018455929092527fbb7b4a454dc3493923482f07822329ed19e8244eff582cc204f8554c3620c3fd810180546001600160a01b03191690921790915591505b600f82815481106129bc576129bc613440565b600091825260208220018054916129d2836135ec565b90915550505060009283525050600a602090815260408083203284529091529020805460ff19166001179055565b60606000825167ffffffffffffffff811115612a1e57612a1e612e76565b604051908082528060200260200182016040528015612a5757816020015b612a44612bfa565b815260200190600190039081612a3c5790505b5090506000805b8451811015612b07576000858281518110612a7b57612a7b613440565b60200260200101519050612a8e81610f1d565b8015612aba5750600081815260076020526040902060010154612aba906001600160a01b031632611c92565b15612af457612ac881610c0d565b848481518110612ada57612ada613440565b60200260200101819052508280612af0906135ec565b9350505b5080612aff816135ec565b915050612a5e565b5060008167ffffffffffffffff811115612b2357612b23612e76565b604051908082528060200260200182016040528015612b5c57816020015b612b49612bfa565b815260200190600190039081612b415790505b50905060005b82811015612bb457838181518110612b7c57612b7c613440565b6020026020010151828281518110612b9657612b96613440565b60200260200101819052508080612bac906135ec565b915050612b62565b50949350505050565b508054612bc99061347f565b6000825580601f10612bd9575050565b601f016020900490600052602060002090810190612bf79190612d5d565b50565b6040518061016001604052806000815260200160006001600160a01b03168152602001606081526020016000815260200160608152602001600081526020016000815260200160008152602001600015158152602001600015158152602001600081525090565b5080546000825590600052602060002090810190612bf79190612d5d565b828054828255906000526020600020906004028101928215612d0c5760005260206000209160040282015b82811115612d0c578254825560018084015490830180546001600160a01b0319166001600160a01b03909216919091179055600280840154908301558282600380820190612cfa908401826134f9565b50505091600401919060040190612caa565b50612d18929150612d72565b5090565b6040518060400160405280612d2f612bfa565b8152602001600081525090565b5080546000825560040290600052602060002090810190612bf79190612d72565b5b80821115612d185760008155600101612d5e565b80821115612d185760008082556001820180546001600160a01b031916905560028201819055612da56003830182612bbd565b50600401612d72565b600060208284031215612dc057600080fd5b5035919050565b606080825284519082018190526000906020906080840190828801845b82811015612e095781516001600160a01b031684529284019290840190600101612de4565b5050508381038285015285518082528683019183019060005b81811015612e3e57835183529284019291840191600101612e22565b5050809350505050826040830152949350505050565b60008060408385031215612e6757600080fd5b50508035926020909101359150565b634e487b7160e01b600052604160045260246000fd5b604051601f8201601f1916810167ffffffffffffffff81118282101715612eb557612eb5612e76565b604052919050565b600067ffffffffffffffff821115612ed757612ed7612e76565b50601f01601f191660200190565b600082601f830112612ef657600080fd5b8135612f09612f0482612ebd565b612e8c565b818152846020838601011115612f1e57600080fd5b816020850160208301376000918101602001919091529392505050565b60008060408385031215612f4e57600080fd5b823567ffffffffffffffff80821115612f6657600080fd5b612f7286838701612ee5565b93506020850135915080821115612f8857600080fd5b50612f9585828601612ee5565b9150509250929050565b60005b83811015612fba578181015183820152602001612fa2565b50506000910152565b60008151808452612fdb816020860160208601612f9f565b601f01601f19169290920160200192915050565b600081518084526020808501808196508360051b8101915082860160005b8581101561306a578284038952815180518552858101516001600160a01b0316868601526040808201519086015260609081015160809186018290529061305681870183612fc3565b9a87019a955050509084019060010161300d565b5091979650505050505050565b600061016082518452602083015161309a60208601826001600160a01b03169052565b5060408301518160408601526130b282860182612fc3565b91505060608301516060850152608083015184820360808601526130d68282612fef565b91505060a083015160a085015260c083015160c085015260e083015160e08501526101008084015161310b8287018215159052565b5050610120838101511515908501526101409283015192909301919091525090565b602081526000611d7e6020830184613077565b6001600160a01b0381168114612bf757600080fd5b60006020828403121561316757600080fd5b8135611d7e81613140565b602081526000611d7e6020830184612fc3565b6000806000806080858703121561319b57600080fd5b84356131a681613140565b9350602085013567ffffffffffffffff808211156131c357600080fd5b6131cf88838901612ee5565b945060408701359150808211156131e557600080fd5b506131f287828801612ee5565b949793965093946060013593505050565b6000806040838503121561321657600080fd5b82359150602083013567ffffffffffffffff81111561323457600080fd5b612f9585828601612ee5565b6000806040838503121561325357600080fd5b823561325e81613140565b9150602083013561326e81613140565b809150509250929050565b6000602080830181845280855180835260408601915060408160051b870101925083870160005b828110156132ce57603f198886030184526132bc858351613077565b945092850192908501906001016132a0565b5092979650505050505050565b60408152600083516040808401526132f66080840182613077565b6020958601516060850152931515929094019190915250919050565b6020808252600f908201526e1a5b9d985b1a59081c1bdcdd081a59608a1b604082015260600190565b6020808252601590820152741c1bdcdd081a185cc81899595b8819195b195d1959605a1b604082015260600190565b6020808252602a908201527f6f6e6c7920616420636f6e74726163742063616e2065786563757465207468696040820152693990333ab731ba34b7b760b11b606082015260800190565b6020808252601590820152741c1bdcdd081a185cc81899595b88199b1859d9d959605a1b604082015260600190565b6020808252603a908201527f746865207573657220697320707269766174652c20616e6420796f752061726560408201527f206e6f7420696e2074686520666f6c6c6f77696e67206c697374000000000000606082015260800190565b634e487b7160e01b600052603260045260246000fd5b634e487b7160e01b600052601160045260246000fd5b8181038181111561178857611788613456565b600181811c9082168061349357607f821691505b602082108103610f7257634e487b7160e01b600052602260045260246000fd5b601f82111561288857600081815260208120601f850160051c810160208610156134da5750805b601f850160051c820191505b818110156109f0578281556001016134e6565b818103613504575050565b61350e825461347f565b67ffffffffffffffff81111561352657613526612e76565b61353a81613534845461347f565b846134b3565b6000601f82116001811461356e57600083156135565750848201545b600019600385901b1c1916600184901b1784556109f2565b600085815260209020601f19841690600086815260209020845b838110156135a85782860154825560019586019590910190602001613588565b50858310156135c65781850154600019600388901b60f8161c191681555b5050505050600190811b01905550565b634e487b7160e01b600052603160045260246000fd5b6000600182016135fe576135fe613456565b5060010190565b60006020828403121561361757600080fd5b81518015158114611d7e57600080fd5b6020808252601390820152721d5cd95c88191bd95cc81b9bdd08195e1a5cdd606a1b604082015260600190565b6001600160a01b038316815260406020820181905260009061367890830184612fc3565b949350505050565b60006020828403121561369257600080fd5b5051919050565b815167ffffffffffffffff8111156136b3576136b3612e76565b6136c181613534845461347f565b602080601f8311600181146136f657600084156136de5750858301515b600019600386901b1c1916600185901b1785556109f0565b600085815260208120601f198616915b8281101561372557888601518255948401946001909101908401613706565b50858210156135c657939096015160001960f8600387901b161c19169092555050600190811b01905550565b6020808252601c908201527f636f6e7472616374206f776e6572206f6e6c792066756e6374696f6e00000000604082015260600190565b60008161379757613797613456565b506000190190565b6000602082840312156137b157600080fd5b815167ffffffffffffffff8111156137c857600080fd5b8201601f810184136137d957600080fd5b80516137e7612f0482612ebd565b8181528560208385010111156137fc57600080fd5b610f14826020830160208601612f9f565b60008261382a57634e487b7160e01b600052601260045260246000fd5b50069056fea26469706673582212203438e0416c27c78ec9dc20f4f95e4d2047278428d7550bfbb7ec41f8db2361ca64736f6c63430008130033",
  "immutableReferences": {},
  "source": "pragma solidity ^0.8.0;\n\nimport \"./MediaNFT.sol\";\nimport './Token.sol';\nimport \"./RNG.sol\";\nimport \"./ContentModeration.sol\";\nimport \"./User.sol\";\nimport \"./Feed.sol\";\n\ncontract Post {\n\t// === POST DATA STRUCTURES ===\n\tstruct Comment {\n\t\tuint256 id;\n\t\taddress owner;\n\t\tuint256 timestamp;\n\t\tstring text;\n\t}\n\n\tstruct PostData {\n\t\tuint256 id;\n\t\taddress owner;\n\t\tstring caption;\n\t\tuint256 likes;\n\t\tComment[] comments;\n\t\tuint256 timestamp;\n\t\tuint256 viewCount;\n\t\tint mediaNFTID; // value of -1 dictates no media\n\t\tbool deleted;\n\t\tbool flagged;\n\t\tuint256 reportCount;\n\t}\n\n\taddress owner;\n\tUser userContract;\n\tMediaNFT nftContract;\n\tToken tokenContract;\n\tRNG rngContract;\n\tFeed feedContract;\n\t// running number of post ids\n\tuint256 nextPostID = 0;\n\t// mapping of postID to the post structs\n\tmapping(uint256 => PostData) idToPost;\n\t// mapping for users to all of their posts (stored as an array of post ids)\n\tmapping(address => uint256[]) userToPosts;\n\t// keep track of who liked each post to ensure that there are no duplicate likes for this post (i.e an account cannot like a post twice)\n\t// it is a mapping of postID => user address => boolean value (true if user has liked this post)\n\tmapping(uint256 => mapping(address => bool)) hasLiked; \n\t// keep track of who viewed each post to ensure that there are no duplicate views for this post (i.e an account can only increase the viewcount for a post at most once)\n\t// it is a mapping of postID => user address => boolean value (true if user has viewed this post)\n\tmapping(uint256 => mapping(address => bool)) hasViewed;\n\tuint256 MAX_REPORT_COUNT = 100;\n\t// keep track of who reported each post to ensure that there are no duplicate reports for this post (i.e an account can only increase the reportCount for a post at most once)\n\t// it is a mapping of postID => user address => boolean value (true if user has reported this post)\n\tmapping(uint256 => mapping(address => bool)) hasReported;\n\t// === END OF POST DATA STRUCTURES ===\n\n\t// === ADVERTISEMENT DATA STRUCTURES ===\n\t// struct for advertisement posts\n\tstruct Ad {\n\t\tPostData postData;\n\t\tuint256 endTime;\n\t}\n\t// list of all of the current advertisements\n\tAd[] ads;\n\t// creators to pay out ad revneue for this month\n\taddress[] payeesThisMonth;\n\t// viewCountThisMonth[i] correspond to the viewcount for creator in payeesThisMonth[i]\n\tuint[] viewCountThisMonth;\n\t// track the index where creator is stored in the `payeesThisMonth` array\n\tmapping(address => uint) creatorToIdx;\n\t// overall total view count for this month\n\tuint totalViewCountThisMonth;\n\taddress adContractAddr;\n\t// === END OF ADVERTISEMENT DATA STRUCTURES ===\n\n\t// === CONTENT MODERATION DATA STRUCTURES ===\n\tContentModeration contentModerationContract;\n\t// === END OF CONTENT MODERATION DATA STRUCTURES ===\n\t\n\tconstructor (RNG _rngContract, MediaNFT _nftContract, Token _tokenContract) {\n\t\tnftContract = _nftContract;\n\t\ttokenContract = _tokenContract;\n\t\trngContract = _rngContract;\n\t\towner = msg.sender;\n\t}\n\n\tmodifier contractOwnerOnly() {\n\t\trequire(msg.sender == owner, \"contract owner only function\");\n\t\t_;\n\t}\n\n\n\t// === POST CRUD OPERATIONS ===\n\tmodifier postOwnerOnly(uint256 id) {\n\t\trequire(msg.sender == idToPost[id].owner, \"only owner of post can do this action\");\n\t\t_;\n\t}\n\n\t// a valid post is defined as a non-deleted & non-flagged post with a valid id\n\tmodifier validId(uint256 id) { \n\t\trequire (id >= 0 && id < nextPostID, \"invalid post id\");\n\t\t_;\n\t}\n\n\tmodifier notDeleted(uint256 id) {\n\t\trequire(!idToPost[id].deleted, \"post has been deleted\");\n\t\t_;\n\t}\n\n\tmodifier notFlagged(uint256 id) {\n\t\trequire(!idToPost[id].flagged, \"post has been flagged\");\n\t\t_;\n\t}\n\n\tmodifier userExists(address user) {\n\t\trequire(userContract.exists(user), \"user does not exist\");\n\t\t_;\n\t}\n\n\t// a viewer can view a creator post if the creator account is not private, or it is private and the viewer is a follower\n\tfunction canViewCreatorPosts(address creator, address viewer) public view returns (bool) {\n\t\treturn !userContract.isPrivateAccount(creator) || userContract.isFollower(creator, viewer);\n\t}\n\n\tfunction notDeletedOrFlagged(uint256 id) public view validId(id) returns (bool) {\n\t\tPostData storage post = idToPost[id];\n\t\treturn !post.deleted && !post.flagged;\n\t}\n\n\t// increments the view count for this post. \n\t// we do not count duplicate views (i.e even if a user views a post multiple times, we count it as he only viewed it at most one time)\n\t// this reduces the chances of manipulation of viewcounts to gain ad revenue.\n\t// there are two view counts to maintain\n\t// 1. overall view count\n\t// 2. viewcount for this month, to calculate the ad revenue distribution for this monthly period\n\tfunction incrViewCount(uint256 id) private {\n\t\t// prevent duplicate counting of viewcount\n\t\tif (hasViewed[id][tx.origin]) {\n\t\t\treturn;\n\t\t}\n\n\t\t// overall view count\n\t\tidToPost[id].viewCount++;\n\n\t\t// viewcount for this month\n\t\t// creator of this post\n\t\taddress creator = idToPost[id].owner;\n\t\t// idx of this creator in the `payeesThisMonth` array\n\t\tuint idx = creatorToIdx[creator];\n\t\t// check if we are already checking this creator (i.e the creator at `payeesThisMonth[idx]` is really the creator)\n\t\tbool creatorAlreadyTracked = idx < payeesThisMonth.length && payeesThisMonth[idx] == creator;\n\t\tif (!creatorAlreadyTracked) {\n\t\t\t// this creator has not been tracked this month, add it to the end of the array and track the index of where it was stored\n\t\t\tidx = payeesThisMonth.length;\n\t\t\tcreatorToIdx[creator] = idx;\n\t\t\tpayeesThisMonth.push(creator);\n\t\t}\n\t\t// increment viewcounts for this month\n\t\tviewCountThisMonth[idx]++;\n\t\ttotalViewCountThisMonth;\n\n\t\thasViewed[id][tx.origin] = true;\n\t}\n\n\t// get post by post id. filters out deleted comments\n\tfunction getPost(uint256 id) public validId(id) notDeleted(id) notFlagged(id) returns (PostData memory)  {\n\t\tPostData memory post = idToPost[id];\n\t\trequire(canViewCreatorPosts(post.owner, tx.origin), \"the user is private, and you are not in the following list\");\n\t\tincrViewCount(id);\n\t\treturn post;\n\t}\n\n\t// get multiple posts by multiple postids. filters out deleted & flagged posts and comments.\n\tfunction getPosts(uint256[] memory postIds) private returns (PostData[] memory) {\n\t\t// note that the length of the `posts` array is just an esimate of the true number of non-deleted posts\n\t\t// we need to give an estimated length because we cannot allocate a dynamically sized memory array in solidity (i.e an array without a specified length).\n\t\tPostData[] memory posts = new PostData[](postIds.length);\n\t\t// number of valid posts\n\t\tuint n = 0; \n\t\t// find all valid posts\n\t\tfor (uint i = 0; i < postIds.length; i++) {\n\t\t\tuint postId = postIds[i];\n\t\t\tif (notDeletedOrFlagged(postId) && canViewCreatorPosts(idToPost[postId].owner, tx.origin)) {\n\t\t\t\tposts[n] = getPost(postId);\n\t\t\t\tn++;\n\t\t\t}\n\t\t}\n\n\t\t// copy over results to an array with exactly n elements.\n\t\t// this is so that we return an array with the correct number of elements (n).\n\t\tPostData[] memory postsResult = new PostData[](n);\n\t\tfor (uint i = 0; i < n; i++) {\n\t\t\tpostsResult[i] = posts[i];\n\t\t}\n\n\t\treturn postsResult;\n\t}\n\n\t// returns all valid posts associated with this user (i.e post.owner == user)\n\tfunction getAllPostsByUser(address user) public returns (PostData[] memory) {\n\t\trequire(canViewCreatorPosts(user, tx.origin), \"the user is private, and you are not in the following list\");\n\t\tuint256[] storage postIds = userToPosts[user];\n\t\treturn getPosts(postIds);\n\t}\n\n\t// creates a post where the owner is msg.sender, caption is given as the first argument,\n\t// and ipfsCID is an optional field to indicate the media to associate with this post.\n\t// if ipfsCID is empty (i.e ipfsCID == \"\"), we take it as there is no media.\n\t// else if ipfsCID is non empty, we mint an nft to the user with the corresponding ipfsCID.\n\n\t// the function also adds the created post to the global feed.\n\t// the function returns the id of the created post\n\tfunction createPost(string memory caption, string memory ipfsCID) public userExists(msg.sender) returns (uint) {\n\t\t// default value of -1 indicates this post does not have any media attached to it\n\t\tint mediaNFTID = -1;\n\t\t// if this post has a media (i.e cid parameter is non empty)\n\t\tif (bytes(ipfsCID).length > 0) { // same as ipfsCID != \"\", but cant do that in solidity\n\t\t\t// mint nft to user\n\t\t\tmediaNFTID = int(nftContract.mint(msg.sender, ipfsCID));\n\t\t}\n\t\tPostData storage post = idToPost[nextPostID];\n\n\t\tpost.id = nextPostID;\n\t\tpost.owner = msg.sender;\n\t\tpost.caption = caption;\n\t\tpost.likes = 0;\n\t\tpost.timestamp = block.timestamp;\n\t\tpost.viewCount = 0;\n\t\tpost.mediaNFTID = mediaNFTID;\n\t\tpost.deleted = false; \n\t\t\n\t\tnextPostID++;\n\t\tuserToPosts[msg.sender].push(post.id);\n\t\tfeedContract.addToFeed(post.id);\n\t\t\n\t\treturn post.id;\n\t}\n\n\t// like the post specified by `id`. the liker is the `msg.sender`\n\tfunction like(uint256 id) public validId(id) notDeleted(id) notFlagged(id) userExists(msg.sender) {\n\t\trequire(canViewCreatorPosts(idToPost[id].owner, tx.origin), \"the user is private, and you are not in the following list\");\n\t\taddress liker = msg.sender;\n\t\trequire(!hasLiked[id][liker], \"you have already liked this post\");\n\t\thasLiked[id][liker] = true;\n\t\tidToPost[id].likes++;\n\t}\n\n\t// unlike the post specified by `id`. the liker is the `msg.sender`\n\tfunction unlike(uint256 id) public validId(id) notDeleted(id) notFlagged(id) {\n\t\trequire(canViewCreatorPosts(idToPost[id].owner, tx.origin), \"the user is private, and you are not in the following list\");\n\t\taddress liker = msg.sender;\n\t\trequire(hasLiked[id][liker], \"you have not liked this post\");\n\t\thasLiked[id][liker] = false;\n\t\tidToPost[id].likes--;\n\t}\n\n\t// add a comment with `text` to post with id of `id`. the commentor is `msg.sender`.\n\t// returns the id of the comment\n\tfunction addComment(uint256 id, string memory text) public validId(id) notDeleted(id) notFlagged(id) userExists(msg.sender) returns (uint) {\n\t\trequire(canViewCreatorPosts(idToPost[id].owner, tx.origin), \"the user is private, and you are not in the following list\");\n\t\tuint256 commentID = idToPost[id].comments.length;\n\t\tidToPost[id].comments.push(Comment(commentID, msg.sender, block.timestamp, text));\n\t\treturn commentID;\n\t}\n\n\t// delete a comment with the specified postID and commentID.\n\t// the commentator is `msg.sender`. Only the owner of this comment can delete the comment.\n\tfunction deleteComment(uint256 postID, uint256 commentID) public validId(postID) notDeleted(postID) notFlagged(postID) {\n\t\trequire(canViewCreatorPosts(idToPost[postID].owner, tx.origin), \"the user is private, and you are not in the following list\");\t\t\n\t\trequire(commentID >= 0 && commentID < idToPost[postID].comments.length, \"invalid comment ID\");\n\t\tComment[] storage comments = idToPost[postID].comments;\n\t\tfor (uint i = 0; i < comments.length; i++) {\n\t\t\tif (comments[i].id == commentID) {\n\t\t\t\trequire(comments[i].owner == msg.sender, \"only owner of this comment can delete this comment\");\n\t\t\t\t// delete this comment\n\t\t\t\tcomments[i] = comments[comments.length - 1];\n\t\t\t\tcomments.pop();\n\t\t\t\treturn;\n\t\t\t}\n\t\t}\n\t\trequire(false, \"cannot find comment\");\n\t}\n\n\t// delete the post specified by `id`. Only the owner of the post can delete the post.\n\tfunction deletePost(uint256 id) public postOwnerOnly(id) validId(id) notDeleted(id) {\n\t\tidToPost[id].deleted = true;\n\t}\n\n\t// report this post specified by `id`\n\tfunction reportPost(uint256 id) public validId(id) notDeleted(id) notFlagged(id) userExists(msg.sender) {\n\t\trequire(!hasReported[id][msg.sender], \"you have already reported this post\");\n\t\tidToPost[id].reportCount++;\n\t\thasReported[id][msg.sender] = true;\n\t\tif (idToPost[id].reportCount >= MAX_REPORT_COUNT) {\n\t\t\tidToPost[id].flagged = true;\n\t\t}\n\t}\n\n\t// get the tokenURI (i.e image link) to the NFT specified by `id`\n\tfunction getTokenURIByTokenID(uint id) public view returns (string memory) {\n\t\treturn nftContract.tokenURI(id);\n\t}\n\n\t// get the tokenURI (i.e image link) to the NFT in the post specified by `id`\n\tfunction getTokenURIByPostID(uint id) public view validId(id) notDeleted(id) notFlagged(id) returns (string memory) {\n\t\trequire(canViewCreatorPosts(idToPost[id].owner, tx.origin), \"the user is private, and you are not in the following list\");\t\t\n\t\tint tokenId = idToPost[id].mediaNFTID;\n\t\trequire(tokenId >= 0, \"this post does not have media\");\n\t\treturn getTokenURIByTokenID(uint(tokenId));\n\t}\n\n\n\tmodifier userContractOnly() {\n\t\trequire(msg.sender == address(userContract), \"user contract only\");\n\t\t_;\n\t}\n\n\tfunction setUserContract(User _userContract) public contractOwnerOnly {\n\t\tuserContract = _userContract;\n\t}\n\n\t// delete all posts associated with `user`. this function is called by the User contract when deleting a user.\n\t// the tx.origin must be the same address as `user`.\n\tfunction deleteAllUserPosts(address user) external userContractOnly {\n\t\trequire (tx.origin == user, \"only the specified user can initiate this action\");\n\t\tuint256[] storage posts = userToPosts[user];\n\t\tfor (uint i = 0; i < posts.length; i++) {\n\t\t\tuint256 postId = posts[i];\n\t\t\tidToPost[postId].deleted = true;\n\t\t}\n\t}\n\n\tfunction getOwner(uint256 id) public view returns (address) {\n\t\treturn idToPost[id].owner;\n\t}\n\n\tfunction getFlaggedStatus(uint256 id) public view returns (bool) {\n\t\treturn idToPost[id].flagged;\n\t}\n\t// === POST CRUD OPERATIONS ===\n\n\t// === ADVERTISMENT OPERATIONS ===\n\tmodifier AdContractOnly {\n\t\trequire(msg.sender == adContractAddr, \"only ad contract can execute this function\");\n\t\t_;\n\t}\n\n\tfunction setAdContract(address _adContract) public contractOwnerOnly {\n\t\tadContractAddr = _adContract;\n\t}\n\n\t// similar to createPost, but in stead of adding to the global feed, we add to the ads array.\n\tfunction createAd(address user, string memory caption, string memory ipfsCID, uint endTime) public AdContractOnly returns (uint) {\n\t\t// default value of -1 indicates this post does not have any media attached to it\n\t\tint mediaNFTID = -1;\n\t\t// if this post has a media (i.e cid parameter is non empty)\n\t\tif (bytes(ipfsCID).length > 0) { // same as ipfsCID != \"\", but cant do that in solidity\n\t\t\t// mint nft to user\n\t\t\tmediaNFTID = int(nftContract.mint(user, ipfsCID));\n\t\t}\n\n\t\tAd storage ad = ads.push();\n\t\tad.endTime = endTime;\n\n\t\tPostData storage post = ad.postData;\n\t\tpost.id = nextPostID;\n\t\tpost.owner = user;\n\t\tpost.caption = caption;\n\t\tpost.likes = 0;\n\t\tpost.timestamp = block.timestamp;\n\t\tpost.viewCount = 0;\n\t\tpost.mediaNFTID = mediaNFTID;\n\t\tpost.deleted = false; \n\t\t\n\t\tuserToPosts[user].push(post.id);\n\t\tidToPost[post.id] = post;\n\t\tnextPostID++;\n\t\t\n\t\treturn post.id;\n\t}\n\n\t// choose an advertisement uniformly at random so that each ad gets an equal chance \n\t// returns a tuple (ad, found), where ad is the advertisement to return, and found is a bool indicating if we successfully found an ad\n\tfunction getAd() public returns (Ad memory, bool) {\n\t\twhile (ads.length > 0) {\n\t\t\tuint n = ads.length;\t\n\t\t\tuint randIdx = rngContract.random() % n;\n\t\t\t// check if this ad is expired or is somehow flagged/deleted\n\t\t\tif (ads[randIdx].endTime < block.timestamp || !notDeletedOrFlagged(ads[randIdx].postData.id)) {\n\t\t\t\t// delete this invalid ad by..\n \t\t\t\t// firstly, replace this expired ad with the ad at the last idx\n\t\t\t\tads[randIdx] = ads[n - 1];\n\t\t\t\t// secondly, delete the last idx\n\t\t\t\tads.pop(); \n\t\t\t} else {\n\t\t\t\t// this ad is valid, return this ad!\n\t\t\t\treturn (ads[randIdx], true);\n\t\t\t}\n\t\t}\n\n\t\tAd memory emptyAd; // we have to return this because solidity does not have null values..\n\t\treturn (emptyAd, false);\n\t}\n\n\t// calculates the distribution of ad revenue to creators for the current month according to viewcount\n\t// returns the following: (creators, viewCount, totalViewCountThisMonth) where\n\t// 1. payee[i] is the creator who will receive ad payouts\n\t// 2. viewCount[i] is the number of views payee[i] got in this month.\n\tfunction getAdRevenueDistribution() public view AdContractOnly returns (address[] memory, uint[] memory, uint) {\n\t\treturn (payeesThisMonth, viewCountThisMonth, totalViewCountThisMonth);\n\t}\n\n\t// resets the monthly tracker for view counts\n\tfunction resetMonthlyViewCounts() public AdContractOnly {\n\t\tdelete payeesThisMonth;\n\t\tdelete viewCountThisMonth;\n\t\ttotalViewCountThisMonth = 0;\n\t}\n\t// === END OF ADVERTISMENT OPERATIONS ===\n\n\t// === CONTENT MODERATION OPERATIONS === \n\tmodifier ContentModerationContractOnly {\n\t\trequire(msg.sender == address(contentModerationContract), \"only content moderation contract can execute this function\");\n\t\t_;\n\t}\n\n\tfunction setContentModerationContract(ContentModeration _contentModerationContract) public contractOwnerOnly {\n\t\tcontentModerationContract = _contentModerationContract;\n\t}\n\n\tfunction resetFlagAndReportCount(uint postId) public ContentModerationContractOnly {\n\t\tidToPost[postId].flagged = false;\n\t\tidToPost[postId].reportCount = 0;\n\t}\n\n\t// users can call this function to get a flagged post which has a dispute open.\n\t// they can only view the post corresponding to the dispute they are voting for.\n\tfunction getPostToReviewDispute(uint postId, uint disputeId) public view validId(postId) notDeleted(postId) returns (PostData memory) {\n\t\trequire(contentModerationContract.getCurrentDisputeIdOfUser(msg.sender) == disputeId, \"you are not voting for the specified dispute id\");\n\t\tPostData memory post = idToPost[postId];\n\t\treturn post;\n\t}\n\t// === END OF CONTENT MODERATION OPERATIONS === \n\n\tfunction setFeedContract(Feed _feedContract) public contractOwnerOnly {\n\t\tfeedContract = _feedContract;\n\t}\n}\n\n",
  "sourcePath": "/Users/cy/git/sch/is4302/DefiSocialMedia/contracts/Post.sol",
  "compiler": {
    "name": "solc",
    "version": "0.8.19+commit.7dd6d404.Emscripten.clang"
  },
  "schemaVersion": "3.4.11",
  "updatedAt": "2023-03-22T15:24:13.386Z",
  "networkType": "ethereum",
  "devdoc": {
    "kind": "dev",
    "methods": {},
    "version": 1
  },
  "userdoc": {
    "kind": "user",
    "methods": {},
    "version": 1
  }
}