{
  "contractName": "RNG",
  "abi": [
    {
      "inputs": [
        {
          "internalType": "uint256",
          "name": "",
          "type": "uint256"
        }
      ],
      "name": "history",
      "outputs": [
        {
          "internalType": "uint256",
          "name": "",
          "type": "uint256"
        }
      ],
      "stateMutability": "view",
      "type": "function",
      "constant": true
    },
    {
      "inputs": [],
      "name": "random",
      "outputs": [
        {
          "internalType": "uint256",
          "name": "",
          "type": "uint256"
        }
      ],
      "stateMutability": "nonpayable",
      "type": "function"
    },
    {
      "inputs": [],
      "name": "historyLength",
      "outputs": [
        {
          "internalType": "uint256",
          "name": "",
          "type": "uint256"
        }
      ],
      "stateMutability": "view",
      "type": "function",
      "constant": true
    },
    {
      "inputs": [],
      "name": "getLatestHistory",
      "outputs": [
        {
          "internalType": "uint256",
          "name": "",
          "type": "uint256"
        }
      ],
      "stateMutability": "view",
      "type": "function",
      "constant": true
    },
    {
      "inputs": [
        {
          "internalType": "uint256",
          "name": "idx",
          "type": "uint256"
        }
      ],
      "name": "getHistoryAt",
      "outputs": [
        {
          "internalType": "uint256",
          "name": "",
          "type": "uint256"
        }
      ],
      "stateMutability": "view",
      "type": "function",
      "constant": true
    }
  ],
  "bytecode": "0x608060405234801561001057600080fd5b506102a4806100206000396000f3fe608060405234801561001057600080fd5b50600436106100575760003560e01c80635ec01e4d1461005c5780639c695eb114610076578063a7a38f0b1461007e578063d08f2c6714610091578063f1279c8c146100a4575b600080fd5b6100646100ac565b60405190815260200160405180910390f35b610064610134565b61006461008c3660046101f7565b610166565b61006461009f3660046101f7565b610187565b600054610064565b6001546040805160208101929092524490820152426060820152600090819060800160408051601f1981840301815291905280516020909101206001805491925060006100f883610226565b9091555050600080546001810182559080527f290decd9548b62a8d60345a988386fc84ba6bc95484008f6362f93160ef3e56301819055919050565b6000805481906101469060019061023f565b8154811061015657610156610258565b9060005260206000200154905090565b6000818154811061017657600080fd5b600091825260209091200154905081565b6000805482106101d25760405162461bcd60e51b81526020600482015260126024820152711a5b99195e081bdd5d081bd988189bdd5b9960721b604482015260640160405180910390fd5b600082815481106101e5576101e5610258565b90600052602060002001549050919050565b60006020828403121561020957600080fd5b5035919050565b634e487b7160e01b600052601160045260246000fd5b60006001820161023857610238610210565b5060010190565b8181038181111561025257610252610210565b92915050565b634e487b7160e01b600052603260045260246000fdfea26469706673582212201f9b4e5774dfff6d553e4b1734503d3b3f4b126b62f545c2427156ab787bc66b64736f6c63430008130033",
  "immutableReferences": {},
  "source": "pragma solidity ^0.8.0;\n\n// a pseudo random number generator\n// note that this is NOT secure. it is only for demonstration purposes.\n// to get secure random number generators, consider using chainlink's vrf\ncontract RNG {\n\t// history of the randomly generated numbers. this is purely for demonstration & testing purposes.\n\tuint[] public history;\n\t// prevents same random value in the same block\n\tuint counter; \n\t\n\t// returns a random uint\n\tfunction random() public returns (uint) {\n\t\tuint r = uint(keccak256(abi.encodePacked(counter, block.difficulty, block.timestamp)));\n\t\tcounter++;\n\t\thistory.push(r);\n\t\treturn r;\n\t}\n\n\tfunction historyLength() public view returns (uint) {\n\t\treturn history.length;\n\t}\n\n\tfunction getLatestHistory() public view returns (uint) {\n\t\treturn history[history.length -1];\n\t}\n\n\tfunction getHistoryAt(uint idx) public view returns (uint) {\n\t\trequire(idx < history.length, \"index out of bound\");\n\t\treturn history[idx];\n\t}\n}",
  "sourcePath": "/Users/cy/git/sch/is4302/DefiSocialMedia/contracts/RNG.sol",
  "compiler": {
    "name": "solc",
    "version": "0.8.19+commit.7dd6d404.Emscripten.clang"
  },
  "schemaVersion": "3.4.11",
  "updatedAt": "2023-03-22T15:24:13.400Z",
  "networkType": "ethereum",
  "devdoc": {
    "kind": "dev",
    "methods": {},
    "version": 1
  },
  "userdoc": {
    "kind": "user",
    "methods": {},
    "version": 1
  }
}