{
  "contractName": "Token",
  "abi": [
    {
      "inputs": [],
      "stateMutability": "nonpayable",
      "type": "constructor"
    },
    {
      "anonymous": false,
      "inputs": [
        {
          "indexed": true,
          "internalType": "address",
          "name": "owner",
          "type": "address"
        },
        {
          "indexed": true,
          "internalType": "address",
          "name": "spender",
          "type": "address"
        },
        {
          "indexed": false,
          "internalType": "uint256",
          "name": "value",
          "type": "uint256"
        }
      ],
      "name": "Approval",
      "type": "event"
    },
    {
      "anonymous": false,
      "inputs": [
        {
          "indexed": true,
          "internalType": "address",
          "name": "from",
          "type": "address"
        },
        {
          "indexed": true,
          "internalType": "address",
          "name": "to",
          "type": "address"
        },
        {
          "indexed": false,
          "internalType": "uint256",
          "name": "value",
          "type": "uint256"
        }
      ],
      "name": "Transfer",
      "type": "event"
    },
    {
      "inputs": [
        {
          "internalType": "address",
          "name": "owner",
          "type": "address"
        },
        {
          "internalType": "address",
          "name": "spender",
          "type": "address"
        }
      ],
      "name": "allowance",
      "outputs": [
        {
          "internalType": "uint256",
          "name": "",
          "type": "uint256"
        }
      ],
      "stateMutability": "view",
      "type": "function",
      "constant": true
    },
    {
      "inputs": [
        {
          "internalType": "address",
          "name": "spender",
          "type": "address"
        },
        {
          "internalType": "uint256",
          "name": "amount",
          "type": "uint256"
        }
      ],
      "name": "approve",
      "outputs": [
        {
          "internalType": "bool",
          "name": "",
          "type": "bool"
        }
      ],
      "stateMutability": "nonpayable",
      "type": "function"
    },
    {
      "inputs": [
        {
          "internalType": "address",
          "name": "account",
          "type": "address"
        }
      ],
      "name": "balanceOf",
      "outputs": [
        {
          "internalType": "uint256",
          "name": "",
          "type": "uint256"
        }
      ],
      "stateMutability": "view",
      "type": "function",
      "constant": true
    },
    {
      "inputs": [],
      "name": "decimals",
      "outputs": [
        {
          "internalType": "uint8",
          "name": "",
          "type": "uint8"
        }
      ],
      "stateMutability": "view",
      "type": "function",
      "constant": true
    },
    {
      "inputs": [
        {
          "internalType": "address",
          "name": "spender",
          "type": "address"
        },
        {
          "internalType": "uint256",
          "name": "subtractedValue",
          "type": "uint256"
        }
      ],
      "name": "decreaseAllowance",
      "outputs": [
        {
          "internalType": "bool",
          "name": "",
          "type": "bool"
        }
      ],
      "stateMutability": "nonpayable",
      "type": "function"
    },
    {
      "inputs": [
        {
          "internalType": "address",
          "name": "spender",
          "type": "address"
        },
        {
          "internalType": "uint256",
          "name": "addedValue",
          "type": "uint256"
        }
      ],
      "name": "increaseAllowance",
      "outputs": [
        {
          "internalType": "bool",
          "name": "",
          "type": "bool"
        }
      ],
      "stateMutability": "nonpayable",
      "type": "function"
    },
    {
      "inputs": [],
      "name": "name",
      "outputs": [
        {
          "internalType": "string",
          "name": "",
          "type": "string"
        }
      ],
      "stateMutability": "view",
      "type": "function",
      "constant": true
    },
    {
      "inputs": [],
      "name": "symbol",
      "outputs": [
        {
          "internalType": "string",
          "name": "",
          "type": "string"
        }
      ],
      "stateMutability": "view",
      "type": "function",
      "constant": true
    },
    {
      "inputs": [],
      "name": "totalSupply",
      "outputs": [
        {
          "internalType": "uint256",
          "name": "",
          "type": "uint256"
        }
      ],
      "stateMutability": "view",
      "type": "function",
      "constant": true
    },
    {
      "inputs": [
        {
          "internalType": "address",
          "name": "to",
          "type": "address"
        },
        {
          "internalType": "uint256",
          "name": "amount",
          "type": "uint256"
        }
      ],
      "name": "transfer",
      "outputs": [
        {
          "internalType": "bool",
          "name": "",
          "type": "bool"
        }
      ],
      "stateMutability": "nonpayable",
      "type": "function"
    },
    {
      "inputs": [
        {
          "internalType": "address",
          "name": "from",
          "type": "address"
        },
        {
          "internalType": "address",
          "name": "to",
          "type": "address"
        },
        {
          "internalType": "uint256",
          "name": "amount",
          "type": "uint256"
        }
      ],
      "name": "transferFrom",
      "outputs": [
        {
          "internalType": "bool",
          "name": "",
          "type": "bool"
        }
      ],
      "stateMutability": "nonpayable",
      "type": "function"
    },
    {
      "inputs": [],
      "name": "getTokens",
      "outputs": [],
      "stateMutability": "payable",
      "type": "function",
      "payable": true
    },
    {
      "inputs": [
        {
          "internalType": "uint256",
          "name": "amt",
          "type": "uint256"
        }
      ],
      "name": "sellTokens",
      "outputs": [],
      "stateMutability": "nonpayable",
      "type": "function"
    },
    {
      "inputs": [],
      "name": "withdrawAllEth",
      "outputs": [],
      "stateMutability": "nonpayable",
      "type": "function"
    }
  ],
  "bytecode": "0x608060405264170cdc1e0060065564174876e8006007553480156200002357600080fd5b50604051806040016040528060098152602001682229a6902a37b5b2b760b91b815250604051806040016040528060088152602001672229a6aa37b5b2b760c11b815250816003908162000078919062000147565b50600462000087828262000147565b5050600580546001600160a01b031916331790555062000213565b634e487b7160e01b600052604160045260246000fd5b600181811c90821680620000cd57607f821691505b602082108103620000ee57634e487b7160e01b600052602260045260246000fd5b50919050565b601f8211156200014257600081815260208120601f850160051c810160208610156200011d5750805b601f850160051c820191505b818110156200013e5782815560010162000129565b5050505b505050565b81516001600160401b03811115620001635762000163620000a2565b6200017b81620001748454620000b8565b84620000f4565b602080601f831160018114620001b357600084156200019a5750858301515b600019600386901b1c1916600185901b1785556200013e565b600085815260208120601f198616915b82811015620001e457888601518255948401946001909101908401620001c3565b5085821015620002035787850151600019600388901b60f8161c191681555b5050505050600190811b01905550565b610d7280620002236000396000f3fe6080604052600436106100dd5760003560e01c80636c11bcd31161007f578063a457c2d711610059578063a457c2d71461023a578063a9059cbb1461025a578063aa6ca8081461027a578063dd62ed3e1461028257600080fd5b80636c11bcd3146101cf57806370a08231146101ef57806395d89b411461022557600080fd5b806323b872dd116100bb57806323b872dd1461015c578063313ce5671461017c5780633950935114610198578063519af30e146101b857600080fd5b806306fdde03146100e2578063095ea7b31461010d57806318160ddd1461013d575b600080fd5b3480156100ee57600080fd5b506100f76102a2565b6040516101049190610b62565b60405180910390f35b34801561011957600080fd5b5061012d610128366004610bcc565b610334565b6040519015158152602001610104565b34801561014957600080fd5b506002545b604051908152602001610104565b34801561016857600080fd5b5061012d610177366004610bf6565b61034e565b34801561018857600080fd5b5060405160128152602001610104565b3480156101a457600080fd5b5061012d6101b3366004610bcc565b610372565b3480156101c457600080fd5b506101cd610394565b005b3480156101db57600080fd5b506101cd6101ea366004610c32565b61047d565b3480156101fb57600080fd5b5061014e61020a366004610c4b565b6001600160a01b031660009081526020819052604090205490565b34801561023157600080fd5b506100f7610550565b34801561024657600080fd5b5061012d610255366004610bcc565b61055f565b34801561026657600080fd5b5061012d610275366004610bcc565b6105da565b6101cd6105e8565b34801561028e57600080fd5b5061014e61029d366004610c6d565b610604565b6060600380546102b190610ca0565b80601f01602080910402602001604051908101604052809291908181526020018280546102dd90610ca0565b801561032a5780601f106102ff5761010080835404028352916020019161032a565b820191906000526020600020905b81548152906001019060200180831161030d57829003601f168201915b5050505050905090565b60003361034281858561062f565b60019150505b92915050565b60003361035c858285610753565b6103678585856107cd565b506001949350505050565b6000336103428185856103858383610604565b61038f9190610cf0565b61062f565b6005546001600160a01b031633146103e05760405162461bcd60e51b815260206004820152600a6024820152696f776e6572206f6e6c7960b01b60448201526064015b60405180910390fd5b65021782aed80047116104415760405162461bcd60e51b8152602060048201526024808201527f657468207769746864726177616c2063616e6e6f7420636f766572206761732060448201526318dbdcdd60e21b60648201526084016103d7565b6005546040516001600160a01b03909116904780156108fc02916000818181858888f1935050505015801561047a573d6000803e3d6000fd5b50565b336000908152602081905260409020548110156105025760405162461bcd60e51b815260206004820152603960248201527f796f752068617665206c657373207468616e207468652073706563696669656460448201527f20616d6f756e74206f6620746f6b656e7320746f2073656c6c0000000000000060648201526084016103d7565b6000600654826105129190610d03565b905061051e3383610971565b604051339082156108fc029083906000818181858888f1935050505015801561054b573d6000803e3d6000fd5b505050565b6060600480546102b190610ca0565b6000338161056d8286610604565b9050838110156105cd5760405162461bcd60e51b815260206004820152602560248201527f45524332303a2064656372656173656420616c6c6f77616e63652062656c6f77604482015264207a65726f60d81b60648201526084016103d7565b610367828686840361062f565b6000336103428185856107cd565b6000600754346105f89190610d1a565b905061047a3382610aa3565b6001600160a01b03918216600090815260016020908152604080832093909416825291909152205490565b6001600160a01b0383166106915760405162461bcd60e51b8152602060048201526024808201527f45524332303a20617070726f76652066726f6d20746865207a65726f206164646044820152637265737360e01b60648201526084016103d7565b6001600160a01b0382166106f25760405162461bcd60e51b815260206004820152602260248201527f45524332303a20617070726f766520746f20746865207a65726f206164647265604482015261737360f01b60648201526084016103d7565b6001600160a01b0383811660008181526001602090815260408083209487168084529482529182902085905590518481527f8c5be1e5ebec7d5bd14f71427d1e84f3dd0314c0f7b2291e5b200ac8c7c3b925910160405180910390a3505050565b600061075f8484610604565b905060001981146107c757818110156107ba5760405162461bcd60e51b815260206004820152601d60248201527f45524332303a20696e73756666696369656e7420616c6c6f77616e636500000060448201526064016103d7565b6107c7848484840361062f565b50505050565b6001600160a01b0383166108315760405162461bcd60e51b815260206004820152602560248201527f45524332303a207472616e736665722066726f6d20746865207a65726f206164604482015264647265737360d81b60648201526084016103d7565b6001600160a01b0382166108935760405162461bcd60e51b815260206004820152602360248201527f45524332303a207472616e7366657220746f20746865207a65726f206164647260448201526265737360e81b60648201526084016103d7565b6001600160a01b0383166000908152602081905260409020548181101561090b5760405162461bcd60e51b815260206004820152602660248201527f45524332303a207472616e7366657220616d6f756e7420657863656564732062604482015265616c616e636560d01b60648201526084016103d7565b6001600160a01b03848116600081815260208181526040808320878703905593871680835291849020805487019055925185815290927fddf252ad1be2c89b69c2b068fc378daa952ba7f163c4a11628f55a4df523b3ef910160405180910390a36107c7565b6001600160a01b0382166109d15760405162461bcd60e51b815260206004820152602160248201527f45524332303a206275726e2066726f6d20746865207a65726f206164647265736044820152607360f81b60648201526084016103d7565b6001600160a01b03821660009081526020819052604090205481811015610a455760405162461bcd60e51b815260206004820152602260248201527f45524332303a206275726e20616d6f756e7420657863656564732062616c616e604482015261636560f01b60648201526084016103d7565b6001600160a01b0383166000818152602081815260408083208686039055600280548790039055518581529192917fddf252ad1be2c89b69c2b068fc378daa952ba7f163c4a11628f55a4df523b3ef910160405180910390a3505050565b6001600160a01b038216610af95760405162461bcd60e51b815260206004820152601f60248201527f45524332303a206d696e7420746f20746865207a65726f20616464726573730060448201526064016103d7565b8060026000828254610b0b9190610cf0565b90915550506001600160a01b038216600081815260208181526040808320805486019055518481527fddf252ad1be2c89b69c2b068fc378daa952ba7f163c4a11628f55a4df523b3ef910160405180910390a35050565b600060208083528351808285015260005b81811015610b8f57858101830151858201604001528201610b73565b506000604082860101526040601f19601f8301168501019250505092915050565b80356001600160a01b0381168114610bc757600080fd5b919050565b60008060408385031215610bdf57600080fd5b610be883610bb0565b946020939093013593505050565b600080600060608486031215610c0b57600080fd5b610c1484610bb0565b9250610c2260208501610bb0565b9150604084013590509250925092565b600060208284031215610c4457600080fd5b5035919050565b600060208284031215610c5d57600080fd5b610c6682610bb0565b9392505050565b60008060408385031215610c8057600080fd5b610c8983610bb0565b9150610c9760208401610bb0565b90509250929050565b600181811c90821680610cb457607f821691505b602082108103610cd457634e487b7160e01b600052602260045260246000fd5b50919050565b634e487b7160e01b600052601160045260246000fd5b8082018082111561034857610348610cda565b808202811582820484141761034857610348610cda565b600082610d3757634e487b7160e01b600052601260045260246000fd5b50049056fea2646970667358221220a3a409ebfdfde687d354f47aa7ef53c723f340ba682c503f97c433199534289a64736f6c63430008130033",
  "immutableReferences": {},
  "source": "pragma solidity ^0.8.0;\n\nimport '@openzeppelin/contracts/token/ERC20/ERC20.sol';\n\ncontract Token is ERC20 {\n\t// owner of this token contract\n\taddress owner; \n\t// buy back at 1 token for 99 gwei from users\n\tuint256 BUYBACK_PRICE = 99 gwei; \n\t// sell users 1 token for 100 gwei\n\tuint256 SELL_PRICE = 100 gwei; \n\n\tconstructor() ERC20(\"DSM Token\", \"DSMToken\") {\n\t\towner = msg.sender;\n\t}\n\n\tfunction getTokens() public payable {\n\t\tuint amt = msg.value / SELL_PRICE;\n\t\t_mint(msg.sender, amt);\n\t}\n\n\tfunction sellTokens(uint amt) public {\n\t\trequire(amt >= balanceOf(msg.sender), \"you have less than the specified amount of tokens to sell\");\n        uint toReturn = amt * BUYBACK_PRICE;\n\t\t_burn(msg.sender, amt);\n        payable(msg.sender).transfer(toReturn);\n\t}\n\n\tmodifier ownerOnly() {\n\t\trequire(msg.sender == owner, \"owner only\");\n\t\t_;\n\t}\n\n\tfunction withdrawAllEth() public ownerOnly {\n\t\trequire(address(this).balance > 2300 gwei, \"eth withdrawal cannot cover gas cost\");\n\t\tpayable(owner).transfer(address(this).balance);\n\t}\n}",
  "sourcePath": "/Users/cy/git/sch/is4302/DefiSocialMedia/contracts/Token.sol",
  "compiler": {
    "name": "solc",
    "version": "0.8.19+commit.7dd6d404.Emscripten.clang"
  },
  "schemaVersion": "3.4.11",
  "updatedAt": "2023-03-22T15:24:13.404Z",
  "networkType": "ethereum",
  "devdoc": {
    "events": {
      "Approval(address,address,uint256)": {
        "details": "Emitted when the allowance of a `spender` for an `owner` is set by a call to {approve}. `value` is the new allowance."
      },
      "Transfer(address,address,uint256)": {
        "details": "Emitted when `value` tokens are moved from one account (`from`) to another (`to`). Note that `value` may be zero."
      }
    },
    "kind": "dev",
    "methods": {
      "allowance(address,address)": {
        "details": "See {IERC20-allowance}."
      },
      "approve(address,uint256)": {
        "details": "See {IERC20-approve}. NOTE: If `amount` is the maximum `uint256`, the allowance is not updated on `transferFrom`. This is semantically equivalent to an infinite approval. Requirements: - `spender` cannot be the zero address."
      },
      "balanceOf(address)": {
        "details": "See {IERC20-balanceOf}."
      },
      "decimals()": {
        "details": "Returns the number of decimals used to get its user representation. For example, if `decimals` equals `2`, a balance of `505` tokens should be displayed to a user as `5.05` (`505 / 10 ** 2`). Tokens usually opt for a value of 18, imitating the relationship between Ether and Wei. This is the value {ERC20} uses, unless this function is overridden; NOTE: This information is only used for _display_ purposes: it in no way affects any of the arithmetic of the contract, including {IERC20-balanceOf} and {IERC20-transfer}."
      },
      "decreaseAllowance(address,uint256)": {
        "details": "Atomically decreases the allowance granted to `spender` by the caller. This is an alternative to {approve} that can be used as a mitigation for problems described in {IERC20-approve}. Emits an {Approval} event indicating the updated allowance. Requirements: - `spender` cannot be the zero address. - `spender` must have allowance for the caller of at least `subtractedValue`."
      },
      "increaseAllowance(address,uint256)": {
        "details": "Atomically increases the allowance granted to `spender` by the caller. This is an alternative to {approve} that can be used as a mitigation for problems described in {IERC20-approve}. Emits an {Approval} event indicating the updated allowance. Requirements: - `spender` cannot be the zero address."
      },
      "name()": {
        "details": "Returns the name of the token."
      },
      "symbol()": {
        "details": "Returns the symbol of the token, usually a shorter version of the name."
      },
      "totalSupply()": {
        "details": "See {IERC20-totalSupply}."
      },
      "transfer(address,uint256)": {
        "details": "See {IERC20-transfer}. Requirements: - `to` cannot be the zero address. - the caller must have a balance of at least `amount`."
      },
      "transferFrom(address,address,uint256)": {
        "details": "See {IERC20-transferFrom}. Emits an {Approval} event indicating the updated allowance. This is not required by the EIP. See the note at the beginning of {ERC20}. NOTE: Does not update the allowance if the current allowance is the maximum `uint256`. Requirements: - `from` and `to` cannot be the zero address. - `from` must have a balance of at least `amount`. - the caller must have allowance for ``from``'s tokens of at least `amount`."
      }
    },
    "version": 1
  },
  "userdoc": {
    "kind": "user",
    "methods": {},
    "version": 1
  }
}