{
  "contractName": "User",
  "abi": [
    {
      "inputs": [
        {
          "internalType": "contract Post",
          "name": "_postContract",
          "type": "address"
        }
      ],
      "stateMutability": "nonpayable",
      "type": "constructor"
    },
    {
      "inputs": [
        {
          "internalType": "address",
          "name": "addr",
          "type": "address"
        }
      ],
      "name": "exists",
      "outputs": [
        {
          "internalType": "bool",
          "name": "",
          "type": "bool"
        }
      ],
      "stateMutability": "view",
      "type": "function",
      "constant": true
    },
    {
      "inputs": [
        {
          "internalType": "address",
          "name": "addr",
          "type": "address"
        }
      ],
      "name": "isPrivateAccount",
      "outputs": [
        {
          "internalType": "bool",
          "name": "",
          "type": "bool"
        }
      ],
      "stateMutability": "view",
      "type": "function",
      "constant": true
    },
    {
      "inputs": [
        {
          "internalType": "address",
          "name": "account",
          "type": "address"
        },
        {
          "internalType": "address",
          "name": "follower",
          "type": "address"
        }
      ],
      "name": "isFollower",
      "outputs": [
        {
          "internalType": "bool",
          "name": "",
          "type": "bool"
        }
      ],
      "stateMutability": "view",
      "type": "function",
      "constant": true
    },
    {
      "inputs": [
        {
          "internalType": "string",
          "name": "_name",
          "type": "string"
        },
        {
          "internalType": "string",
          "name": "_email",
          "type": "string"
        },
        {
          "internalType": "uint256",
          "name": "_age",
          "type": "uint256"
        }
      ],
      "name": "createUser",
      "outputs": [],
      "stateMutability": "nonpayable",
      "type": "function"
    },
    {
      "inputs": [],
      "name": "getProfile",
      "outputs": [
        {
          "components": [
            {
              "internalType": "address",
              "name": "addr",
              "type": "address"
            },
            {
              "internalType": "string",
              "name": "name",
              "type": "string"
            },
            {
              "internalType": "string",
              "name": "email",
              "type": "string"
            },
            {
              "internalType": "uint256",
              "name": "age",
              "type": "uint256"
            },
            {
              "internalType": "bool",
              "name": "deleted",
              "type": "bool"
            },
            {
              "internalType": "bool",
              "name": "isPrivateAccount",
              "type": "bool"
            },
            {
              "internalType": "uint256",
              "name": "followCount",
              "type": "uint256"
            }
          ],
          "internalType": "struct User.UserData",
          "name": "",
          "type": "tuple"
        }
      ],
      "stateMutability": "view",
      "type": "function",
      "constant": true
    },
    {
      "inputs": [
        {
          "internalType": "address",
          "name": "user",
          "type": "address"
        }
      ],
      "name": "getName",
      "outputs": [
        {
          "internalType": "string",
          "name": "",
          "type": "string"
        }
      ],
      "stateMutability": "view",
      "type": "function",
      "constant": true
    },
    {
      "inputs": [
        {
          "internalType": "address",
          "name": "user",
          "type": "address"
        }
      ],
      "name": "getFollowerCount",
      "outputs": [
        {
          "internalType": "uint256",
          "name": "",
          "type": "uint256"
        }
      ],
      "stateMutability": "view",
      "type": "function",
      "constant": true
    },
    {
      "inputs": [
        {
          "internalType": "string",
          "name": "_name",
          "type": "string"
        }
      ],
      "name": "updateName",
      "outputs": [],
      "stateMutability": "nonpayable",
      "type": "function"
    },
    {
      "inputs": [
        {
          "internalType": "string",
          "name": "_email",
          "type": "string"
        }
      ],
      "name": "updateEmail",
      "outputs": [],
      "stateMutability": "nonpayable",
      "type": "function"
    },
    {
      "inputs": [
        {
          "internalType": "uint256",
          "name": "_age",
          "type": "uint256"
        }
      ],
      "name": "updateAge",
      "outputs": [],
      "stateMutability": "nonpayable",
      "type": "function"
    },
    {
      "inputs": [],
      "name": "privateAccount",
      "outputs": [],
      "stateMutability": "nonpayable",
      "type": "function"
    },
    {
      "inputs": [],
      "name": "unprivateAccount",
      "outputs": [],
      "stateMutability": "nonpayable",
      "type": "function"
    },
    {
      "inputs": [
        {
          "internalType": "address",
          "name": "requester",
          "type": "address"
        }
      ],
      "name": "acceptFollower",
      "outputs": [],
      "stateMutability": "nonpayable",
      "type": "function"
    },
    {
      "inputs": [
        {
          "internalType": "address",
          "name": "follower",
          "type": "address"
        }
      ],
      "name": "removeFollower",
      "outputs": [],
      "stateMutability": "nonpayable",
      "type": "function"
    },
    {
      "inputs": [
        {
          "internalType": "address",
          "name": "user",
          "type": "address"
        }
      ],
      "name": "requestFollow",
      "outputs": [],
      "stateMutability": "nonpayable",
      "type": "function"
    },
    {
      "inputs": [],
      "name": "deleteUser",
      "outputs": [],
      "stateMutability": "nonpayable",
      "type": "function"
    }
  ],
  "bytecode": "0x608060405234801561001057600080fd5b5060405161175538038061175583398101604081905261002f91610054565b600080546001600160a01b0319166001600160a01b0392909216919091179055610084565b60006020828403121561006657600080fd5b81516001600160a01b038116811461007d57600080fd5b9392505050565b6116c2806100936000396000f3fe608060405234801561001057600080fd5b50600436106101005760003560e01c8063a9ae749511610097578063d6afc9b111610066578063d6afc9b1146101fa578063e5fe94771461020f578063f06099af14610222578063f6a3d24e1461023557600080fd5b8063a9ae7495146101a0578063cb04c970146101b3578063cfee85d2146101d4578063d2cddda6146101e757600080fd5b80635fd4b08a116100d35780635fd4b08a146101525780637463f8f4146101725780637d625c071461017a57806384da92a71461018d57600080fd5b8063026ff05e14610105578063070ed9e11461010f5780632e4eba5d14610137578063308837ed1461013f575b600080fd5b61010d610248565b005b61012261011d366004611208565b61033f565b60405190151581526020015b60405180910390f35b61010d6103e0565b61010d61014d366004611208565b61046d565b610165610160366004611208565b61058d565b60405161012e9190611270565b61010d6106b6565b61010d610188366004611283565b61073f565b61010d61019b36600461133f565b6107c0565b61010d6101ae366004611208565b61084d565b6101c66101c1366004611208565b610a73565b60405190815260200161012e565b61010d6101e2366004611208565b610b06565b61010d6101f536600461137c565b610c4b565b610202610db6565b60405161012e91906113e9565b61012261021d36600461146e565b610ff7565b61010d61023036600461133f565b61111a565b610122610243366004611208565b6111a0565b3360008181526001602052604090206004015460ff16156102845760405162461bcd60e51b815260040161027b906114a1565b60405180910390fd5b336000818152600160205260409020546001600160a01b031681146102bb5760405162461bcd60e51b815260040161027b906114d0565b6000546040516001620a1a8b60e21b031981523360048201526001600160a01b039091169063ffd795d490602401600060405180830381600087803b15801561030357600080fd5b505af1158015610317573d6000803e3d6000fd5b5050336000908152600160208190526040909120600401805460ff1916909117905550505050565b6001600160a01b038116600090815260016020526040812060040154829060ff161561037d5760405162461bcd60e51b815260040161027b906114a1565b6001600160a01b03808416600081815260016020526040902054859216146103b75760405162461bcd60e51b815260040161027b906114d0565b5050506001600160a01b0316600090815260016020526040902060040154610100900460ff1690565b3360008181526001602052604090206004015460ff16156104135760405162461bcd60e51b815260040161027b906114a1565b336000818152600160205260409020546001600160a01b0316811461044a5760405162461bcd60e51b815260040161027b906114d0565b5050336000908152600160205260409020600401805461ff001916610100179055565b3360008181526001602052604090206004015460ff16156104a05760405162461bcd60e51b815260040161027b906114a1565b336000818152600160205260409020546001600160a01b031681146104d75760405162461bcd60e51b815260040161027b906114d0565b3360009081526002602090815260408083206001600160a01b038716845290915290205460ff1661053f5760405162461bcd60e51b8152602060048201526012602482015271199bdb1b1bddd95c881b9bdd08199bdd5b9960721b604482015260640161027b565b3360008181526002602090815260408083206001600160a01b03881684528252808320805460ff191690559282526001905290812060050180549161058383611513565b9190505550505050565b6001600160a01b038116600090815260016020526040902060040154606090829060ff16156105ce5760405162461bcd60e51b815260040161027b906114a1565b6001600160a01b03808416600081815260016020526040902054859216146106085760405162461bcd60e51b815260040161027b906114d0565b6001600160a01b038416600090815260016020819052604090912001805461062f9061152a565b80601f016020809104026020016040519081016040528092919081815260200182805461065b9061152a565b80156106a85780601f1061067d576101008083540402835291602001916106a8565b820191906000526020600020905b81548152906001019060200180831161068b57829003601f168201915b505050505092505050919050565b3360008181526001602052604090206004015460ff16156106e95760405162461bcd60e51b815260040161027b906114a1565b336000818152600160205260409020546001600160a01b031681146107205760405162461bcd60e51b815260040161027b906114d0565b5050336000908152600160205260409020600401805461ff0019169055565b3360008181526001602052604090206004015460ff16156107725760405162461bcd60e51b815260040161027b906114a1565b336000818152600160205260409020546001600160a01b031681146107a95760405162461bcd60e51b815260040161027b906114d0565b505033600090815260016020526040902060030155565b3360008181526001602052604090206004015460ff16156107f35760405162461bcd60e51b815260040161027b906114a1565b336000818152600160205260409020546001600160a01b0316811461082a5760405162461bcd60e51b815260040161027b906114d0565b3360009081526001602081905260409091200161084784826115b3565b50505050565b6001600160a01b038116600090815260016020526040902060040154819060ff161561088b5760405162461bcd60e51b815260040161027b906114a1565b6001600160a01b03808316600081815260016020526040902054849216146108c55760405162461bcd60e51b815260040161027b906114d0565b3360008181526001602052604090206004015460ff16156108f85760405162461bcd60e51b815260040161027b906114a1565b336000818152600160205260409020546001600160a01b0316811461092f5760405162461bcd60e51b815260040161027b906114d0565b6001600160a01b038516600090815260026020908152604080832033845290915290205460ff16156109b15760405162461bcd60e51b815260206004820152602560248201527f796f75206861766520616c726561647920666f6c6c6f7765642074686973207060448201526432b939b7b760d91b606482015260840161027b565b6001600160a01b038516600090815260036020908152604080832033845290915290205460ff1615610a3e5760405162461bcd60e51b815260206004820152603060248201527f796f75206861766520616c72656164792072657175657374656420746f20666f60448201526f363637bb903a3434b9903832b939b7b760811b606482015260840161027b565b5050506001600160a01b0390911660009081526003602090815260408083203384529091529020805460ff1916600117905550565b6001600160a01b038116600090815260016020526040812060040154829060ff1615610ab15760405162461bcd60e51b815260040161027b906114a1565b6001600160a01b0380841660008181526001602052604090205485921614610aeb5760405162461bcd60e51b815260040161027b906114d0565b50503360009081526001602052604090206005015492915050565b3360008181526001602052604090206004015460ff1615610b395760405162461bcd60e51b815260040161027b906114a1565b336000818152600160205260409020546001600160a01b03168114610b705760405162461bcd60e51b815260040161027b906114d0565b3360009081526003602090815260408083206001600160a01b038716845290915290205460ff16610be35760405162461bcd60e51b815260206004820152601860248201527f666f6c6c6f772072657175657374206e6f7420666f756e640000000000000000604482015260640161027b565b3360008181526003602090815260408083206001600160a01b038816808552908352818420805460ff19908116909155858552600284528285209185529083528184208054909116600190811790915593835292905290812060050180549161058383611673565b6000835111610c8c5760405162461bcd60e51b815260206004820152600d60248201526c6e616d6520697320656d70747960981b604482015260640161027b565b6000825111610cce5760405162461bcd60e51b815260206004820152600e60248201526d656d61696c20697320656d70747960901b604482015260640161027b565b600d811015610d135760405162461bcd60e51b8152602060048201526011602482015270796f752061726520746f6f20796f756e6760781b604482015260640161027b565b336000908152600160205260409020546001600160a01b031615610d6f5760405162461bcd60e51b81526020600482015260136024820152727573657220616c72656164792065786973747360681b604482015260640161027b565b33600081815260016020819052604090912080546001600160a01b03191690921782558101610d9e85826115b3565b5060028101610dad84826115b3565b50600301555050565b610e036040518060e0016040528060006001600160a01b03168152602001606081526020016060815260200160008152602001600015158152602001600015158152602001600081525090565b3360008181526001602052604090206004015460ff1615610e365760405162461bcd60e51b815260040161027b906114a1565b336000818152600160205260409020546001600160a01b03168114610e6d5760405162461bcd60e51b815260040161027b906114d0565b33600090815260016020818152604092839020835160e0810190945280546001600160a01b03168452918201805491840191610ea89061152a565b80601f0160208091040260200160405190810160405280929190818152602001828054610ed49061152a565b8015610f215780601f10610ef657610100808354040283529160200191610f21565b820191906000526020600020905b815481529060010190602001808311610f0457829003601f168201915b50505050508152602001600282018054610f3a9061152a565b80601f0160208091040260200160405190810160405280929190818152602001828054610f669061152a565b8015610fb35780601f10610f8857610100808354040283529160200191610fb3565b820191906000526020600020905b815481529060010190602001808311610f9657829003601f168201915b505050918352505060038201546020820152600482015460ff8082161515604084015261010090910416151560608201526005909101546080909101529250505090565b6001600160a01b038216600090815260016020526040812060040154839060ff16156110355760405162461bcd60e51b815260040161027b906114a1565b6001600160a01b038085166000818152600160205260409020548692161461106f5760405162461bcd60e51b815260040161027b906114d0565b6001600160a01b038416600090815260016020526040902060040154849060ff16156110ad5760405162461bcd60e51b815260040161027b906114a1565b6001600160a01b03808616600081815260016020526040902054879216146110e75760405162461bcd60e51b815260040161027b906114d0565b505050506001600160a01b0392831660009081526002602090815260408083209490951682529290925250205460ff1690565b3360008181526001602052604090206004015460ff161561114d5760405162461bcd60e51b815260040161027b906114a1565b336000818152600160205260409020546001600160a01b031681146111845760405162461bcd60e51b815260040161027b906114d0565b33600090815260016020526040902060020161084784826115b3565b6001600160a01b038082166000818152600160205260408120549092161480156111e657506001600160a01b03821660009081526001602052604090206004015460ff16155b92915050565b80356001600160a01b038116811461120357600080fd5b919050565b60006020828403121561121a57600080fd5b611223826111ec565b9392505050565b6000815180845260005b8181101561125057602081850181015186830182015201611234565b506000602082860101526020601f19601f83011685010191505092915050565b602081526000611223602083018461122a565b60006020828403121561129557600080fd5b5035919050565b634e487b7160e01b600052604160045260246000fd5b600082601f8301126112c357600080fd5b813567ffffffffffffffff808211156112de576112de61129c565b604051601f8301601f19908116603f011681019082821181831017156113065761130661129c565b8160405283815286602085880101111561131f57600080fd5b836020870160208301376000602085830101528094505050505092915050565b60006020828403121561135157600080fd5b813567ffffffffffffffff81111561136857600080fd5b611374848285016112b2565b949350505050565b60008060006060848603121561139157600080fd5b833567ffffffffffffffff808211156113a957600080fd5b6113b5878388016112b2565b945060208601359150808211156113cb57600080fd5b506113d8868287016112b2565b925050604084013590509250925092565b602080825282516001600160a01b03168282015282015160e0604083015260009061141861010084018261122a565b90506040840151601f19848303016060850152611435828261122a565b915050606084015160808401526080840151151560a084015260a0840151151560c084015260c084015160e08401528091505092915050565b6000806040838503121561148157600080fd5b61148a836111ec565b9150611498602084016111ec565b90509250929050565b6020808252601590820152741d5cd95c881a185cc81899595b8819195b195d1959605a1b604082015260600190565b6020808252601390820152721d5cd95c88191bd95cc81b9bdd08195e1a5cdd606a1b604082015260600190565b634e487b7160e01b600052601160045260246000fd5b600081611522576115226114fd565b506000190190565b600181811c9082168061153e57607f821691505b60208210810361155e57634e487b7160e01b600052602260045260246000fd5b50919050565b601f8211156115ae57600081815260208120601f850160051c8101602086101561158b5750805b601f850160051c820191505b818110156115aa57828155600101611597565b5050505b505050565b815167ffffffffffffffff8111156115cd576115cd61129c565b6115e1816115db845461152a565b84611564565b602080601f83116001811461161657600084156115fe5750858301515b600019600386901b1c1916600185901b1785556115aa565b600085815260208120601f198616915b8281101561164557888601518255948401946001909101908401611626565b50858210156116635787850151600019600388901b60f8161c191681555b5050505050600190811b01905550565b600060018201611685576116856114fd565b506001019056fea2646970667358221220097a70f146a797983becdd57d2bed062b6980188e16d6fce09bc31395ad4d06064736f6c63430008130033",
  "immutableReferences": {},
  "source": "pragma solidity ^0.8.0;\n\nimport \"./Post.sol\";\n\ncontract User {\n    // Struct to store user data\n    struct UserData {\n        address addr;\n        string name;\n        string email;\n        uint age;\n        bool deleted;\n        bool isPrivateAccount;\n        uint followCount;\n    }\n    \n    Post postContract;\n    // Mapping to store user data by address\n    mapping(address => UserData) private users;\n    // mapping of creator => follower => bool (true if follower is following creator)\n    mapping(address => mapping(address => bool)) isFollowing;\n    // mapping of creator => requester => bool (true if requester is requeswting to follow creator)\n    mapping(address => mapping(address => bool)) requestedFollow;\n\n    constructor(Post _postContract) {\n        postContract = _postContract;\n    }\n\n    modifier notDeleted(address user) {\n        require(!users[user].deleted, \"user has been deleted\");\n        _;\n    }\n\n    modifier userExists(address addr) {\n        require(addr == users[addr].addr, \"user does not exist\");\n        _;\n    }\n\n    function exists(address addr) public view returns (bool) {\n        return addr == users[addr].addr && !users[addr].deleted;\n    }\n\n    function isPrivateAccount(address addr) public view notDeleted(addr) userExists(addr) returns (bool) {\n        return users[addr].isPrivateAccount;\n    }\n\n    function isFollower(address account, address follower) public view notDeleted(account) userExists(account) notDeleted(follower) userExists(follower) returns (bool) {\n        return isFollowing[account][follower];\n    }\n    \n    // Function to create a new user\n    function createUser(string memory _name, string memory _email, uint _age) public {\n        require(bytes(_name).length > 0, \"name is empty\");\n        require(bytes(_email).length > 0, \"email is empty\");\n        require(_age >= 13, \"you are too young\");\n        require(users[msg.sender].addr == address(0), \"user already exists\");\n        UserData storage user = users[msg.sender];\n        user.addr = msg.sender;\n        user.name = _name;\n        user.email = _email;\n        user.age = _age;\n    }\n    \n    // Function to retrieve user profile\n    function getProfile() public view notDeleted(msg.sender) userExists(msg.sender) returns(UserData memory) {\n        return users[msg.sender];\n    }\n\n    function getName(address user) public view notDeleted(user) userExists(user) returns(string memory) {\n        return users[user].name;\n    }\n\n    function getFollowerCount(address user) public view notDeleted(user) userExists(user) returns(uint) {\n        return users[msg.sender].followCount;\n    }\n\n    function updateName(string memory _name) public notDeleted(msg.sender) userExists(msg.sender) {\n        users[msg.sender].name = _name;\n    }\n\n    function updateEmail(string memory _email) public notDeleted(msg.sender) userExists(msg.sender) {\n        users[msg.sender].email = _email;\n    }\n\n    function updateAge(uint _age) public notDeleted(msg.sender) userExists(msg.sender) {\n        users[msg.sender].age = _age;\n    }\n\n    function privateAccount() public notDeleted(msg.sender) userExists(msg.sender) {\n        users[msg.sender].isPrivateAccount = true;\n    }\n\n    function unprivateAccount() public notDeleted(msg.sender) userExists(msg.sender) {\n        users[msg.sender].isPrivateAccount = false;\n    }\n\n    function acceptFollower(address requester) public notDeleted(msg.sender) userExists(msg.sender) {\n        require(requestedFollow[msg.sender][requester], \"follow request not found\");\n        delete requestedFollow[msg.sender][requester];\n        isFollowing[msg.sender][requester] = true;\n        users[msg.sender].followCount++;\n    }\n\n    function removeFollower(address follower) public notDeleted(msg.sender) userExists(msg.sender) {\n        require(isFollowing[msg.sender][follower], \"follower not found\");\n        isFollowing[msg.sender][follower] = false;\n        users[msg.sender].followCount--;\n    }\n\n    function requestFollow(address user) public notDeleted(user) userExists(user) notDeleted(msg.sender) userExists(msg.sender) {\n        require(!isFollowing[user][msg.sender], \"you have already followed this person\");\n        require(!requestedFollow[user][msg.sender], \"you have already requested to follow this person\");\n        requestedFollow[user][msg.sender] = true;\n    }\n    \n    // Function to delete user data\n    function deleteUser() public notDeleted(msg.sender) userExists(msg.sender) {\n        postContract.deleteAllUserPosts(msg.sender);\n        users[msg.sender].deleted = true;\n    }\n\n}",
  "sourcePath": "/Users/cy/git/sch/is4302/DefiSocialMedia/contracts/User.sol",
  "compiler": {
    "name": "solc",
    "version": "0.8.19+commit.7dd6d404.Emscripten.clang"
  },
  "schemaVersion": "3.4.11",
  "updatedAt": "2023-03-22T16:06:03.424Z",
  "networkType": "ethereum",
  "devdoc": {
    "kind": "dev",
    "methods": {},
    "version": 1
  },
  "userdoc": {
    "kind": "user",
    "methods": {},
    "version": 1
  }
}