{
  "contractName": "User",
  "abi": [
    {
      "inputs": [
        {
          "internalType": "string",
          "name": "_name",
          "type": "string"
        },
        {
          "internalType": "string",
          "name": "_email",
          "type": "string"
        },
        {
          "internalType": "uint256",
          "name": "_age",
          "type": "uint256"
        }
      ],
      "name": "createUser",
      "outputs": [],
      "stateMutability": "nonpayable",
      "type": "function"
    },
    {
      "inputs": [],
      "name": "getUser",
      "outputs": [
        {
          "internalType": "string",
          "name": "",
          "type": "string"
        },
        {
          "internalType": "string",
          "name": "",
          "type": "string"
        },
        {
          "internalType": "uint256",
          "name": "",
          "type": "uint256"
        }
      ],
      "stateMutability": "view",
      "type": "function"
    },
    {
      "inputs": [
        {
          "internalType": "string",
          "name": "_name",
          "type": "string"
        },
        {
          "internalType": "string",
          "name": "_email",
          "type": "string"
        },
        {
          "internalType": "uint256",
          "name": "_age",
          "type": "uint256"
        }
      ],
      "name": "updateUser",
      "outputs": [],
      "stateMutability": "nonpayable",
      "type": "function"
    },
    {
      "inputs": [],
      "name": "deleteUser",
      "outputs": [],
      "stateMutability": "nonpayable",
      "type": "function"
    }
  ],
  "bytecode": "0x608060405234801561001057600080fd5b50610bc9806100206000396000f3fe608060405234801561001057600080fd5b506004361061004c5760003560e01c8063026ff05e14610051578063153500aa1461005b578063832880e714610077578063d2cddda614610097575b600080fd5b6100596100b3565b005b61007560048036038101906100709190610757565b61011e565b005b61007f610333565b60405161008e93929190610870565b60405180910390f35b6100b160048036038101906100ac9190610757565b6104cd565b005b6000803373ffffffffffffffffffffffffffffffffffffffff1673ffffffffffffffffffffffffffffffffffffffff16815260200190815260200160002060008082016000610102919061056a565b600182016000610112919061056a565b60028201600090555050565b60008060003373ffffffffffffffffffffffffffffffffffffffff1673ffffffffffffffffffffffffffffffffffffffff168152602001908152602001600020604051806060016040529081600082018054610179906108e4565b80601f01602080910402602001604051908101604052809291908181526020018280546101a5906108e4565b80156101f25780601f106101c7576101008083540402835291602001916101f2565b820191906000526020600020905b8154815290600101906020018083116101d557829003601f168201915b5050505050815260200160018201805461020b906108e4565b80601f0160208091040260200160405190810160405280929190818152602001828054610237906108e4565b80156102845780601f1061025957610100808354040283529160200191610284565b820191906000526020600020905b81548152906001019060200180831161026757829003601f168201915b50505050508152602001600282015481525050905083816000018190525082816020018190525081816040018181525050806000803373ffffffffffffffffffffffffffffffffffffffff1673ffffffffffffffffffffffffffffffffffffffff16815260200190815260200160002060008201518160000190816103099190610ac1565b50602082015181600101908161031f9190610ac1565b506040820151816002015590505050505050565b6060806000806000803373ffffffffffffffffffffffffffffffffffffffff1673ffffffffffffffffffffffffffffffffffffffff168152602001908152602001600020604051806060016040529081600082018054610392906108e4565b80601f01602080910402602001604051908101604052809291908181526020018280546103be906108e4565b801561040b5780601f106103e05761010080835404028352916020019161040b565b820191906000526020600020905b8154815290600101906020018083116103ee57829003601f168201915b50505050508152602001600182018054610424906108e4565b80601f0160208091040260200160405190810160405280929190818152602001828054610450906108e4565b801561049d5780601f106104725761010080835404028352916020019161049d565b820191906000526020600020905b81548152906001019060200180831161048057829003601f168201915b50505050508152602001600282015481525050905080600001518160200151826040015193509350935050909192565b60006040518060600160405280858152602001848152602001838152509050806000803373ffffffffffffffffffffffffffffffffffffffff1673ffffffffffffffffffffffffffffffffffffffff16815260200190815260200160002060008201518160000190816105409190610ac1565b5060208201518160010190816105569190610ac1565b506040820151816002015590505050505050565b508054610576906108e4565b6000825580601f1061058857506105a7565b601f0160209004906000526020600020908101906105a691906105aa565b5b50565b5b808211156105c35760008160009055506001016105ab565b5090565b6000604051905090565b600080fd5b600080fd5b600080fd5b600080fd5b6000601f19601f8301169050919050565b7f4e487b7100000000000000000000000000000000000000000000000000000000600052604160045260246000fd5b61062e826105e5565b810181811067ffffffffffffffff8211171561064d5761064c6105f6565b5b80604052505050565b60006106606105c7565b905061066c8282610625565b919050565b600067ffffffffffffffff82111561068c5761068b6105f6565b5b610695826105e5565b9050602081019050919050565b82818337600083830152505050565b60006106c46106bf84610671565b610656565b9050828152602081018484840111156106e0576106df6105e0565b5b6106eb8482856106a2565b509392505050565b600082601f830112610708576107076105db565b5b81356107188482602086016106b1565b91505092915050565b6000819050919050565b61073481610721565b811461073f57600080fd5b50565b6000813590506107518161072b565b92915050565b6000806000606084860312156107705761076f6105d1565b5b600084013567ffffffffffffffff81111561078e5761078d6105d6565b5b61079a868287016106f3565b935050602084013567ffffffffffffffff8111156107bb576107ba6105d6565b5b6107c7868287016106f3565b92505060406107d886828701610742565b9150509250925092565b600081519050919050565b600082825260208201905092915050565b60005b8381101561081c578082015181840152602081019050610801565b60008484015250505050565b6000610833826107e2565b61083d81856107ed565b935061084d8185602086016107fe565b610856816105e5565b840191505092915050565b61086a81610721565b82525050565b6000606082019050818103600083015261088a8186610828565b9050818103602083015261089e8185610828565b90506108ad6040830184610861565b949350505050565b7f4e487b7100000000000000000000000000000000000000000000000000000000600052602260045260246000fd5b600060028204905060018216806108fc57607f821691505b60208210810361090f5761090e6108b5565b5b50919050565b60008190508160005260206000209050919050565b60006020601f8301049050919050565b600082821b905092915050565b6000600883026109777fffffffffffffffffffffffffffffffffffffffffffffffffffffffffffffffff8261093a565b610981868361093a565b95508019841693508086168417925050509392505050565b6000819050919050565b60006109be6109b96109b484610721565b610999565b610721565b9050919050565b6000819050919050565b6109d8836109a3565b6109ec6109e4826109c5565b848454610947565b825550505050565b600090565b610a016109f4565b610a0c8184846109cf565b505050565b5b81811015610a3057610a256000826109f9565b600181019050610a12565b5050565b601f821115610a7557610a4681610915565b610a4f8461092a565b81016020851015610a5e578190505b610a72610a6a8561092a565b830182610a11565b50505b505050565b600082821c905092915050565b6000610a9860001984600802610a7a565b1980831691505092915050565b6000610ab18383610a87565b9150826002028217905092915050565b610aca826107e2565b67ffffffffffffffff811115610ae357610ae26105f6565b5b610aed82546108e4565b610af8828285610a34565b600060209050601f831160018114610b2b5760008415610b19578287015190505b610b238582610aa5565b865550610b8b565b601f198416610b3986610915565b60005b82811015610b6157848901518255600182019150602085019450602081019050610b3c565b86831015610b7e5784890151610b7a601f891682610a87565b8355505b6001600288020188555050505b50505050505056fea2646970667358221220363b04700303c0a54d1329c4182a9be85fd343f0770713601c511e265cb5780664736f6c63430008130033",
  "immutableReferences": {},
  "source": "pragma solidity ^0.8.0;\n\ncontract User {\n    \n    // Struct to store user data\n    struct UserData {\n        string name;\n        string email;\n        uint age;\n    }\n    \n    // Mapping to store user data by address\n    mapping(address => UserData) private users;\n    \n    // Function to create a new user\n    function createUser(string memory _name, string memory _email, uint _age) public {\n        UserData memory newUser = UserData(_name, _email, _age);\n        users[msg.sender] = newUser;\n    }\n    \n    // Function to retrieve user data by address\n    function getUser() public view returns(string memory, string memory, uint) {\n        UserData memory currentUser = users[msg.sender];\n        return (currentUser.name, currentUser.email, currentUser.age);\n    }\n    \n    // Function to update user data\n    function updateUser(string memory _name, string memory _email, uint _age) public {\n        UserData memory currentUser = users[msg.sender];\n        currentUser.name = _name;\n        currentUser.email = _email;\n        currentUser.age = _age;\n        users[msg.sender] = currentUser;\n    }\n    \n    // Function to delete user data\n    function deleteUser() public {\n        delete users[msg.sender];\n    }\n\n}",
  "sourcePath": "/Users/cy/git/sch/is4302/DefiSocialMedia/contracts/User.sol",
  "compiler": {
    "name": "solc",
    "version": "0.8.19+commit.7dd6d404.Emscripten.clang"
  },
  "schemaVersion": "3.4.11",
  "updatedAt": "2023-03-20T16:31:33.304Z",
  "devdoc": {
    "kind": "dev",
    "methods": {},
    "version": 1
  },
  "userdoc": {
    "kind": "user",
    "methods": {},
    "version": 1
  }
}