{
  "contractName": "User",
  "abi": [
    {
      "inputs": [
        {
          "internalType": "contract Post",
          "name": "_postContract",
          "type": "address"
        }
      ],
      "stateMutability": "nonpayable",
      "type": "constructor"
    },
    {
      "inputs": [
        {
          "internalType": "string",
          "name": "_name",
          "type": "string"
        },
        {
          "internalType": "string",
          "name": "_email",
          "type": "string"
        },
        {
          "internalType": "uint256",
          "name": "_age",
          "type": "uint256"
        }
      ],
      "name": "createUser",
      "outputs": [],
      "stateMutability": "nonpayable",
      "type": "function"
    },
    {
      "inputs": [],
      "name": "getUser",
      "outputs": [
        {
          "internalType": "string",
          "name": "",
          "type": "string"
        },
        {
          "internalType": "string",
          "name": "",
          "type": "string"
        },
        {
          "internalType": "uint256",
          "name": "",
          "type": "uint256"
        }
      ],
      "stateMutability": "view",
      "type": "function"
    },
    {
      "inputs": [
        {
          "internalType": "string",
          "name": "_name",
          "type": "string"
        },
        {
          "internalType": "string",
          "name": "_email",
          "type": "string"
        },
        {
          "internalType": "uint256",
          "name": "_age",
          "type": "uint256"
        }
      ],
      "name": "updateUser",
      "outputs": [],
      "stateMutability": "nonpayable",
      "type": "function"
    },
    {
      "inputs": [],
      "name": "deleteUser",
      "outputs": [],
      "stateMutability": "nonpayable",
      "type": "function"
    }
  ],
  "bytecode": "0x608060405234801561001057600080fd5b50604051610dde380380610dde833981810160405281019061003291906100ed565b806000806101000a81548173ffffffffffffffffffffffffffffffffffffffff021916908373ffffffffffffffffffffffffffffffffffffffff1602179055505061011a565b600080fd5b600073ffffffffffffffffffffffffffffffffffffffff82169050919050565b60006100a88261007d565b9050919050565b60006100ba8261009d565b9050919050565b6100ca816100af565b81146100d557600080fd5b50565b6000815190506100e7816100c1565b92915050565b60006020828403121561010357610102610078565b5b6000610111848285016100d8565b91505092915050565b610cb5806101296000396000f3fe608060405234801561001057600080fd5b506004361061004c5760003560e01c8063026ff05e14610051578063153500aa1461005b578063832880e714610077578063d2cddda614610097575b600080fd5b6100596100b3565b005b610075600480360381019061007091906107e7565b6101aa565b005b61007f6103c1565b60405161008e93929190610900565b60405180910390f35b6100b160048036038101906100ac91906107e7565b61055c565b005b60008054906101000a900473ffffffffffffffffffffffffffffffffffffffff1673ffffffffffffffffffffffffffffffffffffffff1663ffd795d4336040518263ffffffff1660e01b815260040161010c9190610986565b600060405180830381600087803b15801561012657600080fd5b505af115801561013a573d6000803e3d6000fd5b50505050600160003373ffffffffffffffffffffffffffffffffffffffff1673ffffffffffffffffffffffffffffffffffffffff1681526020019081526020016000206000808201600061018e91906105fa565b60018201600061019e91906105fa565b60028201600090555050565b6000600160003373ffffffffffffffffffffffffffffffffffffffff1673ffffffffffffffffffffffffffffffffffffffff168152602001908152602001600020604051806060016040529081600082018054610206906109d0565b80601f0160208091040260200160405190810160405280929190818152602001828054610232906109d0565b801561027f5780601f106102545761010080835404028352916020019161027f565b820191906000526020600020905b81548152906001019060200180831161026257829003601f168201915b50505050508152602001600182018054610298906109d0565b80601f01602080910402602001604051908101604052809291908181526020018280546102c4906109d0565b80156103115780601f106102e657610100808354040283529160200191610311565b820191906000526020600020905b8154815290600101906020018083116102f457829003601f168201915b5050505050815260200160028201548152505090508381600001819052508281602001819052508181604001818152505080600160003373ffffffffffffffffffffffffffffffffffffffff1673ffffffffffffffffffffffffffffffffffffffff16815260200190815260200160002060008201518160000190816103979190610bad565b5060208201518160010190816103ad9190610bad565b506040820151816002015590505050505050565b606080600080600160003373ffffffffffffffffffffffffffffffffffffffff1673ffffffffffffffffffffffffffffffffffffffff168152602001908152602001600020604051806060016040529081600082018054610421906109d0565b80601f016020809104026020016040519081016040528092919081815260200182805461044d906109d0565b801561049a5780601f1061046f5761010080835404028352916020019161049a565b820191906000526020600020905b81548152906001019060200180831161047d57829003601f168201915b505050505081526020016001820180546104b3906109d0565b80601f01602080910402602001604051908101604052809291908181526020018280546104df906109d0565b801561052c5780601f106105015761010080835404028352916020019161052c565b820191906000526020600020905b81548152906001019060200180831161050f57829003601f168201915b50505050508152602001600282015481525050905080600001518160200151826040015193509350935050909192565b6000604051806060016040528085815260200184815260200183815250905080600160003373ffffffffffffffffffffffffffffffffffffffff1673ffffffffffffffffffffffffffffffffffffffff16815260200190815260200160002060008201518160000190816105d09190610bad565b5060208201518160010190816105e69190610bad565b506040820151816002015590505050505050565b508054610606906109d0565b6000825580601f106106185750610637565b601f016020900490600052602060002090810190610636919061063a565b5b50565b5b8082111561065357600081600090555060010161063b565b5090565b6000604051905090565b600080fd5b600080fd5b600080fd5b600080fd5b6000601f19601f8301169050919050565b7f4e487b7100000000000000000000000000000000000000000000000000000000600052604160045260246000fd5b6106be82610675565b810181811067ffffffffffffffff821117156106dd576106dc610686565b5b80604052505050565b60006106f0610657565b90506106fc82826106b5565b919050565b600067ffffffffffffffff82111561071c5761071b610686565b5b61072582610675565b9050602081019050919050565b82818337600083830152505050565b600061075461074f84610701565b6106e6565b9050828152602081018484840111156107705761076f610670565b5b61077b848285610732565b509392505050565b600082601f8301126107985761079761066b565b5b81356107a8848260208601610741565b91505092915050565b6000819050919050565b6107c4816107b1565b81146107cf57600080fd5b50565b6000813590506107e1816107bb565b92915050565b600080600060608486031215610800576107ff610661565b5b600084013567ffffffffffffffff81111561081e5761081d610666565b5b61082a86828701610783565b935050602084013567ffffffffffffffff81111561084b5761084a610666565b5b61085786828701610783565b9250506040610868868287016107d2565b9150509250925092565b600081519050919050565b600082825260208201905092915050565b60005b838110156108ac578082015181840152602081019050610891565b60008484015250505050565b60006108c382610872565b6108cd818561087d565b93506108dd81856020860161088e565b6108e681610675565b840191505092915050565b6108fa816107b1565b82525050565b6000606082019050818103600083015261091a81866108b8565b9050818103602083015261092e81856108b8565b905061093d60408301846108f1565b949350505050565b600073ffffffffffffffffffffffffffffffffffffffff82169050919050565b600061097082610945565b9050919050565b61098081610965565b82525050565b600060208201905061099b6000830184610977565b92915050565b7f4e487b7100000000000000000000000000000000000000000000000000000000600052602260045260246000fd5b600060028204905060018216806109e857607f821691505b6020821081036109fb576109fa6109a1565b5b50919050565b60008190508160005260206000209050919050565b60006020601f8301049050919050565b600082821b905092915050565b600060088302610a637fffffffffffffffffffffffffffffffffffffffffffffffffffffffffffffffff82610a26565b610a6d8683610a26565b95508019841693508086168417925050509392505050565b6000819050919050565b6000610aaa610aa5610aa0846107b1565b610a85565b6107b1565b9050919050565b6000819050919050565b610ac483610a8f565b610ad8610ad082610ab1565b848454610a33565b825550505050565b600090565b610aed610ae0565b610af8818484610abb565b505050565b5b81811015610b1c57610b11600082610ae5565b600181019050610afe565b5050565b601f821115610b6157610b3281610a01565b610b3b84610a16565b81016020851015610b4a578190505b610b5e610b5685610a16565b830182610afd565b50505b505050565b600082821c905092915050565b6000610b8460001984600802610b66565b1980831691505092915050565b6000610b9d8383610b73565b9150826002028217905092915050565b610bb682610872565b67ffffffffffffffff811115610bcf57610bce610686565b5b610bd982546109d0565b610be4828285610b20565b600060209050601f831160018114610c175760008415610c05578287015190505b610c0f8582610b91565b865550610c77565b601f198416610c2586610a01565b60005b82811015610c4d57848901518255600182019150602085019450602081019050610c28565b86831015610c6a5784890151610c66601f891682610b73565b8355505b6001600288020188555050505b50505050505056fea2646970667358221220dfccf5cb1cf28bae8d748f382991040e0503594b8e9fdac145449f678aa5a4f264736f6c63430008130033",
  "immutableReferences": {},
  "source": "pragma solidity ^0.8.0;\n\nimport \"./Post.sol\";\n\ncontract User {\n    // Struct to store user data\n    struct UserData {\n        string name;\n        string email;\n        uint age;\n    }\n    \n    Post postContract;\n    // Mapping to store user data by address\n    mapping(address => UserData) private users;\n\n    constructor(Post _postContract) {\n        postContract = _postContract;\n    }\n    \n    // Function to create a new user\n    function createUser(string memory _name, string memory _email, uint _age) public {\n        UserData memory newUser = UserData(_name, _email, _age);\n        users[msg.sender] = newUser;\n    }\n    \n    // Function to retrieve user data by address\n    function getUser() public view returns(string memory, string memory, uint) {\n        UserData memory currentUser = users[msg.sender];\n        return (currentUser.name, currentUser.email, currentUser.age);\n    }\n    \n    // Function to update user data\n    function updateUser(string memory _name, string memory _email, uint _age) public {\n        UserData memory currentUser = users[msg.sender];\n        currentUser.name = _name;\n        currentUser.email = _email;\n        currentUser.age = _age;\n        users[msg.sender] = currentUser;\n    }\n    \n    // Function to delete user data\n    function deleteUser() public {\n        postContract.deleteAllUserPosts(msg.sender);\n        delete users[msg.sender];\n    }\n\n}",
  "sourcePath": "/Users/cy/git/sch/is4302/DefiSocialMedia/contracts/User.sol",
  "compiler": {
    "name": "solc",
    "version": "0.8.19+commit.7dd6d404.Emscripten.clang"
  },
  "schemaVersion": "3.4.11",
  "updatedAt": "2023-03-21T13:19:03.120Z",
  "devdoc": {
    "kind": "dev",
    "methods": {},
    "version": 1
  },
  "userdoc": {
    "kind": "user",
    "methods": {},
    "version": 1
  }
}